{
  "_format": "hh-sol-artifact-1",
  "contractName": "PredictionManager",
  "sourceName": "contracts/PredictionManager.sol",
  "abi": [
    {
      "stateMutability": "payable",
      "type": "fallback"
    },
    {
      "inputs": [
        {
          "internalType": "address",
          "name": "entityAddress",
          "type": "address"
        }
      ],
      "name": "bidWin",
      "outputs": [],
      "stateMutability": "nonpayable",
      "type": "function"
    },
    {
      "inputs": [
        {
          "internalType": "address",
          "name": "entityAddress",
          "type": "address"
        }
      ],
      "name": "deleteBid",
      "outputs": [
        {
          "internalType": "bool",
          "name": "success",
          "type": "bool"
        }
      ],
      "stateMutability": "nonpayable",
      "type": "function"
    },
    {
      "inputs": [
        {
          "internalType": "address",
          "name": "entityAddress",
          "type": "address"
        }
      ],
      "name": "foo",
      "outputs": [
        {
          "internalType": "bool",
          "name": "success",
          "type": "bool"
        }
      ],
      "stateMutability": "nonpayable",
      "type": "function"
    },
    {
      "inputs": [],
      "name": "game_addr",
      "outputs": [
        {
          "internalType": "address",
          "name": "",
          "type": "address"
        }
      ],
      "stateMutability": "view",
      "type": "function"
    },
    {
      "inputs": [
        {
          "internalType": "address",
          "name": "addr",
          "type": "address"
        }
      ],
      "name": "getGameContractAddress",
      "outputs": [],
      "stateMutability": "nonpayable",
      "type": "function"
    },
    {
      "inputs": [
        {
          "internalType": "address",
          "name": "entityAddress",
          "type": "address"
        }
      ],
      "name": "getMultiplier",
      "outputs": [
        {
          "internalType": "uint256",
          "name": "response",
          "type": "uint256"
        }
      ],
      "stateMutability": "view",
      "type": "function"
    },
    {
      "inputs": [],
      "name": "getPredCount",
      "outputs": [
        {
          "internalType": "uint256",
          "name": "predsCount",
          "type": "uint256"
        }
      ],
      "stateMutability": "view",
      "type": "function"
    },
    {
      "inputs": [
        {
          "internalType": "address",
          "name": "entityAddress",
          "type": "address"
        }
      ],
      "name": "hasBid",
      "outputs": [
        {
          "internalType": "bool",
          "name": "",
          "type": "bool"
        }
      ],
      "stateMutability": "view",
      "type": "function"
    },
    {
      "inputs": [
        {
          "internalType": "address",
          "name": "entityAddress",
          "type": "address"
        }
      ],
      "name": "makeFinal",
      "outputs": [],
      "stateMutability": "nonpayable",
      "type": "function"
    },
    {
      "inputs": [
        {
          "components": [
            {
              "internalType": "address payable",
              "name": "bidAddr",
              "type": "address"
            },
            {
              "internalType": "address payable",
              "name": "challengerAddr",
              "type": "address"
            },
            {
              "internalType": "uint256",
              "name": "bidAmount",
              "type": "uint256"
            },
            {
              "internalType": "uint256",
              "name": "challengerAmount",
              "type": "uint256"
            },
            {
              "internalType": "uint256",
              "name": "bidOdds",
              "type": "uint256"
            },
            {
              "internalType": "string",
              "name": "gameWinner",
              "type": "string"
            },
            {
              "internalType": "uint256",
              "name": "gameID",
              "type": "uint256"
            },
            {
              "internalType": "bool",
              "name": "bidWin",
              "type": "bool"
            },
            {
              "internalType": "bool",
              "name": "hasChallenger",
              "type": "bool"
            },
            {
              "internalType": "bool",
              "name": "isFinal",
              "type": "bool"
            },
            {
              "internalType": "uint256",
              "name": "listPointer",
              "type": "uint256"
            }
          ],
          "internalType": "struct PredictionManager.Prediction",
          "name": "pred",
          "type": "tuple"
        }
      ],
      "name": "newBid",
      "outputs": [
        {
          "internalType": "bool",
          "name": "success",
          "type": "bool"
        }
      ],
      "stateMutability": "payable",
      "type": "function"
    },
    {
      "inputs": [],
      "name": "owner",
      "outputs": [
        {
          "internalType": "address",
          "name": "",
          "type": "address"
        }
      ],
      "stateMutability": "view",
      "type": "function"
    },
    {
      "inputs": [],
      "name": "predId",
      "outputs": [
        {
          "internalType": "uint256",
          "name": "",
          "type": "uint256"
        }
      ],
      "stateMutability": "view",
      "type": "function"
    },
    {
      "inputs": [
        {
          "internalType": "uint256",
          "name": "",
          "type": "uint256"
        }
      ],
      "name": "predList",
      "outputs": [
        {
          "internalType": "address",
          "name": "",
          "type": "address"
        }
      ],
      "stateMutability": "view",
      "type": "function"
    },
    {
      "inputs": [
        {
          "internalType": "address",
          "name": "",
          "type": "address"
        }
      ],
      "name": "predictions",
      "outputs": [
        {
          "internalType": "address payable",
          "name": "bidAddr",
          "type": "address"
        },
        {
          "internalType": "address payable",
          "name": "challengerAddr",
          "type": "address"
        },
        {
          "internalType": "uint256",
          "name": "bidAmount",
          "type": "uint256"
        },
        {
          "internalType": "uint256",
          "name": "challengerAmount",
          "type": "uint256"
        },
        {
          "internalType": "uint256",
          "name": "bidOdds",
          "type": "uint256"
        },
        {
          "internalType": "string",
          "name": "gameWinner",
          "type": "string"
        },
        {
          "internalType": "uint256",
          "name": "gameID",
          "type": "uint256"
        },
        {
          "internalType": "bool",
          "name": "bidWin",
          "type": "bool"
        },
        {
          "internalType": "bool",
          "name": "hasChallenger",
          "type": "bool"
        },
        {
          "internalType": "bool",
          "name": "isFinal",
          "type": "bool"
        },
        {
          "internalType": "uint256",
          "name": "listPointer",
          "type": "uint256"
        }
      ],
      "stateMutability": "view",
      "type": "function"
    },
    {
      "inputs": [
        {
          "internalType": "address payable",
          "name": "sourceAddr",
          "type": "address"
        }
      ],
      "name": "returnResults",
      "outputs": [
        {
          "internalType": "bool",
          "name": "success",
          "type": "bool"
        }
      ],
      "stateMutability": "nonpayable",
      "type": "function"
    },
    {
      "inputs": [
        {
          "internalType": "address",
          "name": "bidAddress",
          "type": "address"
        },
        {
          "internalType": "address payable",
          "name": "challengerAddr",
          "type": "address"
        }
      ],
      "name": "updateBidWithChallenger",
      "outputs": [],
      "stateMutability": "payable",
      "type": "function"
    },
    {
      "stateMutability": "payable",
      "type": "receive"
    }
  ],
  "bytecode": "0x6080604052600080546001600160a01b031990811633178255600191909155600280549091163017905534801561003557600080fd5b5061170b806100456000396000f3fe6080604052600436106100eb5760003560e01c8063c833f9fa11610084578063f02d087511610056578063f02d0875146102ec578063f51c004e1461030c578063f8bd97d71461031f578063fdf80bda1461033f57005b8063c833f9fa14610284578063d1aa657a146102a4578063d2639dbf146102b9578063ecd955cd146102d957005b806335fa61fa116100bd57806335fa61fa146101d157806380645265146102085780638da5cb5b1461022c578063a9d637e11461026457005b80630fb878de146100f4578063180698f114610129578063181fb7041461016b5780631bcd28bd146101b157005b366100f257005b005b34801561010057600080fd5b5061011461010f366004611317565b6103ad565b60405190151581526020015b60405180910390f35b34801561013557600080fd5b506100f2610144366004611317565b6001600160a01b03166000908152600460205260409020600701805460ff19166001179055565b34801561017757600080fd5b506100f2610186366004611317565b6001600160a01b03166000908152600460205260409020600701805462ff0000191662010000179055565b3480156101bd57600080fd5b506100f26101cc366004611317565b610860565b3480156101dd57600080fd5b506101f16101ec366004611317565b6108ae565b6040516101209b9a999897969594939291906114d1565b34801561021457600080fd5b5061021e60015481565b604051908152602001610120565b34801561023857600080fd5b5060005461024c906001600160a01b031681565b6040516001600160a01b039091168152602001610120565b34801561027057600080fd5b5061021e61027f366004611317565b6109a4565b34801561029057600080fd5b5060035461024c906001600160a01b031681565b3480156102b057600080fd5b5060055461021e565b3480156102c557600080fd5b506101146102d4366004611317565b610b32565b6101146102e7366004611372565b610b9f565b3480156102f857600080fd5b5061024c61030736600461146e565b610d52565b6100f261031a36600461133a565b610d7c565b34801561032b57600080fd5b5061011461033a366004611317565b610fc4565b34801561034b57600080fd5b5061011461035a366004611317565b6005805460018101825560009182527f036b6384b5eca791c62761152d0c79bb0604c104a5fb6f4eb0703f3154bb3db00180546001600160a01b0319166001600160a01b03939093169290921790915590565b6001600160a01b038082166000908152600460208181526040808420815161016081018352815487168152600182015490961692860192909252600282015490850152600381015460608501529081015460808401526005810180549293849390929160a084019161041e9061163e565b80601f016020809104026020016040519081016040528092919081815260200182805461044a9061163e565b80156104975780601f1061046c57610100808354040283529160200191610497565b820191906000526020600020905b81548152906001019060200180831161047a57829003601f168201915b505050918352505060068201546020820152600782015460ff80821615156040840152610100820481161515606084015262010000909104161515608082015260089091015460a090910152610120810151909150610565576040805162461bcd60e51b81526020600482015260248101919091527f43616e6e6f742072657475726e207061796f75747320666f722061206d61746360448201527f6865642062696420756e74696c207468652067616d652069732066696e616c2e60648201526084015b60405180910390fd5b806101000151158015610584575080516001600160a01b038481169116145b15610676576105b86040518060400160405280600e81526020016d4e6f206368616c6c656e6765722160901b8152506110e9565b600081604001519050600082600001516001600160a01b03168260405160006040518083038185875af1925050503d8060008114610612576040519150601f19603f3d011682016040523d82523d6000602084013e610617565b606091505b505090508061065f5760405162461bcd60e51b81526020600482015260146024820152732330b4b632b2103a379039b2b7321022ba3432b960611b604482015260640161055c565b825161066a90610fc4565b50600195945050505050565b826001600160a01b031681600001516001600160a01b031614801561069c57508060e001515b15610764576106cd6040518060400160405280600b81526020016a42696464657220776f6e2160a81b8152506110e9565b6000816060015182604001516106e391906115d0565b6040519091506001600160a01b0385169082156108fc029083906000818181858888f1935050505015801561071c573d6000803e3d6000fd5b5061074e6040518060400160405280601081526020016f11195b195d1a5b99c81d1a1948189a5960821b8152506110e9565b815161075990610fc4565b506001949350505050565b826001600160a01b031681602001516001600160a01b031614801561078b57508060e00151155b1561081b576107c06040518060400160405280600f81526020016e4368616c6c656e67657220776f6e2160881b8152506110e9565b6000816060015182604001516107d691906115d0565b6040519091506001600160a01b0385169082156108fc029083906000818181858888f1935050505015801561080f573d6000803e3d6000fd5b50815161075990610fc4565b61084560405180604001604052806009815260200168556e6361756768742160b81b8152506110e9565b805161085090610fc4565b5060009392505050565b50919050565b600380546001600160a01b0319166001600160a01b03831690811790915560408051808201909152600d81526c23b0b6b29030b2323932b9b99d60991b60208201526108ab9161112c565b50565b60046020819052600091825260409091208054600182015460028301546003840154948401546005850180546001600160a01b0395861697949095169592949192916108f99061163e565b80601f01602080910402602001604051908101604052809291908181526020018280546109259061163e565b80156109725780601f1061094757610100808354040283529160200191610972565b820191906000526020600020905b81548152906001019060200180831161095557829003601f168201915b50505050600683015460078401546008909401549293909260ff8083169350610100830481169262010000900416908b565b6001600160a01b038082166000908152600460208181526040808420815161016081018352815487168152600182015490961692860192909252600282015490850152600381015460608501529081015460808401526005810180549293849390929160a0840191610a159061163e565b80601f0160208091040260200160405190810160405280929190818152602001828054610a419061163e565b8015610a8e5780601f10610a6357610100808354040283529160200191610a8e565b820191906000526020600020905b815481529060010190602001808311610a7157829003601f168201915b505050918352505060068201546020820152600782015460ff8082161515604084015261010082048116151560608401526201000090910416151560808083019190915260089092015460a090910152810151909150600090610af2816064611627565b610afe90612710611608565b610b0891906115e8565b90506000612710828460400151610b1f9190611608565b610b2991906115e8565b95945050505050565b600554600090610b4457506000919050565b6001600160a01b038216600081815260046020526040902060080154600580549091908110610b8357634e487b7160e01b600052603260045260246000fd5b6000918252602090912001546001600160a01b03161492915050565b6000610baa33610b32565b15610bf75760405162461bcd60e51b815260206004820152601e60248201527f54686973206164647265737320616c7265616479206861732061206269640000604482015260640161055c565b600580546001818101835560008381527f036b6384b5eca791c62761152d0c79bb0604c104a5fb6f4eb0703f3154bb3db090920180546001600160a01b0319163390811790915585526101008501829052610120850182905260e08501919091529054610c649190611627565b61014083015233600090815260046020818152604092839020855181546001600160a01b039182166001600160a01b0319918216178355838801516001840180549190931691161790559285015160028401556060850151600384015560808501519183019190915560a08401518051859392610ce89260058501929101906111d7565b5060c0820151600682015560e08201516007820180546101008086015161012087015161ffff1990931694151561ff00191694909417931515029290921762ff00001916620100009215159290920291909117905561014090910151600890910155506001919050565b60058181548110610d6257600080fd5b6000918252602090912001546001600160a01b0316905081565b610d9e6040518060600160405280602181526020016116b5602191393361112c565b6001600160a01b0382811660009081526004602052604090206001810180546001600160a01b0319169284169290921790915560070154610100900460ff1615610e345760405162461bcd60e51b815260206004820152602160248201527f546869732062696420616c7265616479206861732061206368616c6c656e67656044820152603960f91b606482015260840161055c565b6000610e3f836109a4565b6001600160a01b0384811660008181526004602081815260408084206001810180546001600160a01b031916978b16979097179096556003860187905560078601805462ffff001916620101001790558051808201909152600b81526a2134b21030b6b7bab73a1d60a91b81830152939092529052600290910154919250610ec691611175565b610f226040518060400160405280601281526020017121b430b63632b733b2b91030b6b7bab73a1d60711b81525060046000866001600160a01b03166001600160a01b0316815260200190815260200160002060030154611175565b610fbf604051806040016040528060158152602001742134b217b1b430b63632b733b2b9103930ba34b79d60591b81525060046000866001600160a01b03166001600160a01b03168152602001908152602001600020600401546064610f889190611627565b6001600160a01b03861660009081526004602081905260409091200154610fb0906064611608565b610fba91906115e8565b611175565b505050565b6000610fcf82610b32565b610fd857600080fd5b6001600160a01b0382166000908152600460205260408120600801546005805491929161100790600190611627565b8154811061102557634e487b7160e01b600052603260045260246000fd5b600091825260209091200154600580546001600160a01b03909216925082918490811061106257634e487b7160e01b600052603260045260246000fd5b600091825260208083209190910180546001600160a01b0319166001600160a01b03948516179055918316815260049091526040902060080182905560058054806110bd57634e487b7160e01b600052603160045260246000fd5b600082815260209020810160001990810180546001600160a01b03191690550190555060019392505050565b6108ab816040516024016110fd9190611547565b60408051601f198184030181529190526020810180516001600160e01b031663104c13eb60e21b1790526111b6565b611171828260405160240161114292919061155a565b60408051601f198184030181529190526020810180516001600160e01b031663319af33360e01b1790526111b6565b5050565b611171828260405160240161118b929190611584565b60408051601f198184030181529190526020810180516001600160e01b03166309710a9d60e41b1790525b80516a636f6e736f6c652e6c6f67602083016000808483855afa5050505050565b8280546111e39061163e565b90600052602060002090601f016020900481019282611205576000855561124b565b82601f1061121e57805160ff191683800117855561124b565b8280016001018555821561124b579182015b8281111561124b578251825591602001919060010190611230565b5061125792915061125b565b5090565b5b80821115611257576000815560010161125c565b803561127b8161169f565b919050565b8035801515811461127b57600080fd5b600082601f8301126112a0578081fd5b813567ffffffffffffffff808211156112bb576112bb611689565b604051601f8301601f19908116603f011681019082821181831017156112e3576112e3611689565b816040528381528660208588010111156112fb578485fd5b8360208701602083013792830160200193909352509392505050565b600060208284031215611328578081fd5b81356113338161169f565b9392505050565b6000806040838503121561134c578081fd5b82356113578161169f565b915060208301356113678161169f565b809150509250929050565b600060208284031215611383578081fd5b813567ffffffffffffffff8082111561139a578283fd5b9083019061016082860312156113ae578283fd5b6113b66115a6565b6113bf83611270565b81526113cd60208401611270565b602082015260408301356040820152606083013560608201526080830135608082015260a083013582811115611401578485fd5b61140d87828601611290565b60a08301525060c083013560c082015261142960e08401611280565b60e0820152610100915061143e828401611280565b828201526101209150611452828401611280565b9181019190915261014091820135918101919091529392505050565b60006020828403121561147f578081fd5b5035919050565b60008151808452815b818110156114ab5760208185018101518683018201520161148f565b818111156114bc5782602083870101525b50601f01601f19169290920160200192915050565b6001600160a01b038c811682528b166020820152604081018a9052606081018990526080810188905261016060a082018190526000906115138382018a611486565b60c0840198909852505093151560e08501529115156101008401521515610120830152610140909101529695505050505050565b6020815260006113336020830184611486565b60408152600061156d6040830185611486565b905060018060a01b03831660208301529392505050565b6040815260006115976040830185611486565b90508260208301529392505050565b604051610160810167ffffffffffffffff811182821017156115ca576115ca611689565b60405290565b600082198211156115e3576115e3611673565b500190565b60008261160357634e487b7160e01b81526012600452602481fd5b500490565b600081600019048311821515161561162257611622611673565b500290565b60008282101561163957611639611673565b500390565b600181811c9082168061165257607f821691505b6020821081141561085a57634e487b7160e01b600052602260045260246000fd5b634e487b7160e01b600052601160045260246000fd5b634e487b7160e01b600052604160045260246000fd5b6001600160a01b03811681146108ab57600080fdfe416464726573732073656e64696e6720696e20746865206368616c6c656e67653aa2646970667358221220b96737509122c2edec7701d9221afe8061c5753ca2c1eebf6a8b60730688ff5a64736f6c63430008040033",
  "linkReferences": {},
  "deployedLinkReferences": {}
}