{
  "_format": "hh-sol-artifact-1",
  "contractName": "PredictionManager",
  "sourceName": "contracts/PredictionManager.sol",
  "abi": [
    {
      "stateMutability": "payable",
      "type": "fallback"
    },
    {
      "inputs": [
        {
          "internalType": "address",
          "name": "",
          "type": "address"
        }
      ],
      "name": "addressBook",
      "outputs": [
        {
          "internalType": "uint256",
          "name": "",
          "type": "uint256"
        }
      ],
      "stateMutability": "view",
      "type": "function"
    },
    {
      "inputs": [
        {
          "internalType": "address",
          "name": "addr",
          "type": "address"
        }
      ],
      "name": "getIndex",
      "outputs": [
        {
          "internalType": "uint256",
          "name": "index",
          "type": "uint256"
        }
      ],
      "stateMutability": "view",
      "type": "function"
    },
    {
      "inputs": [
        {
          "internalType": "uint256",
          "name": "index",
          "type": "uint256"
        }
      ],
      "name": "getPred",
      "outputs": [
        {
          "components": [
            {
              "internalType": "address payable",
              "name": "bidAddr",
              "type": "address"
            },
            {
              "internalType": "address payable",
              "name": "challengerAddr",
              "type": "address"
            },
            {
              "internalType": "uint256",
              "name": "bidAmount",
              "type": "uint256"
            },
            {
              "internalType": "uint256",
              "name": "challengerAmount",
              "type": "uint256"
            },
            {
              "internalType": "uint256",
              "name": "bidOdds",
              "type": "uint256"
            },
            {
              "internalType": "string",
              "name": "bidGameWinner",
              "type": "string"
            },
            {
              "internalType": "uint256",
              "name": "gameID",
              "type": "uint256"
            },
            {
              "internalType": "bool",
              "name": "bidWin",
              "type": "bool"
            },
            {
              "internalType": "bool",
              "name": "hasChallenger",
              "type": "bool"
            },
            {
              "internalType": "bool",
              "name": "isFinal",
              "type": "bool"
            }
          ],
          "internalType": "struct PredictionManager.Prediction",
          "name": "pred",
          "type": "tuple"
        }
      ],
      "stateMutability": "view",
      "type": "function"
    },
    {
      "inputs": [
        {
          "internalType": "address",
          "name": "addr",
          "type": "address"
        }
      ],
      "name": "hasActiveBid",
      "outputs": [
        {
          "internalType": "bool",
          "name": "",
          "type": "bool"
        }
      ],
      "stateMutability": "view",
      "type": "function"
    },
    {
      "inputs": [],
      "name": "owner",
      "outputs": [
        {
          "internalType": "address",
          "name": "",
          "type": "address"
        }
      ],
      "stateMutability": "view",
      "type": "function"
    },
    {
      "inputs": [],
      "name": "predId",
      "outputs": [
        {
          "internalType": "uint256",
          "name": "",
          "type": "uint256"
        }
      ],
      "stateMutability": "view",
      "type": "function"
    },
    {
      "inputs": [
        {
          "internalType": "uint256",
          "name": "",
          "type": "uint256"
        }
      ],
      "name": "predictionList",
      "outputs": [
        {
          "internalType": "address payable",
          "name": "bidAddr",
          "type": "address"
        },
        {
          "internalType": "address payable",
          "name": "challengerAddr",
          "type": "address"
        },
        {
          "internalType": "uint256",
          "name": "bidAmount",
          "type": "uint256"
        },
        {
          "internalType": "uint256",
          "name": "challengerAmount",
          "type": "uint256"
        },
        {
          "internalType": "uint256",
          "name": "bidOdds",
          "type": "uint256"
        },
        {
          "internalType": "string",
          "name": "bidGameWinner",
          "type": "string"
        },
        {
          "internalType": "uint256",
          "name": "gameID",
          "type": "uint256"
        },
        {
          "internalType": "bool",
          "name": "bidWin",
          "type": "bool"
        },
        {
          "internalType": "bool",
          "name": "hasChallenger",
          "type": "bool"
        },
        {
          "internalType": "bool",
          "name": "isFinal",
          "type": "bool"
        }
      ],
      "stateMutability": "view",
      "type": "function"
    },
    {
      "inputs": [
        {
          "components": [
            {
              "internalType": "address payable",
              "name": "bidAddr",
              "type": "address"
            },
            {
              "internalType": "address payable",
              "name": "challengerAddr",
              "type": "address"
            },
            {
              "internalType": "uint256",
              "name": "bidAmount",
              "type": "uint256"
            },
            {
              "internalType": "uint256",
              "name": "challengerAmount",
              "type": "uint256"
            },
            {
              "internalType": "uint256",
              "name": "bidOdds",
              "type": "uint256"
            },
            {
              "internalType": "string",
              "name": "bidGameWinner",
              "type": "string"
            },
            {
              "internalType": "uint256",
              "name": "gameID",
              "type": "uint256"
            },
            {
              "internalType": "bool",
              "name": "bidWin",
              "type": "bool"
            },
            {
              "internalType": "bool",
              "name": "hasChallenger",
              "type": "bool"
            },
            {
              "internalType": "bool",
              "name": "isFinal",
              "type": "bool"
            }
          ],
          "internalType": "struct PredictionManager.Prediction",
          "name": "pred",
          "type": "tuple"
        }
      ],
      "name": "receiveNewBid",
      "outputs": [],
      "stateMutability": "payable",
      "type": "function"
    },
    {
      "inputs": [],
      "name": "returnResults",
      "outputs": [
        {
          "internalType": "bool",
          "name": "",
          "type": "bool"
        }
      ],
      "stateMutability": "nonpayable",
      "type": "function"
    },
    {
      "inputs": [
        {
          "internalType": "uint256",
          "name": "predIndex",
          "type": "uint256"
        },
        {
          "internalType": "address payable",
          "name": "challengerAddr",
          "type": "address"
        },
        {
          "internalType": "uint256",
          "name": "amount",
          "type": "uint256"
        }
      ],
      "name": "updateBidWithChallenger",
      "outputs": [],
      "stateMutability": "payable",
      "type": "function"
    },
    {
      "stateMutability": "payable",
      "type": "receive"
    }
  ],
  "bytecode": "0x6080604052600080546001600160a01b0319163317815560015534801561002557600080fd5b5061118f806100356000396000f3fe60806040526004361061008f5760003560e01c80639590cf28116100565780639590cf281461019c578063b22fda86146101c9578063b31610db146101de578063d19adc1c14610214578063f862a4761461022757005b8063031b2948146100985780630af8d5a7146100ab57806313617db9146100e157806380645265146101405780638da5cb5b1461016457005b3661009657005b005b6100966100a6366004610dce565b61025d565b3480156100b757600080fd5b506100cb6100c6366004610ebd565b61054c565b6040516100d89190610fc7565b60405180910390f35b3480156100ed57600080fd5b506101306100fc366004610dab565b6001600160a01b03166000908152600260209081526040808320548352600390915290206007015462010000900460ff1690565b60405190151581526020016100d8565b34801561014c57600080fd5b5061015660015481565b6040519081526020016100d8565b34801561017057600080fd5b50600054610184906001600160a01b031681565b6040516001600160a01b0390911681526020016100d8565b3480156101a857600080fd5b506101566101b7366004610dab565b60026020526000908152604090205481565b3480156101d557600080fd5b506101306106cb565b3480156101ea57600080fd5b506101566101f9366004610dab565b6001600160a01b031660009081526002602052604090205490565b610096610222366004610ed5565b610a2f565b34801561023357600080fd5b50610247610242366004610ebd565b610b7c565b6040516100d89a99989796959493929190610f57565b336000908152600260209081526040808320548352600390915290206007015462010000900460ff161515600114156102ed5760405162461bcd60e51b815260206004820152602760248201527f54686973206164647265737320616c72656164792068617320616e20616374696044820152663b32903134b21760c91b60648201526084015b60405180910390fd5b3360009081526002602052604090205461040557600060e082018190526101008201819052610120820181905260018054825260036020818152604093849020855181546001600160a01b039182166001600160a01b0319918216178355838801519583018054969092169516949094179093559284015160028301556060840151908201556080830151600482015560a083015180518493610397926005850192910190610c6b565b5060c0820151600682015560e082015160079091018054610100808501516101209095015161ffff1990921693151561ff001916939093179315159092029290921762ff000019166201000091151591909102179055600180549060006103fd836110fd565b919050555050565b336000908152600260205260409020541580159061044d5750336000908152600260209081526040808320548352600390915290206007015462010000900460ff1615156001145b1561054957600060e0820181905261010082018190526101208201819052338152600260208181526040808420548452600380835293819020855181546001600160a01b039182166001600160a01b03199182161783558488015160018401805491909316911617905590850151928101929092556060840151928201929092556080830151600482015560a0830151805184936104f2926005850192910190610c6b565b5060c0820151600682015560e082015160079091018054610100808501516101209095015161ffff1990921693151561ff001916939093179315159092029290921762ff0000191662010000911515919091021790555b50565b604080516101408101825260008082526020820181905291810182905260608082018390526080820183905260a082015260c0810182905260e08101829052610100810182905261012081019190915260008281526003602081815260409283902083516101408101855281546001600160a01b039081168252600183015416928101929092526002810154938201939093529082015460608201526004820154608082015260058201805491929160a08401919061060a906110c2565b80601f0160208091040260200160405190810160405280929190818152602001828054610636906110c2565b80156106835780601f1061065857610100808354040283529160200191610683565b820191906000526020600020905b81548152906001019060200180831161066657829003601f168201915b50505091835250506006820154602082015260079091015460ff8082161515604084015261010082048116151560608401526201000090910416151560809091015292915050565b336000818152600260208181526040808420548452600380835281852082516101408101845281546001600160a01b03908116825260018301541694810194909452938401549183019190915282015460608201526004820154608082015260058201805493949385939160a0840191610744906110c2565b80601f0160208091040260200160405190810160405280929190818152602001828054610770906110c2565b80156107bd5780601f10610792576101008083540402835291602001916107bd565b820191906000526020600020905b8154815290600101906020018083116107a057829003601f168201915b50505091835250506006820154602082015260079091015460ff808216151560408401526101008204811615156060840152620100009091041615156080909101526101208101519091506108885760405162461bcd60e51b8152602060048201526044602482018190527f43616e6e6f742072657475726e207061796f75747320666f722061206d617463908201527f6865642062696420756e74696c2074686520726573756c7473206172652066696064820152633730b61760e11b608482015260a4016102e4565b33600090815260026020908152604080832054835260039091529020600701805462ff0000191690556101008101511580156108d0575080516001600160a01b038381169116145b1561098857600081604001519050600082600001516001600160a01b0316826040515b60006040518083038185875af1925050503d8060008114610930576040519150601f19603f3d011682016040523d82523d6000602084013e610935565b606091505b505090508061097d5760405162461bcd60e51b81526020600482015260146024820152732330b4b632b2103a379039b2b7321022ba3432b960611b60448201526064016102e4565b600194505050505090565b816001600160a01b031681600001516001600160a01b03161480156109ae57508060e001515b156109e4576000816060015182604001516109c991906110aa565b9050600082600001516001600160a01b0316826040516108f3565b816001600160a01b031681602001516001600160a01b0316148015610a0b57508060e00151155b15610a26576000816060015182604001516109c991906110aa565b60009250505090565b6001600160a01b03821660009081526002602090815260408083208690558583526003909152902060070154610100900460ff1615610aba5760405162461bcd60e51b815260206004820152602160248201527f546869732062696420616c7265616479206861732061206368616c6c656e67656044820152603960f91b60648201526084016102e4565b6000838152600360205260409020600201548114610b2e5760405162461bcd60e51b815260206004820152602b60248201527f4368616c6c656e676520616d6f756e7420646f6573206e6f74206d617463682060448201526a3134b21030b6b7bab73a1760a91b60648201526084016102e4565b60009283526003602081905260409093206001810180546001600160a01b039094166001600160a01b03199094169390931790925591810191909155600701805461ff001916610100179055565b60036020819052600091825260409091208054600182015460028301549383015460048401546005850180546001600160a01b039586169795909416959293919291610bc7906110c2565b80601f0160208091040260200160405190810160405280929190818152602001828054610bf3906110c2565b8015610c405780601f10610c1557610100808354040283529160200191610c40565b820191906000526020600020905b815481529060010190602001808311610c2357829003601f168201915b50505050600683015460079093015491929160ff80821692506101008204811691620100009004168a565b828054610c77906110c2565b90600052602060002090601f016020900481019282610c995760008555610cdf565b82601f10610cb257805160ff1916838001178555610cdf565b82800160010185558215610cdf579182015b82811115610cdf578251825591602001919060010190610cc4565b50610ceb929150610cef565b5090565b5b80821115610ceb5760008155600101610cf0565b8035610d0f81611144565b919050565b80358015158114610d0f57600080fd5b600082601f830112610d34578081fd5b813567ffffffffffffffff80821115610d4f57610d4f61112e565b604051601f8301601f19908116603f01168101908282118183101715610d7757610d7761112e565b81604052838152866020858801011115610d8f578485fd5b8360208701602083013792830160200193909352509392505050565b600060208284031215610dbc578081fd5b8135610dc781611144565b9392505050565b600060208284031215610ddf578081fd5b813567ffffffffffffffff80821115610df6578283fd5b908301906101408286031215610e0a578283fd5b610e12611080565b610e1b83610d04565b8152610e2960208401610d04565b602082015260408301356040820152606083013560608201526080830135608082015260a083013582811115610e5d578485fd5b610e6987828601610d24565b60a08301525060c083013560c0820152610e8560e08401610d14565b60e08201526101009150610e9a828401610d14565b828201526101209150610eae828401610d14565b91810191909152949350505050565b600060208284031215610ece578081fd5b5035919050565b600080600060608486031215610ee9578182fd5b833592506020840135610efb81611144565b929592945050506040919091013590565b60008151808452815b81811015610f3157602081850181015186830182015201610f15565b81811115610f425782602083870101525b50601f01601f19169290920160200192915050565b6001600160a01b038b811682528a16602082015260408101899052606081018890526080810187905261014060a08201819052600090610f9983820189610f0c565b60c0840197909752505092151560e08401529015156101008301521515610120909101529695505050505050565b60208152610fe16020820183516001600160a01b03169052565b60006020830151610ffd60408401826001600160a01b03169052565b506040830151606083015260608301516080830152608083015160a083015260a08301516101408060c0850152611038610160850183610f0c565b915060c085015160e085015260e08501516101006110598187018315159052565b860151905061012061106e8682018315159052565b90950151151593019290925250919050565b604051610140810167ffffffffffffffff811182821017156110a4576110a461112e565b60405290565b600082198211156110bd576110bd611118565b500190565b600181811c908216806110d657607f821691505b602082108114156110f757634e487b7160e01b600052602260045260246000fd5b50919050565b600060001982141561111157611111611118565b5060010190565b634e487b7160e01b600052601160045260246000fd5b634e487b7160e01b600052604160045260246000fd5b6001600160a01b038116811461054957600080fdfea2646970667358221220bb08ccc8d2a88e4a9e5a74c36d26a828ef91838830f863dcb8d6b272f7d5abf664736f6c63430008040033",
  "linkReferences": {},
  "deployedLinkReferences": {}
}