{
  "_format": "hh-sol-artifact-1",
  "contractName": "PredictionManager",
  "sourceName": "contracts/PredictionManager.sol",
  "abi": [
    {
      "stateMutability": "payable",
      "type": "fallback"
    },
    {
      "inputs": [
        {
          "internalType": "address",
          "name": "",
          "type": "address"
        }
      ],
      "name": "addressBook",
      "outputs": [
        {
          "internalType": "uint256",
          "name": "",
          "type": "uint256"
        }
      ],
      "stateMutability": "view",
      "type": "function"
    },
    {
      "inputs": [
        {
          "internalType": "uint256",
          "name": "index",
          "type": "uint256"
        }
      ],
      "name": "bidWin",
      "outputs": [],
      "stateMutability": "nonpayable",
      "type": "function"
    },
    {
      "inputs": [
        {
          "internalType": "address",
          "name": "addr",
          "type": "address"
        }
      ],
      "name": "getIndex",
      "outputs": [
        {
          "internalType": "uint256",
          "name": "index",
          "type": "uint256"
        }
      ],
      "stateMutability": "view",
      "type": "function"
    },
    {
      "inputs": [
        {
          "internalType": "uint256",
          "name": "index",
          "type": "uint256"
        }
      ],
      "name": "getPred",
      "outputs": [
        {
          "components": [
            {
              "internalType": "uint256",
              "name": "id",
              "type": "uint256"
            },
            {
              "internalType": "address payable",
              "name": "bidAddr",
              "type": "address"
            },
            {
              "internalType": "address payable",
              "name": "challengerAddr",
              "type": "address"
            },
            {
              "internalType": "uint256",
              "name": "bidAmount",
              "type": "uint256"
            },
            {
              "internalType": "uint256",
              "name": "challengerAmount",
              "type": "uint256"
            },
            {
              "internalType": "uint256",
              "name": "bidOdds",
              "type": "uint256"
            },
            {
              "internalType": "string",
              "name": "bidGameWinner",
              "type": "string"
            },
            {
              "internalType": "uint256",
              "name": "gameID",
              "type": "uint256"
            },
            {
              "internalType": "bool",
              "name": "bidWin",
              "type": "bool"
            },
            {
              "internalType": "bool",
              "name": "hasChallenger",
              "type": "bool"
            },
            {
              "internalType": "bool",
              "name": "isFinal",
              "type": "bool"
            }
          ],
          "internalType": "struct PredictionManager.Prediction",
          "name": "pred",
          "type": "tuple"
        }
      ],
      "stateMutability": "view",
      "type": "function"
    },
    {
      "inputs": [
        {
          "internalType": "address",
          "name": "addr",
          "type": "address"
        }
      ],
      "name": "hasActiveBid",
      "outputs": [
        {
          "internalType": "bool",
          "name": "",
          "type": "bool"
        }
      ],
      "stateMutability": "view",
      "type": "function"
    },
    {
      "inputs": [
        {
          "internalType": "uint256",
          "name": "index",
          "type": "uint256"
        }
      ],
      "name": "makeFinal",
      "outputs": [],
      "stateMutability": "nonpayable",
      "type": "function"
    },
    {
      "inputs": [],
      "name": "owner",
      "outputs": [
        {
          "internalType": "address",
          "name": "",
          "type": "address"
        }
      ],
      "stateMutability": "view",
      "type": "function"
    },
    {
      "inputs": [],
      "name": "predId",
      "outputs": [
        {
          "internalType": "uint256",
          "name": "",
          "type": "uint256"
        }
      ],
      "stateMutability": "view",
      "type": "function"
    },
    {
      "inputs": [
        {
          "internalType": "uint256",
          "name": "",
          "type": "uint256"
        }
      ],
      "name": "predictionList",
      "outputs": [
        {
          "internalType": "uint256",
          "name": "id",
          "type": "uint256"
        },
        {
          "internalType": "address payable",
          "name": "bidAddr",
          "type": "address"
        },
        {
          "internalType": "address payable",
          "name": "challengerAddr",
          "type": "address"
        },
        {
          "internalType": "uint256",
          "name": "bidAmount",
          "type": "uint256"
        },
        {
          "internalType": "uint256",
          "name": "challengerAmount",
          "type": "uint256"
        },
        {
          "internalType": "uint256",
          "name": "bidOdds",
          "type": "uint256"
        },
        {
          "internalType": "string",
          "name": "bidGameWinner",
          "type": "string"
        },
        {
          "internalType": "uint256",
          "name": "gameID",
          "type": "uint256"
        },
        {
          "internalType": "bool",
          "name": "bidWin",
          "type": "bool"
        },
        {
          "internalType": "bool",
          "name": "hasChallenger",
          "type": "bool"
        },
        {
          "internalType": "bool",
          "name": "isFinal",
          "type": "bool"
        }
      ],
      "stateMutability": "view",
      "type": "function"
    },
    {
      "inputs": [
        {
          "components": [
            {
              "internalType": "uint256",
              "name": "id",
              "type": "uint256"
            },
            {
              "internalType": "address payable",
              "name": "bidAddr",
              "type": "address"
            },
            {
              "internalType": "address payable",
              "name": "challengerAddr",
              "type": "address"
            },
            {
              "internalType": "uint256",
              "name": "bidAmount",
              "type": "uint256"
            },
            {
              "internalType": "uint256",
              "name": "challengerAmount",
              "type": "uint256"
            },
            {
              "internalType": "uint256",
              "name": "bidOdds",
              "type": "uint256"
            },
            {
              "internalType": "string",
              "name": "bidGameWinner",
              "type": "string"
            },
            {
              "internalType": "uint256",
              "name": "gameID",
              "type": "uint256"
            },
            {
              "internalType": "bool",
              "name": "bidWin",
              "type": "bool"
            },
            {
              "internalType": "bool",
              "name": "hasChallenger",
              "type": "bool"
            },
            {
              "internalType": "bool",
              "name": "isFinal",
              "type": "bool"
            }
          ],
          "internalType": "struct PredictionManager.Prediction",
          "name": "pred",
          "type": "tuple"
        }
      ],
      "name": "receiveNewBid",
      "outputs": [],
      "stateMutability": "payable",
      "type": "function"
    },
    {
      "inputs": [],
      "name": "returnResults",
      "outputs": [
        {
          "internalType": "bool",
          "name": "",
          "type": "bool"
        }
      ],
      "stateMutability": "nonpayable",
      "type": "function"
    },
    {
      "inputs": [
        {
          "internalType": "uint256",
          "name": "predIndex",
          "type": "uint256"
        },
        {
          "internalType": "address payable",
          "name": "challengerAddr",
          "type": "address"
        },
        {
          "internalType": "uint256",
          "name": "amount",
          "type": "uint256"
        }
      ],
      "name": "updateBidWithChallenger",
      "outputs": [],
      "stateMutability": "payable",
      "type": "function"
    },
    {
      "stateMutability": "payable",
      "type": "receive"
    }
  ],
  "bytecode": "0x6080604052600080546001600160a01b0319163317815560015534801561002557600080fd5b50611336806100356000396000f3fe6080604052600436106100a55760003560e01c80639590cf28116100615780639590cf28146101ef578063b22fda861461021c578063b31610db14610231578063c80db4d714610267578063d19adc1c146102a0578063f862a476146102b357005b80630af8d5a7146100ae57806313617db9146100e45780632f1e156a146101435780637fd5934b1461015657806380645265146101935780638da5cb5b146101b757005b366100ac57005b005b3480156100ba57600080fd5b506100ce6100c9366004611024565b6102ea565b6040516100db91906110ec565b60405180910390f35b3480156100f057600080fd5b506101336100ff366004610f05565b6001600160a01b03166000908152600260209081526040808320548352600390915290206008015462010000900460ff1690565b60405190151581526020016100db565b6100ac610151366004610f28565b61047d565b34801561016257600080fd5b506100ac610171366004611024565b6000908152600360205260409020600801805462ff0000191662010000179055565b34801561019f57600080fd5b506101a960015481565b6040519081526020016100db565b3480156101c357600080fd5b506000546101d7906001600160a01b031681565b6040516001600160a01b0390911681526020016100db565b3480156101fb57600080fd5b506101a961020a366004610f05565b60026020526000908152604090205481565b34801561022857600080fd5b506101336107b2565b34801561023d57600080fd5b506101a961024c366004610f05565b6001600160a01b031660009081526002602052604090205490565b34801561027357600080fd5b506100ac610282366004611024565b6000908152600360205260409020600801805460ff19166001179055565b6100ac6102ae36600461103c565b610b82565b3480156102bf57600080fd5b506102d36102ce366004611024565b610ccf565b6040516100db9b9a999897969594939291906111af565b604080516101608101825260008082526020820181905291810182905260608082018390526080820183905260a0820183905260c082015260e08101829052610100810182905261012081018290526101408101919091526000828152600360208181526040928390208351610160810185528154815260018201546001600160a01b039081169382019390935260028201549092169382019390935290820154606082015260048201546080820152600582015460a082015260068201805491929160c0840191906103bc90611269565b80601f01602080910402602001604051908101604052809291908181526020018280546103e890611269565b80156104355780601f1061040a57610100808354040283529160200191610435565b820191906000526020600020905b81548152906001019060200180831161041857829003601f168201915b50505091835250506007820154602082015260089091015460ff8082161515604084015261010082048116151560608401526201000090910416151560809091015292915050565b336000908152600260209081526040808320548352600390915290206008015462010000900460ff1615156001141561050d5760405162461bcd60e51b815260206004820152602760248201527f54686973206164647265737320616c72656164792068617320616e20616374696044820152663b32903134b21760c91b60648201526084015b60405180910390fd5b3360009081526002602052604090205461064757600061010082018190526101208201819052610140820181905260018054808452825260036020818152604093849020855181558186015193810180546001600160a01b03199081166001600160a01b0396871617909155948601516002820180549096169416939093179093556060840151908201556080830151600482015560a0830151600582015560c0830151805184936105c6926006850192910190610dc5565b5060e0820151600782015561010080830151600890920180546101208501516101409095015161ffff1990911693151561ff001916939093179315159091029290921762ff0000191662010000911515919091021790556001805433600090815260026020526040812082905590919061063f836112a4565b919050555050565b336000908152600260205260409020541580159061068f5750336000908152600260209081526040808320548352600390915290206008015462010000900460ff1615156001145b156107af576000610100820181905261012082018190526101408201819052600180548352338252600260208181526040808520548552600380835294819020865181558287015194810180546001600160a01b03199081166001600160a01b039788161790915591870151938101805490921693909416929092179091556060840151928201929092556080830151600482015560a0830151600582015560c083015180518493610748926006850192910190610dc5565b5060e0820151600782015561010080830151600890920180546101208501516101409095015161ffff1990911693151561ff001916939093179315159091029290921762ff0000191662010000911515919091021790556001805490600061063f836112a4565b50565b33600081815260026020818152604080842054845260038083528185208251610160810184528154815260018201546001600160a01b03908116958201959095529481015490931691840191909152810154606083015260048101546080830152600581015460a08301526006810180549394938593929160c084019161083890611269565b80601f016020809104026020016040519081016040528092919081815260200182805461086490611269565b80156108b15780601f10610886576101008083540402835291602001916108b1565b820191906000526020600020905b81548152906001019060200180831161089457829003601f168201915b50505091835250506007820154602082015260089091015460ff8082161515604084015261010082048116151560608401526201000090910416151560809091015261014081015190915061097c5760405162461bcd60e51b8152602060048201526044602482018190527f43616e6e6f742072657475726e207061796f75747320666f722061206d617463908201527f6865642062696420756e74696c2074686520726573756c7473206172652066696064820152633730b61760e11b608482015260a401610504565b33600090815260026020908152604080832054835260039091529020600801805462ff0000191690556101208101511580156109cd575080602001516001600160a01b0316826001600160a01b0316145b15610a2c57606081015160208201516040516000916001600160a01b03169083156108fc0290849084818181858888f19350505050905080610a215760405162461bcd60e51b8152600401610504906110be565b600194505050505090565b816001600160a01b031681602001516001600160a01b0316148015610a5357508061010001515b15610abd57600081608001518260600151610a6e9190611251565b9050600082602001516001600160a01b03166108fc839081150290604051600060405180830381858888f19350505050905080610a215760405162461bcd60e51b8152600401610504906110be565b816001600160a01b031681604001516001600160a01b0316148015610ae55750806101000151155b15610b7957600081608001518260600151610b009190611251565b9050600082602001516001600160a01b03168260405160006040518083038185875af1925050503d8060008114610b53576040519150601f19603f3d011682016040523d82523d6000602084013e610b58565b606091505b5050905080610a215760405162461bcd60e51b8152600401610504906110be565b60009250505090565b6001600160a01b03821660009081526002602090815260408083208690558583526003909152902060080154610100900460ff1615610c0d5760405162461bcd60e51b815260206004820152602160248201527f546869732062696420616c7265616479206861732061206368616c6c656e67656044820152603960f91b6064820152608401610504565b600083815260036020819052604090912001548114610c825760405162461bcd60e51b815260206004820152602b60248201527f4368616c6c656e676520616d6f756e7420646f6573206e6f74206d617463682060448201526a3134b21030b6b7bab73a1760a91b6064820152608401610504565b6000928352600360205260409092206002810180546001600160a01b039093166001600160a01b0319909316929092179091556004810191909155600801805461ff001916610100179055565b6003602081905260009182526040909120805460018201546002830154938301546004840154600585015460068601805495976001600160a01b039586169795169593949293919291610d2190611269565b80601f0160208091040260200160405190810160405280929190818152602001828054610d4d90611269565b8015610d9a5780601f10610d6f57610100808354040283529160200191610d9a565b820191906000526020600020905b815481529060010190602001808311610d7d57829003601f168201915b50505050600783015460089093015491929160ff80821692506101008204811691620100009004168b565b828054610dd190611269565b90600052602060002090601f016020900481019282610df35760008555610e39565b82601f10610e0c57805160ff1916838001178555610e39565b82800160010185558215610e39579182015b82811115610e39578251825591602001919060010190610e1e565b50610e45929150610e49565b5090565b5b80821115610e455760008155600101610e4a565b8035610e69816112eb565b919050565b80358015158114610e6957600080fd5b600082601f830112610e8e578081fd5b813567ffffffffffffffff80821115610ea957610ea96112d5565b604051601f8301601f19908116603f01168101908282118183101715610ed157610ed16112d5565b81604052838152866020858801011115610ee9578485fd5b8360208701602083013792830160200193909352509392505050565b600060208284031215610f16578081fd5b8135610f21816112eb565b9392505050565b600060208284031215610f39578081fd5b813567ffffffffffffffff80821115610f50578283fd5b908301906101608286031215610f64578283fd5b610f6c611227565b82358152610f7c60208401610e5e565b6020820152610f8d60408401610e5e565b6040820152606083013560608201526080830135608082015260a083013560a082015260c083013582811115610fc1578485fd5b610fcd87828601610e7e565b60c08301525060e083013560e08201526101009150610fed828401610e6e565b828201526101209150611001828401610e6e565b828201526101409150611015828401610e6e565b91810191909152949350505050565b600060208284031215611035578081fd5b5035919050565b600080600060608486031215611050578182fd5b833592506020840135611062816112eb565b929592945050506040919091013590565b60008151808452815b818110156110985760208185018101518683018201520161107c565b818111156110a95782602083870101525b50601f01601f19169290920160200192915050565b6020808252601490820152732330b4b632b2103a379039b2b7321022ba3432b960611b604082015260600190565b60208152815160208201526000602083015161111360408401826001600160a01b03169052565b5060408301516001600160a01b03811660608401525060608301516080830152608083015160a083015260a083015160c083015260c08301516101608060e0850152611163610180850183611073565b60e0860151610100868101919091528601519092506101206111888187018315159052565b860151905061014061119d8682018315159052565b90950151151593019290925250919050565b8b81526001600160a01b038b811660208301528a166040820152606081018990526080810188905260a0810187905261016060c082018190526000906111f783820189611073565b60e08401979097525050921515610100840152901515610120830152151561014090910152979650505050505050565b604051610160810167ffffffffffffffff8111828210171561124b5761124b6112d5565b60405290565b60008219821115611264576112646112bf565b500190565b600181811c9082168061127d57607f821691505b6020821081141561129e57634e487b7160e01b600052602260045260246000fd5b50919050565b60006000198214156112b8576112b86112bf565b5060010190565b634e487b7160e01b600052601160045260246000fd5b634e487b7160e01b600052604160045260246000fd5b6001600160a01b03811681146107af57600080fdfea26469706673582212203d433b4aca669975b6c3f6497923cf59d2255ff4e4b48950518ff8f99fcf5f1664736f6c63430008040033",
  "linkReferences": {},
  "deployedLinkReferences": {}
}