{
  "_format": "hh-sol-artifact-1",
  "contractName": "PredictionManager",
  "sourceName": "contracts/PredictionManager.sol",
  "abi": [
    {
      "stateMutability": "payable",
      "type": "fallback"
    },
    {
      "inputs": [
        {
          "internalType": "address",
          "name": "",
          "type": "address"
        }
      ],
      "name": "addressBook",
      "outputs": [
        {
          "internalType": "uint256",
          "name": "",
          "type": "uint256"
        }
      ],
      "stateMutability": "view",
      "type": "function"
    },
    {
      "inputs": [
        {
          "internalType": "uint256",
          "name": "index",
          "type": "uint256"
        }
      ],
      "name": "bidWin",
      "outputs": [],
      "stateMutability": "nonpayable",
      "type": "function"
    },
    {
      "inputs": [
        {
          "internalType": "address",
          "name": "addr",
          "type": "address"
        }
      ],
      "name": "getIndex",
      "outputs": [
        {
          "internalType": "uint256",
          "name": "index",
          "type": "uint256"
        }
      ],
      "stateMutability": "view",
      "type": "function"
    },
    {
      "inputs": [
        {
          "internalType": "uint256",
          "name": "index",
          "type": "uint256"
        }
      ],
      "name": "getPred",
      "outputs": [
        {
          "components": [
            {
              "internalType": "uint256",
              "name": "id",
              "type": "uint256"
            },
            {
              "internalType": "address payable",
              "name": "bidAddr",
              "type": "address"
            },
            {
              "internalType": "address payable",
              "name": "challengerAddr",
              "type": "address"
            },
            {
              "internalType": "uint256",
              "name": "bidAmount",
              "type": "uint256"
            },
            {
              "internalType": "uint256",
              "name": "challengerAmount",
              "type": "uint256"
            },
            {
              "internalType": "uint256",
              "name": "bidOdds",
              "type": "uint256"
            },
            {
              "internalType": "string",
              "name": "bidGameWinner",
              "type": "string"
            },
            {
              "internalType": "uint256",
              "name": "gameID",
              "type": "uint256"
            },
            {
              "internalType": "bool",
              "name": "bidWin",
              "type": "bool"
            },
            {
              "internalType": "bool",
              "name": "hasChallenger",
              "type": "bool"
            },
            {
              "internalType": "bool",
              "name": "isFinal",
              "type": "bool"
            }
          ],
          "internalType": "struct PredictionManager.Prediction",
          "name": "pred",
          "type": "tuple"
        }
      ],
      "stateMutability": "view",
      "type": "function"
    },
    {
      "inputs": [
        {
          "internalType": "address",
          "name": "addr",
          "type": "address"
        }
      ],
      "name": "hasActiveBid",
      "outputs": [
        {
          "internalType": "bool",
          "name": "",
          "type": "bool"
        }
      ],
      "stateMutability": "view",
      "type": "function"
    },
    {
      "inputs": [
        {
          "internalType": "uint256",
          "name": "index",
          "type": "uint256"
        }
      ],
      "name": "makeFinal",
      "outputs": [],
      "stateMutability": "nonpayable",
      "type": "function"
    },
    {
      "inputs": [],
      "name": "owner",
      "outputs": [
        {
          "internalType": "address",
          "name": "",
          "type": "address"
        }
      ],
      "stateMutability": "view",
      "type": "function"
    },
    {
      "inputs": [],
      "name": "predId",
      "outputs": [
        {
          "internalType": "uint256",
          "name": "",
          "type": "uint256"
        }
      ],
      "stateMutability": "view",
      "type": "function"
    },
    {
      "inputs": [
        {
          "internalType": "uint256",
          "name": "",
          "type": "uint256"
        }
      ],
      "name": "predictionList",
      "outputs": [
        {
          "internalType": "uint256",
          "name": "id",
          "type": "uint256"
        },
        {
          "internalType": "address payable",
          "name": "bidAddr",
          "type": "address"
        },
        {
          "internalType": "address payable",
          "name": "challengerAddr",
          "type": "address"
        },
        {
          "internalType": "uint256",
          "name": "bidAmount",
          "type": "uint256"
        },
        {
          "internalType": "uint256",
          "name": "challengerAmount",
          "type": "uint256"
        },
        {
          "internalType": "uint256",
          "name": "bidOdds",
          "type": "uint256"
        },
        {
          "internalType": "string",
          "name": "bidGameWinner",
          "type": "string"
        },
        {
          "internalType": "uint256",
          "name": "gameID",
          "type": "uint256"
        },
        {
          "internalType": "bool",
          "name": "bidWin",
          "type": "bool"
        },
        {
          "internalType": "bool",
          "name": "hasChallenger",
          "type": "bool"
        },
        {
          "internalType": "bool",
          "name": "isFinal",
          "type": "bool"
        }
      ],
      "stateMutability": "view",
      "type": "function"
    },
    {
      "inputs": [
        {
          "components": [
            {
              "internalType": "uint256",
              "name": "id",
              "type": "uint256"
            },
            {
              "internalType": "address payable",
              "name": "bidAddr",
              "type": "address"
            },
            {
              "internalType": "address payable",
              "name": "challengerAddr",
              "type": "address"
            },
            {
              "internalType": "uint256",
              "name": "bidAmount",
              "type": "uint256"
            },
            {
              "internalType": "uint256",
              "name": "challengerAmount",
              "type": "uint256"
            },
            {
              "internalType": "uint256",
              "name": "bidOdds",
              "type": "uint256"
            },
            {
              "internalType": "string",
              "name": "bidGameWinner",
              "type": "string"
            },
            {
              "internalType": "uint256",
              "name": "gameID",
              "type": "uint256"
            },
            {
              "internalType": "bool",
              "name": "bidWin",
              "type": "bool"
            },
            {
              "internalType": "bool",
              "name": "hasChallenger",
              "type": "bool"
            },
            {
              "internalType": "bool",
              "name": "isFinal",
              "type": "bool"
            }
          ],
          "internalType": "struct PredictionManager.Prediction",
          "name": "pred",
          "type": "tuple"
        }
      ],
      "name": "receiveNewBid",
      "outputs": [],
      "stateMutability": "payable",
      "type": "function"
    },
    {
      "inputs": [
        {
          "internalType": "address payable",
          "name": "addr",
          "type": "address"
        }
      ],
      "name": "returnResults",
      "outputs": [
        {
          "internalType": "bool",
          "name": "",
          "type": "bool"
        }
      ],
      "stateMutability": "nonpayable",
      "type": "function"
    },
    {
      "inputs": [
        {
          "internalType": "uint256",
          "name": "predIndex",
          "type": "uint256"
        },
        {
          "internalType": "address payable",
          "name": "challengerAddr",
          "type": "address"
        },
        {
          "internalType": "uint256",
          "name": "amount",
          "type": "uint256"
        }
      ],
      "name": "updateBidWithChallenger",
      "outputs": [],
      "stateMutability": "payable",
      "type": "function"
    },
    {
      "stateMutability": "payable",
      "type": "receive"
    }
  ],
  "bytecode": "0x6080604052600080546001600160a01b031990811633178255600191909155600280549091163017905534801561003557600080fd5b5061148e806100456000396000f3fe6080604052600436106100a55760003560e01c80638da5cb5b116100615780638da5cb5b146101d75780639590cf281461020f578063b31610db1461023c578063c80db4d714610272578063d19adc1c146102ab578063f862a476146102be57005b80630af8d5a7146100ae5780630fb878de146100e457806313617db9146101145780632f1e156a146101635780637fd5934b1461017657806380645265146101b357005b366100ac57005b005b3480156100ba57600080fd5b506100ce6100c936600461114c565b6102f5565b6040516100db9190611223565b60405180910390f35b3480156100f057600080fd5b506101046100ff36600461102d565b610488565b60405190151581526020016100db565b34801561012057600080fd5b5061010461012f36600461102d565b6001600160a01b03166000908152600360209081526040808320548352600490915290206008015462010000900460ff1690565b6100ac610171366004611050565b6108ac565b34801561018257600080fd5b506100ac61019136600461114c565b6000908152600460205260409020600801805462ff0000191662010000179055565b3480156101bf57600080fd5b506101c960015481565b6040519081526020016100db565b3480156101e357600080fd5b506000546101f7906001600160a01b031681565b6040516001600160a01b0390911681526020016100db565b34801561021b57600080fd5b506101c961022a36600461102d565b60036020526000908152604090205481565b34801561024857600080fd5b506101c961025736600461102d565b6001600160a01b031660009081526003602052604090205490565b34801561027e57600080fd5b506100ac61028d36600461114c565b6000908152600460205260409020600801805460ff19166001179055565b6100ac6102b9366004611164565b610bdc565b3480156102ca57600080fd5b506102de6102d936600461114c565b610d4b565b6040516100db9b9a999897969594939291906112e6565b604080516101608101825260008082526020820181905291810182905260608082018390526080820183905260a0820183905260c082015260e08101829052610100810182905261012081018290526101408101919091526000828152600460208181526040928390208351610160810185528154815260018201546001600160a01b039081169382019390935260028201549092169382019390935260038301546060820152908201546080820152600582015460a082015260068201805491929160c0840191906103c7906113a0565b80601f01602080910402602001604051908101604052809291908181526020018280546103f3906113a0565b80156104405780601f1061041557610100808354040283529160200191610440565b820191906000526020600020905b81548152906001019060200180831161042357829003601f168201915b50505091835250506007820154602082015260089091015460ff8082161515604084015261010082048116151560608401526201000090910416151560809091015292915050565b33600090815260036020818152604080842054845260048083528185208251610160810184528154815260018201546001600160a01b0390811695820195909552600282015490941692840192909252928101546060830152918201546080820152600582015460a08201526006820180548593859392909160c084019190610510906113a0565b80601f016020809104026020016040519081016040528092919081815260200182805461053c906113a0565b80156105895780601f1061055e57610100808354040283529160200191610589565b820191906000526020600020905b81548152906001019060200180831161056c57829003601f168201915b50505091835250506007820154602082015260089091015460ff808216151560408401526101008204811615156060840152620100009091041615156080909101526101408101519091506106595760405162461bcd60e51b8152602060048201526044602482018190527f43616e6e6f742072657475726e207061796f75747320666f722061206d617463908201527f6865642062696420756e74696c2074686520726573756c7473206172652066696064820152633730b61760e11b608482015260a4015b60405180910390fd5b33600090815260036020908152604080832054835260049091529020600801805462ff0000191690556101208101511580156106aa575080602001516001600160a01b0316826001600160a01b0316145b15610792576106de6040518060400160405280600e81526020016d4e6f206368616c6c656e6765722160901b815250610e40565b600081606001519050600082602001516001600160a01b0316826040515b60006040518083038185875af1925050503d8060008114610739576040519150601f19603f3d011682016040523d82523d6000602084013e61073e565b606091505b50509050806107865760405162461bcd60e51b81526020600482015260146024820152732330b4b632b2103a379039b2b7321022ba3432b960611b6044820152606401610650565b50600195945050505050565b816001600160a01b031681602001516001600160a01b03161480156107b957508061010001515b1561081b576107ea6040518060400160405280600b81526020016a42696464657220776f6e2160a81b815250610e40565b6000816080015182606001516108009190611388565b9050600082602001516001600160a01b0316826040516106fc565b816001600160a01b031681604001516001600160a01b03161480156108435750806101000151155b15610878576107ea6040518060400160405280600f81526020016e4368616c6c656e67657220776f6e2160881b815250610e40565b6108a260405180604001604052806009815260200168556e6361756768742160b81b815250610e40565b5060009392505050565b336000908152600360209081526040808320548352600490915290206008015462010000900460ff161515600114156109375760405162461bcd60e51b815260206004820152602760248201527f54686973206164647265737320616c72656164792068617320616e20616374696044820152663b32903134b21760c91b6064820152608401610650565b33600090815260036020526040902054610a7157600061010082018190526101208201819052610140820181905260018054808452825260046020818152604093849020855181558186015193810180546001600160a01b03199081166001600160a01b0396871617909155948601516002820180549096169416939093179093556060840151600383015560808401519082015560a0830151600582015560c0830151805184936109f0926006850192910190610eed565b5060e0820151600782015561010080830151600890920180546101208501516101409095015161ffff1990911693151561ff001916939093179315159091029290921762ff00001916620100009115159190910217905560018054336000908152600360205260408120829055909190610a69836113db565b919050555050565b3360009081526003602052604090205415801590610ab95750336000908152600360209081526040808320548352600490915290206008015462010000900460ff1615156001145b15610bd9576000610100820181905261012082018190526101408201819052600180548352338252600360208181526040808520548552600480835294819020865181558287015194810180546001600160a01b03199081166001600160a01b039788161790915591870151600282018054909316951694909417905560608501519183019190915560808401519282019290925560a0830151600582015560c083015180518493610b72926006850192910190610eed565b5060e0820151600782015561010080830151600890920180546101208501516101409095015161ffff1990911693151561ff001916939093179315159091029290921762ff00001916620100009115159190910217905560018054906000610a69836113db565b50565b610bfe6040518060600160405280602181526020016114386021913933610e83565b6001600160a01b03821660009081526003602090815260408083208690558583526004909152902060080154610100900460ff1615610c895760405162461bcd60e51b815260206004820152602160248201527f546869732062696420616c7265616479206861732061206368616c6c656e67656044820152603960f91b6064820152608401610650565b6000838152600460205260409020600301548114610cfd5760405162461bcd60e51b815260206004820152602b60248201527f4368616c6c656e676520616d6f756e7420646f6573206e6f74206d617463682060448201526a3134b21030b6b7bab73a1760a91b6064820152608401610650565b60009283526004602081905260409093206002810180546001600160a01b039094166001600160a01b03199094169390931790925591810191909155600801805461ff001916610100179055565b6004602081905260009182526040909120805460018201546002830154600384015494840154600585015460068601805495976001600160a01b0395861697949095169592939192610d9c906113a0565b80601f0160208091040260200160405190810160405280929190818152602001828054610dc8906113a0565b8015610e155780601f10610dea57610100808354040283529160200191610e15565b820191906000526020600020905b815481529060010190602001808311610df857829003601f168201915b50505050600783015460089093015491929160ff80821692506101008204811691620100009004168b565b610bd981604051602401610e5491906111e6565b60408051601f198184030181529190526020810180516001600160e01b031663104c13eb60e21b179052610ecc565b610ec88282604051602401610e999291906111f9565b60408051601f198184030181529190526020810180516001600160e01b031663319af33360e01b179052610ecc565b5050565b80516a636f6e736f6c652e6c6f67602083016000808483855afa5050505050565b828054610ef9906113a0565b90600052602060002090601f016020900481019282610f1b5760008555610f61565b82601f10610f3457805160ff1916838001178555610f61565b82800160010185558215610f61579182015b82811115610f61578251825591602001919060010190610f46565b50610f6d929150610f71565b5090565b5b80821115610f6d5760008155600101610f72565b8035610f9181611422565b919050565b80358015158114610f9157600080fd5b600082601f830112610fb6578081fd5b813567ffffffffffffffff80821115610fd157610fd161140c565b604051601f8301601f19908116603f01168101908282118183101715610ff957610ff961140c565b81604052838152866020858801011115611011578485fd5b8360208701602083013792830160200193909352509392505050565b60006020828403121561103e578081fd5b813561104981611422565b9392505050565b600060208284031215611061578081fd5b813567ffffffffffffffff80821115611078578283fd5b90830190610160828603121561108c578283fd5b61109461135e565b823581526110a460208401610f86565b60208201526110b560408401610f86565b6040820152606083013560608201526080830135608082015260a083013560a082015260c0830135828111156110e9578485fd5b6110f587828601610fa6565b60c08301525060e083013560e08201526101009150611115828401610f96565b828201526101209150611129828401610f96565b82820152610140915061113d828401610f96565b91810191909152949350505050565b60006020828403121561115d578081fd5b5035919050565b600080600060608486031215611178578182fd5b83359250602084013561118a81611422565b929592945050506040919091013590565b60008151808452815b818110156111c0576020818501810151868301820152016111a4565b818111156111d15782602083870101525b50601f01601f19169290920160200192915050565b602081526000611049602083018461119b565b60408152600061120c604083018561119b565b905060018060a01b03831660208301529392505050565b60208152815160208201526000602083015161124a60408401826001600160a01b03169052565b5060408301516001600160a01b03811660608401525060608301516080830152608083015160a083015260a083015160c083015260c08301516101608060e085015261129a61018085018361119b565b60e0860151610100868101919091528601519092506101206112bf8187018315159052565b86015190506101406112d48682018315159052565b90950151151593019290925250919050565b8b81526001600160a01b038b811660208301528a166040820152606081018990526080810188905260a0810187905261016060c0820181905260009061132e8382018961119b565b60e08401979097525050921515610100840152901515610120830152151561014090910152979650505050505050565b604051610160810167ffffffffffffffff811182821017156113825761138261140c565b60405290565b6000821982111561139b5761139b6113f6565b500190565b600181811c908216806113b457607f821691505b602082108114156113d557634e487b7160e01b600052602260045260246000fd5b50919050565b60006000198214156113ef576113ef6113f6565b5060010190565b634e487b7160e01b600052601160045260246000fd5b634e487b7160e01b600052604160045260246000fd5b6001600160a01b0381168114610bd957600080fdfe416464726573732073656e64696e6720696e20746865206368616c6c656e67653aa2646970667358221220e7aae54f70da5a3ea520184fc106ff07fa67692d924866aea7a679a8b39850e664736f6c63430008040033",
  "linkReferences": {},
  "deployedLinkReferences": {}
}