{
  "_format": "hh-sol-artifact-1",
  "contractName": "PredictionManager",
  "sourceName": "contracts/PredictionManager.sol",
  "abi": [
    {
      "stateMutability": "payable",
      "type": "fallback"
    },
    {
      "inputs": [
        {
          "internalType": "address",
          "name": "",
          "type": "address"
        }
      ],
      "name": "addressBook",
      "outputs": [
        {
          "internalType": "uint256",
          "name": "",
          "type": "uint256"
        }
      ],
      "stateMutability": "view",
      "type": "function"
    },
    {
      "inputs": [
        {
          "internalType": "uint256",
          "name": "index",
          "type": "uint256"
        }
      ],
      "name": "bidWin",
      "outputs": [],
      "stateMutability": "nonpayable",
      "type": "function"
    },
    {
      "inputs": [],
      "name": "game_addr",
      "outputs": [
        {
          "internalType": "address",
          "name": "",
          "type": "address"
        }
      ],
      "stateMutability": "view",
      "type": "function"
    },
    {
      "inputs": [
        {
          "internalType": "address",
          "name": "addr",
          "type": "address"
        }
      ],
      "name": "getGameContractAddress",
      "outputs": [],
      "stateMutability": "nonpayable",
      "type": "function"
    },
    {
      "inputs": [
        {
          "internalType": "address",
          "name": "addr",
          "type": "address"
        }
      ],
      "name": "getIndex",
      "outputs": [
        {
          "internalType": "uint256",
          "name": "index",
          "type": "uint256"
        }
      ],
      "stateMutability": "view",
      "type": "function"
    },
    {
      "inputs": [
        {
          "internalType": "uint256",
          "name": "index",
          "type": "uint256"
        }
      ],
      "name": "getPred",
      "outputs": [
        {
          "components": [
            {
              "internalType": "uint256",
              "name": "id",
              "type": "uint256"
            },
            {
              "internalType": "address payable",
              "name": "bidAddr",
              "type": "address"
            },
            {
              "internalType": "address payable",
              "name": "challengerAddr",
              "type": "address"
            },
            {
              "internalType": "uint256",
              "name": "bidAmount",
              "type": "uint256"
            },
            {
              "internalType": "uint256",
              "name": "challengerAmount",
              "type": "uint256"
            },
            {
              "internalType": "uint256",
              "name": "bidOdds",
              "type": "uint256"
            },
            {
              "internalType": "string",
              "name": "bidGameWinner",
              "type": "string"
            },
            {
              "internalType": "uint256",
              "name": "gameID",
              "type": "uint256"
            },
            {
              "internalType": "bool",
              "name": "bidWin",
              "type": "bool"
            },
            {
              "internalType": "bool",
              "name": "hasChallenger",
              "type": "bool"
            },
            {
              "internalType": "bool",
              "name": "isFinal",
              "type": "bool"
            }
          ],
          "internalType": "struct PredictionManager.Prediction",
          "name": "pred",
          "type": "tuple"
        }
      ],
      "stateMutability": "view",
      "type": "function"
    },
    {
      "inputs": [
        {
          "internalType": "address",
          "name": "addr",
          "type": "address"
        }
      ],
      "name": "hasActiveBid",
      "outputs": [
        {
          "internalType": "bool",
          "name": "",
          "type": "bool"
        }
      ],
      "stateMutability": "view",
      "type": "function"
    },
    {
      "inputs": [
        {
          "internalType": "uint256",
          "name": "index",
          "type": "uint256"
        }
      ],
      "name": "makeFinal",
      "outputs": [],
      "stateMutability": "nonpayable",
      "type": "function"
    },
    {
      "inputs": [],
      "name": "owner",
      "outputs": [
        {
          "internalType": "address",
          "name": "",
          "type": "address"
        }
      ],
      "stateMutability": "view",
      "type": "function"
    },
    {
      "inputs": [],
      "name": "predId",
      "outputs": [
        {
          "internalType": "uint256",
          "name": "",
          "type": "uint256"
        }
      ],
      "stateMutability": "view",
      "type": "function"
    },
    {
      "inputs": [
        {
          "internalType": "uint256",
          "name": "",
          "type": "uint256"
        }
      ],
      "name": "predictionList",
      "outputs": [
        {
          "internalType": "uint256",
          "name": "id",
          "type": "uint256"
        },
        {
          "internalType": "address payable",
          "name": "bidAddr",
          "type": "address"
        },
        {
          "internalType": "address payable",
          "name": "challengerAddr",
          "type": "address"
        },
        {
          "internalType": "uint256",
          "name": "bidAmount",
          "type": "uint256"
        },
        {
          "internalType": "uint256",
          "name": "challengerAmount",
          "type": "uint256"
        },
        {
          "internalType": "uint256",
          "name": "bidOdds",
          "type": "uint256"
        },
        {
          "internalType": "string",
          "name": "bidGameWinner",
          "type": "string"
        },
        {
          "internalType": "uint256",
          "name": "gameID",
          "type": "uint256"
        },
        {
          "internalType": "bool",
          "name": "bidWin",
          "type": "bool"
        },
        {
          "internalType": "bool",
          "name": "hasChallenger",
          "type": "bool"
        },
        {
          "internalType": "bool",
          "name": "isFinal",
          "type": "bool"
        }
      ],
      "stateMutability": "view",
      "type": "function"
    },
    {
      "inputs": [
        {
          "components": [
            {
              "internalType": "uint256",
              "name": "id",
              "type": "uint256"
            },
            {
              "internalType": "address payable",
              "name": "bidAddr",
              "type": "address"
            },
            {
              "internalType": "address payable",
              "name": "challengerAddr",
              "type": "address"
            },
            {
              "internalType": "uint256",
              "name": "bidAmount",
              "type": "uint256"
            },
            {
              "internalType": "uint256",
              "name": "challengerAmount",
              "type": "uint256"
            },
            {
              "internalType": "uint256",
              "name": "bidOdds",
              "type": "uint256"
            },
            {
              "internalType": "string",
              "name": "bidGameWinner",
              "type": "string"
            },
            {
              "internalType": "uint256",
              "name": "gameID",
              "type": "uint256"
            },
            {
              "internalType": "bool",
              "name": "bidWin",
              "type": "bool"
            },
            {
              "internalType": "bool",
              "name": "hasChallenger",
              "type": "bool"
            },
            {
              "internalType": "bool",
              "name": "isFinal",
              "type": "bool"
            }
          ],
          "internalType": "struct PredictionManager.Prediction",
          "name": "pred",
          "type": "tuple"
        }
      ],
      "name": "receiveNewBid",
      "outputs": [],
      "stateMutability": "payable",
      "type": "function"
    },
    {
      "inputs": [
        {
          "internalType": "address payable",
          "name": "addr",
          "type": "address"
        }
      ],
      "name": "returnResults",
      "outputs": [
        {
          "internalType": "bool",
          "name": "",
          "type": "bool"
        }
      ],
      "stateMutability": "nonpayable",
      "type": "function"
    },
    {
      "inputs": [
        {
          "internalType": "uint256",
          "name": "predIndex",
          "type": "uint256"
        },
        {
          "internalType": "address payable",
          "name": "challengerAddr",
          "type": "address"
        },
        {
          "internalType": "uint256",
          "name": "amount",
          "type": "uint256"
        }
      ],
      "name": "updateBidWithChallenger",
      "outputs": [],
      "stateMutability": "payable",
      "type": "function"
    },
    {
      "stateMutability": "payable",
      "type": "receive"
    }
  ],
  "bytecode": "0x6080604052600080546001600160a01b031990811633178255600191909155600280549091163017905534801561003557600080fd5b506115ff806100456000396000f3fe6080604052600436106100d55760003560e01c80638da5cb5b11610079578063c80db4d711610056578063c80db4d7146102c2578063c833f9fa146102fb578063d19adc1c1461031b578063f862a4761461032e57005b80638da5cb5b146102275780639590cf281461025f578063b31610db1461028c57005b80631bcd28bd116100b25780631bcd28bd146101935780632f1e156a146101b35780637fd5934b146101c6578063806452651461020357005b80630af8d5a7146100de5780630fb878de1461011457806313617db91461014457005b366100dc57005b005b3480156100ea57600080fd5b506100fe6100f93660046112bd565b610365565b60405161010b9190611394565b60405180910390f35b34801561012057600080fd5b5061013461012f36600461119e565b6104f8565b604051901515815260200161010b565b34801561015057600080fd5b5061013461015f36600461119e565b6001600160a01b03166000908152600460209081526040808320548352600590915290206008015462010000900460ff1690565b34801561019f57600080fd5b506100dc6101ae36600461119e565b61098e565b6100dc6101c13660046111c1565b6109dc565b3480156101d257600080fd5b506100dc6101e13660046112bd565b6000908152600560205260409020600801805462ff0000191662010000179055565b34801561020f57600080fd5b5061021960015481565b60405190815260200161010b565b34801561023357600080fd5b50600054610247906001600160a01b031681565b6040516001600160a01b03909116815260200161010b565b34801561026b57600080fd5b5061021961027a36600461119e565b60046020526000908152604090205481565b34801561029857600080fd5b506102196102a736600461119e565b6001600160a01b031660009081526004602052604090205490565b3480156102ce57600080fd5b506100dc6102dd3660046112bd565b6000908152600560205260409020600801805460ff19166001179055565b34801561030757600080fd5b50600354610247906001600160a01b031681565b6100dc6103293660046112d5565b610d09565b34801561033a57600080fd5b5061034e6103493660046112bd565b610e77565b60405161010b9b9a99989796959493929190611457565b604080516101608101825260008082526020820181905291810182905260608082018390526080820183905260a0820183905260c082015260e08101829052610100810182905261012081018290526101408101919091526000828152600560208181526040928390208351610160810185528154815260018201546001600160a01b039081169382019390935260028201549092169382019390935260038301546060820152600483015460808201529082015460a082015260068201805491929160c08401919061043790611511565b80601f016020809104026020016040519081016040528092919081815260200182805461046390611511565b80156104b05780601f10610485576101008083540402835291602001916104b0565b820191906000526020600020905b81548152906001019060200180831161049357829003601f168201915b50505091835250506007820154602082015260089091015460ff8082161515604084015261010082048116151560608401526201000090910416151560809091015292915050565b33600090815260046020818152604080842054845260058083528185208251610160810184528154815260018201546001600160a01b0390811695820195909552600282015490941692840192909252600382015460608401529281015460808301529182015460a08201526006820180548593859392909160c08401919061058090611511565b80601f01602080910402602001604051908101604052809291908181526020018280546105ac90611511565b80156105f95780601f106105ce576101008083540402835291602001916105f9565b820191906000526020600020905b8154815290600101906020018083116105dc57829003601f168201915b50505091835250506007820154602082015260089091015460ff808216151560408401526101008204811615156060840152620100009091041615156080909101526101408101519091506106c95760405162461bcd60e51b8152602060048201526044602482018190527f43616e6e6f742072657475726e207061796f75747320666f722061206d617463908201527f6865642062696420756e74696c2074686520726573756c7473206172652066696064820152633730b61760e11b608482015260a4015b60405180910390fd5b33600090815260046020908152604080832054835260059091529020600801805462ff00001916905561012081015115801561071a575080602001516001600160a01b0316826001600160a01b0316145b156107fb5761074e6040518060400160405280600e81526020016d4e6f206368616c6c656e6765722160901b815250610f6c565b606081015160408083015190516000916001600160a01b03169083908381818185875af1925050503d80600081146107a2576040519150601f19603f3d011682016040523d82523d6000602084013e6107a7565b606091505b50509050806107ef5760405162461bcd60e51b81526020600482015260146024820152732330b4b632b2103a379039b2b7321022ba3432b960611b60448201526064016106c0565b50600195945050505050565b816001600160a01b031681602001516001600160a01b031614801561082257508061010001515b156108a2576108536040518060400160405280600b81526020016a42696464657220776f6e2160a81b815250610f6c565b60008160800151826060015161086991906114f9565b6040519091506001600160a01b0384169082156108fc029083906000818181858888f193505050501580156107ef573d6000803e3d6000fd5b816001600160a01b031681604001516001600160a01b03161480156108ca5750806101000151155b1561095a576108ff6040518060400160405280600f81526020016e4368616c6c656e67657220776f6e2160881b815250610f6c565b60008160800151826060015161091591906114f9565b905061092081610faf565b6040516001600160a01b038416906000906806f05b59d3b20000009082818181858883f193505050501580156107ef573d6000803e3d6000fd5b61098460405180604001604052806009815260200168556e6361756768742160b81b815250610f6c565b5060009392505050565b600380546001600160a01b0319166001600160a01b03831690811790915560408051808201909152600d81526c23b0b6b29030b2323932b9b99d60991b60208201526109d991610ff4565b50565b336000908152600460209081526040808320548352600590915290206008015462010000900460ff16151560011415610a675760405162461bcd60e51b815260206004820152602760248201527f54686973206164647265737320616c72656164792068617320616e20616374696044820152663b32903134b21760c91b60648201526084016106c0565b33600090815260046020526040902054610ba157600061010082018190526101208201819052610140820181905260018054808452825260056020818152604093849020855181558186015193810180546001600160a01b03199081166001600160a01b039687161790915594860151600282018054909616941693909317909355606084015160038301556080840151600483015560a08401519082015560c083015180518493610b2092600685019291019061105e565b5060e0820151600782015561010080830151600890920180546101208501516101409095015161ffff1990911693151561ff001916939093179315159091029290921762ff00001916620100009115159190910217905560018054336000908152600460205260408120829055909190610b998361154c565b919050555050565b3360009081526004602052604090205415801590610be95750336000908152600460209081526040808320548352600590915290206008015462010000900460ff1615156001145b156109d9576000610100820181905261012082018190526101408201819052600180548352338252600460208181526040808520548552600580835294819020865181558287015194810180546001600160a01b03199081166001600160a01b03978816179091559187015160028201805490931695169490941790556060850151600384015560808501519183019190915560a08401519282019290925560c083015180518493610ca292600685019291019061105e565b5060e0820151600782015561010080830151600890920180546101208501516101409095015161ffff1990911693151561ff001916939093179315159091029290921762ff00001916620100009115159190910217905560018054906000610b998361154c565b610d2b6040518060600160405280602181526020016115a96021913933610ff4565b6001600160a01b03821660009081526004602090815260408083208690558583526005909152902060080154610100900460ff1615610db65760405162461bcd60e51b815260206004820152602160248201527f546869732062696420616c7265616479206861732061206368616c6c656e67656044820152603960f91b60648201526084016106c0565b6000838152600560205260409020600301548114610e2a5760405162461bcd60e51b815260206004820152602b60248201527f4368616c6c656e676520616d6f756e7420646f6573206e6f74206d617463682060448201526a3134b21030b6b7bab73a1760a91b60648201526084016106c0565b6000928352600560205260409092206002810180546001600160a01b039093166001600160a01b0319909316929092179091556004810191909155600801805461ff001916610100179055565b6005602081905260009182526040909120805460018201546002830154600384015460048501549585015460068601805495976001600160a01b0395861697959094169592949192610ec890611511565b80601f0160208091040260200160405190810160405280929190818152602001828054610ef490611511565b8015610f415780601f10610f1657610100808354040283529160200191610f41565b820191906000526020600020905b815481529060010190602001808311610f2457829003601f168201915b50505050600783015460089093015491929160ff80821692506101008204811691620100009004168b565b6109d981604051602401610f809190611357565b60408051601f198184030181529190526020810180516001600160e01b031663104c13eb60e21b17905261103d565b6109d981604051602401610fc591815260200190565b60408051601f198184030181529190526020810180516001600160e01b031663f5b1bba960e01b17905261103d565b611039828260405160240161100a92919061136a565b60408051601f198184030181529190526020810180516001600160e01b031663319af33360e01b17905261103d565b5050565b80516a636f6e736f6c652e6c6f67602083016000808483855afa5050505050565b82805461106a90611511565b90600052602060002090601f01602090048101928261108c57600085556110d2565b82601f106110a557805160ff19168380011785556110d2565b828001600101855582156110d2579182015b828111156110d25782518255916020019190600101906110b7565b506110de9291506110e2565b5090565b5b808211156110de57600081556001016110e3565b803561110281611593565b919050565b8035801515811461110257600080fd5b600082601f830112611127578081fd5b813567ffffffffffffffff808211156111425761114261157d565b604051601f8301601f19908116603f0116810190828211818310171561116a5761116a61157d565b81604052838152866020858801011115611182578485fd5b8360208701602083013792830160200193909352509392505050565b6000602082840312156111af578081fd5b81356111ba81611593565b9392505050565b6000602082840312156111d2578081fd5b813567ffffffffffffffff808211156111e9578283fd5b9083019061016082860312156111fd578283fd5b6112056114cf565b82358152611215602084016110f7565b6020820152611226604084016110f7565b6040820152606083013560608201526080830135608082015260a083013560a082015260c08301358281111561125a578485fd5b61126687828601611117565b60c08301525060e083013560e08201526101009150611286828401611107565b82820152610120915061129a828401611107565b8282015261014091506112ae828401611107565b91810191909152949350505050565b6000602082840312156112ce578081fd5b5035919050565b6000806000606084860312156112e9578182fd5b8335925060208401356112fb81611593565b929592945050506040919091013590565b60008151808452815b8181101561133157602081850181015186830182015201611315565b818111156113425782602083870101525b50601f01601f19169290920160200192915050565b6020815260006111ba602083018461130c565b60408152600061137d604083018561130c565b905060018060a01b03831660208301529392505050565b6020815281516020820152600060208301516113bb60408401826001600160a01b03169052565b5060408301516001600160a01b03811660608401525060608301516080830152608083015160a083015260a083015160c083015260c08301516101608060e085015261140b61018085018361130c565b60e0860151610100868101919091528601519092506101206114308187018315159052565b86015190506101406114458682018315159052565b90950151151593019290925250919050565b8b81526001600160a01b038b811660208301528a166040820152606081018990526080810188905260a0810187905261016060c0820181905260009061149f8382018961130c565b60e08401979097525050921515610100840152901515610120830152151561014090910152979650505050505050565b604051610160810167ffffffffffffffff811182821017156114f3576114f361157d565b60405290565b6000821982111561150c5761150c611567565b500190565b600181811c9082168061152557607f821691505b6020821081141561154657634e487b7160e01b600052602260045260246000fd5b50919050565b600060001982141561156057611560611567565b5060010190565b634e487b7160e01b600052601160045260246000fd5b634e487b7160e01b600052604160045260246000fd5b6001600160a01b03811681146109d957600080fdfe416464726573732073656e64696e6720696e20746865206368616c6c656e67653aa2646970667358221220cdb57045a7f03ff2ab0224922786cc19bb0bef50bd8d241f89a3d0f1fd3c706064736f6c63430008040033",
  "linkReferences": {},
  "deployedLinkReferences": {}
}