{
  "_format": "hh-sol-artifact-1",
  "contractName": "PredictionManager",
  "sourceName": "contracts/PredictionManager.sol",
  "abi": [
    {
      "stateMutability": "payable",
      "type": "fallback"
    },
    {
      "inputs": [
        {
          "internalType": "address",
          "name": "entityAddress",
          "type": "address"
        }
      ],
      "name": "bidWin",
      "outputs": [],
      "stateMutability": "nonpayable",
      "type": "function"
    },
    {
      "inputs": [
        {
          "internalType": "address",
          "name": "entityAddress",
          "type": "address"
        }
      ],
      "name": "deleteBid",
      "outputs": [
        {
          "internalType": "bool",
          "name": "success",
          "type": "bool"
        }
      ],
      "stateMutability": "nonpayable",
      "type": "function"
    },
    {
      "inputs": [],
      "name": "game_addr",
      "outputs": [
        {
          "internalType": "address",
          "name": "",
          "type": "address"
        }
      ],
      "stateMutability": "view",
      "type": "function"
    },
    {
      "inputs": [
        {
          "internalType": "address",
          "name": "addr",
          "type": "address"
        }
      ],
      "name": "getGameContractAddress",
      "outputs": [],
      "stateMutability": "nonpayable",
      "type": "function"
    },
    {
      "inputs": [
        {
          "internalType": "address",
          "name": "entityAddress",
          "type": "address"
        }
      ],
      "name": "getMultiplier",
      "outputs": [
        {
          "internalType": "uint256",
          "name": "response",
          "type": "uint256"
        }
      ],
      "stateMutability": "view",
      "type": "function"
    },
    {
      "inputs": [],
      "name": "getPredCount",
      "outputs": [
        {
          "internalType": "uint256",
          "name": "predsCount",
          "type": "uint256"
        }
      ],
      "stateMutability": "view",
      "type": "function"
    },
    {
      "inputs": [
        {
          "internalType": "address",
          "name": "entityAddress",
          "type": "address"
        }
      ],
      "name": "hasBid",
      "outputs": [
        {
          "internalType": "bool",
          "name": "",
          "type": "bool"
        }
      ],
      "stateMutability": "view",
      "type": "function"
    },
    {
      "inputs": [
        {
          "internalType": "address",
          "name": "entityAddress",
          "type": "address"
        }
      ],
      "name": "makeFinal",
      "outputs": [],
      "stateMutability": "nonpayable",
      "type": "function"
    },
    {
      "inputs": [
        {
          "components": [
            {
              "internalType": "address payable",
              "name": "bidAddr",
              "type": "address"
            },
            {
              "internalType": "address payable",
              "name": "challengerAddr",
              "type": "address"
            },
            {
              "internalType": "uint256",
              "name": "bidAmount",
              "type": "uint256"
            },
            {
              "internalType": "uint256",
              "name": "challengerAmount",
              "type": "uint256"
            },
            {
              "internalType": "uint256",
              "name": "bidOdds",
              "type": "uint256"
            },
            {
              "internalType": "string",
              "name": "gameWinner",
              "type": "string"
            },
            {
              "internalType": "uint256",
              "name": "gameID",
              "type": "uint256"
            },
            {
              "internalType": "bool",
              "name": "bidWin",
              "type": "bool"
            },
            {
              "internalType": "bool",
              "name": "hasChallenger",
              "type": "bool"
            },
            {
              "internalType": "bool",
              "name": "gameIsFinal",
              "type": "bool"
            },
            {
              "internalType": "uint256",
              "name": "listPointer",
              "type": "uint256"
            },
            {
              "internalType": "bool",
              "name": "isStale",
              "type": "bool"
            }
          ],
          "internalType": "struct PredictionManager.Prediction",
          "name": "pred",
          "type": "tuple"
        }
      ],
      "name": "newBid",
      "outputs": [
        {
          "internalType": "bool",
          "name": "success",
          "type": "bool"
        }
      ],
      "stateMutability": "payable",
      "type": "function"
    },
    {
      "inputs": [],
      "name": "owner",
      "outputs": [
        {
          "internalType": "address",
          "name": "",
          "type": "address"
        }
      ],
      "stateMutability": "view",
      "type": "function"
    },
    {
      "inputs": [],
      "name": "predId",
      "outputs": [
        {
          "internalType": "uint256",
          "name": "",
          "type": "uint256"
        }
      ],
      "stateMutability": "view",
      "type": "function"
    },
    {
      "inputs": [
        {
          "internalType": "uint256",
          "name": "",
          "type": "uint256"
        }
      ],
      "name": "predList",
      "outputs": [
        {
          "internalType": "address",
          "name": "",
          "type": "address"
        }
      ],
      "stateMutability": "view",
      "type": "function"
    },
    {
      "inputs": [
        {
          "internalType": "address",
          "name": "",
          "type": "address"
        }
      ],
      "name": "predictions",
      "outputs": [
        {
          "internalType": "address payable",
          "name": "bidAddr",
          "type": "address"
        },
        {
          "internalType": "address payable",
          "name": "challengerAddr",
          "type": "address"
        },
        {
          "internalType": "uint256",
          "name": "bidAmount",
          "type": "uint256"
        },
        {
          "internalType": "uint256",
          "name": "challengerAmount",
          "type": "uint256"
        },
        {
          "internalType": "uint256",
          "name": "bidOdds",
          "type": "uint256"
        },
        {
          "internalType": "string",
          "name": "gameWinner",
          "type": "string"
        },
        {
          "internalType": "uint256",
          "name": "gameID",
          "type": "uint256"
        },
        {
          "internalType": "bool",
          "name": "bidWin",
          "type": "bool"
        },
        {
          "internalType": "bool",
          "name": "hasChallenger",
          "type": "bool"
        },
        {
          "internalType": "bool",
          "name": "gameIsFinal",
          "type": "bool"
        },
        {
          "internalType": "uint256",
          "name": "listPointer",
          "type": "uint256"
        },
        {
          "internalType": "bool",
          "name": "isStale",
          "type": "bool"
        }
      ],
      "stateMutability": "view",
      "type": "function"
    },
    {
      "inputs": [
        {
          "internalType": "address payable",
          "name": "sourceAddr",
          "type": "address"
        }
      ],
      "name": "returnResults",
      "outputs": [
        {
          "internalType": "bool",
          "name": "success",
          "type": "bool"
        }
      ],
      "stateMutability": "nonpayable",
      "type": "function"
    },
    {
      "inputs": [
        {
          "internalType": "address",
          "name": "bidAddress",
          "type": "address"
        },
        {
          "internalType": "address payable",
          "name": "challengerAddr",
          "type": "address"
        }
      ],
      "name": "updateBidWithChallenger",
      "outputs": [],
      "stateMutability": "payable",
      "type": "function"
    },
    {
      "stateMutability": "payable",
      "type": "receive"
    }
  ],
  "bytecode": "0x6080604052600080546001600160a01b031990811633178255600191909155600280549091163017905534801561003557600080fd5b50611710806100456000396000f3fe6080604052600436106100e05760003560e01c8063a9d637e111610084578063eac4fdf011610056578063eac4fdf0146102cf578063f02d0875146102e2578063f51c004e14610302578063f8bd97d71461031557005b8063a9d637e11461025a578063c833f9fa1461027a578063d1aa657a1461029a578063d2639dbf146102af57005b80631bcd28bd116100bd5780631bcd28bd146101a657806335fa61fa146101c657806380645265146101fe5780638da5cb5b1461022257005b80630fb878de146100e9578063180698f11461011e578063181fb7041461016057005b366100e757005b005b3480156100f557600080fd5b506101096101043660046112f6565b610335565b60405190151581526020015b60405180910390f35b34801561012a57600080fd5b506100e76101393660046112f6565b6001600160a01b03166000908152600460205260409020600701805460ff19166001179055565b34801561016c57600080fd5b506100e761017b3660046112f6565b6001600160a01b03166000908152600460205260409020600701805462ff0000191662010000179055565b3480156101b257600080fd5b506100e76101c13660046112f6565b6107f8565b3480156101d257600080fd5b506101e66101e13660046112f6565b610846565b6040516101159c9b9a999897969594939291906114c4565b34801561020a57600080fd5b5061021460015481565b604051908152602001610115565b34801561022e57600080fd5b50600054610242906001600160a01b031681565b6040516001600160a01b039091168152602001610115565b34801561026657600080fd5b506102146102753660046112f6565b610945565b34801561028657600080fd5b50600354610242906001600160a01b031681565b3480156102a657600080fd5b50600554610214565b3480156102bb57600080fd5b506101096102ca3660046112f6565b610ae1565b6101096102dd366004611351565b610b4e565b3480156102ee57600080fd5b506102426102fd366004611461565b610d22565b6100e7610310366004611319565b610d4c565b34801561032157600080fd5b506101096103303660046112f6565b610f94565b6001600160a01b038082166000908152600460208181526040808420815161018081018352815487168152600182015490961692860192909252600282015490850152600381015460608501529081015460808401526005810180549293849390929160a08401916103a690611643565b80601f01602080910402602001604051908101604052809291908181526020018280546103d290611643565b801561041f5780601f106103f45761010080835404028352916020019161041f565b820191906000526020600020905b81548152906001019060200180831161040257829003601f168201915b505050918352505060068201546020820152600782015460ff80821615156040840152610100820481161515606084015262010000909104811615156080830152600883015460a0830152600990920154909116151560c0909101526101208101519091506104fd576040805162461bcd60e51b81526020600482015260248101919091527f43616e6e6f742072657475726e207061796f75747320666f722061206d61746360448201527f6865642062696420756e74696c207468652067616d652069732066696e616c2e60648201526084015b60405180910390fd5b80610100015115801561051c575080516001600160a01b038481169116145b1561060e576105506040518060400160405280600e81526020016d4e6f206368616c6c656e6765722160901b8152506110c8565b600081604001519050600082600001516001600160a01b03168260405160006040518083038185875af1925050503d80600081146105aa576040519150601f19603f3d011682016040523d82523d6000602084013e6105af565b606091505b50509050806105f75760405162461bcd60e51b81526020600482015260146024820152732330b4b632b2103a379039b2b7321022ba3432b960611b60448201526064016104f4565b825161060290610f94565b50600195945050505050565b826001600160a01b031681600001516001600160a01b031614801561063457508060e001515b156106fc576106656040518060400160405280600b81526020016a42696464657220776f6e2160a81b8152506110c8565b60008160600151826040015161067b91906115d5565b6040519091506001600160a01b0385169082156108fc029083906000818181858888f193505050501580156106b4573d6000803e3d6000fd5b506106e66040518060400160405280601081526020016f11195b195d1a5b99c81d1a1948189a5960821b8152506110c8565b81516106f190610f94565b506001949350505050565b826001600160a01b031681602001516001600160a01b031614801561072357508060e00151155b156107b3576107586040518060400160405280600f81526020016e4368616c6c656e67657220776f6e2160881b8152506110c8565b60008160600151826040015161076e91906115d5565b6040519091506001600160a01b0385169082156108fc029083906000818181858888f193505050501580156107a7573d6000803e3d6000fd5b5081516106f190610f94565b6107dd60405180604001604052806009815260200168556e6361756768742160b81b8152506110c8565b80516107e890610f94565b5060009392505050565b50919050565b600380546001600160a01b0319166001600160a01b03831690811790915560408051808201909152600d81526c23b0b6b29030b2323932b9b99d60991b60208201526108439161110b565b50565b60046020819052600091825260409091208054600182015460028301546003840154948401546005850180546001600160a01b03958616979490951695929491929161089190611643565b80601f01602080910402602001604051908101604052809291908181526020018280546108bd90611643565b801561090a5780601f106108df5761010080835404028352916020019161090a565b820191906000526020600020905b8154815290600101906020018083116108ed57829003601f168201915b5050506006840154600785015460088601546009909601549495919460ff80831695506101008304811694506201000090920482169291168c565b6001600160a01b038082166000908152600460208181526040808420815161018081018352815487168152600182015490961692860192909252600282015490850152600381015460608501529081015460808401526005810180549293849390929160a08401916109b690611643565b80601f01602080910402602001604051908101604052809291908181526020018280546109e290611643565b8015610a2f5780601f10610a0457610100808354040283529160200191610a2f565b820191906000526020600020905b815481529060010190602001808311610a1257829003601f168201915b505050918352505060068201546020820152600782015460ff8082161515604084015261010082048116151560608401526201000090910481161515608080840191909152600884015460a084015260099093015416151560c090910152810151909150600090610aa181606461162c565b610aad9061271061160d565b610ab791906115ed565b90506000612710828460400151610ace919061160d565b610ad891906115ed565b95945050505050565b600554600090610af357506000919050565b6001600160a01b038216600081815260046020526040902060080154600580549091908110610b3257634e487b7160e01b600052603260045260246000fd5b6000918252602090912001546001600160a01b03161492915050565b6000610b5933610ae1565b15610ba65760405162461bcd60e51b815260206004820152601e60248201527f54686973206164647265737320616c726561647920686173206120626964000060448201526064016104f4565b600580546001818101835560008381527f036b6384b5eca791c62761152d0c79bb0604c104a5fb6f4eb0703f3154bb3db090920180546001600160a01b0319163390811790915585526101008501829052610120850182905260e085018290526101608501919091529054610c1b919061162c565b61014083015233600090815260046020818152604092839020855181546001600160a01b039182166001600160a01b0319918216178355838801516001840180549190931691161790559285015160028401556060850151600384015560808501519183019190915560a08401518051859392610c9f9260058501929101906111b6565b5060c0820151600682015560e08201516007820180546101008086015161012087015161ffff1990931694151561ff00191694909417931515029290921762ff0000191662010000921515929092029190911790556101408201516008820155610160909101516009909101805460ff1916911515919091179055506001919050565b60058181548110610d3257600080fd5b6000918252602090912001546001600160a01b0316905081565b610d6e6040518060600160405280602181526020016116ba602191393361110b565b6001600160a01b0382811660009081526004602052604090206001810180546001600160a01b0319169284169290921790915560070154610100900460ff1615610e045760405162461bcd60e51b815260206004820152602160248201527f546869732062696420616c7265616479206861732061206368616c6c656e67656044820152603960f91b60648201526084016104f4565b6000610e0f83610945565b6001600160a01b038085166000818152600460208181526040808420600181018054978b166001600160a01b0319909816979097179096556003860187905560078601805461ff0019166101001790558051808201909152600b81526a2134b21030b6b7bab73a1d60a91b81830152939092529052600290910154919250610e9691611154565b610ef26040518060400160405280601281526020017121b430b63632b733b2b91030b6b7bab73a1d60711b81525060046000866001600160a01b03166001600160a01b0316815260200190815260200160002060030154611154565b610f8f604051806040016040528060158152602001742134b217b1b430b63632b733b2b9103930ba34b79d60591b81525060046000866001600160a01b03166001600160a01b03168152602001908152602001600020600401546064610f58919061162c565b6001600160a01b03861660009081526004602081905260409091200154610f8090606461160d565b610f8a91906115ed565b611154565b505050565b6000610f9f82610ae1565b610fa857600080fd5b6001600160a01b03821660009081526004602052604081206008015460058054919291610fd79060019061162c565b81548110610ff557634e487b7160e01b600052603260045260246000fd5b600091825260209091200154600580546001600160a01b03909216925082918490811061103257634e487b7160e01b600052603260045260246000fd5b600091825260208083209190910180546001600160a01b0319166001600160a01b03948516179055918316815260049091526040902060088101839055600901805460ff19166001179055600580548061109c57634e487b7160e01b600052603160045260246000fd5b600082815260209020810160001990810180546001600160a01b03191690550190555060019392505050565b610843816040516024016110dc919061154c565b60408051601f198184030181529190526020810180516001600160e01b031663104c13eb60e21b179052611195565b611150828260405160240161112192919061155f565b60408051601f198184030181529190526020810180516001600160e01b031663319af33360e01b179052611195565b5050565b611150828260405160240161116a929190611589565b60408051601f198184030181529190526020810180516001600160e01b03166309710a9d60e41b1790525b80516a636f6e736f6c652e6c6f67602083016000808483855afa5050505050565b8280546111c290611643565b90600052602060002090601f0160209004810192826111e4576000855561122a565b82601f106111fd57805160ff191683800117855561122a565b8280016001018555821561122a579182015b8281111561122a57825182559160200191906001019061120f565b5061123692915061123a565b5090565b5b80821115611236576000815560010161123b565b803561125a816116a4565b919050565b8035801515811461125a57600080fd5b600082601f83011261127f578081fd5b813567ffffffffffffffff8082111561129a5761129a61168e565b604051601f8301601f19908116603f011681019082821181831017156112c2576112c261168e565b816040528381528660208588010111156112da578485fd5b8360208701602083013792830160200193909352509392505050565b600060208284031215611307578081fd5b8135611312816116a4565b9392505050565b6000806040838503121561132b578081fd5b8235611336816116a4565b91506020830135611346816116a4565b809150509250929050565b600060208284031215611362578081fd5b813567ffffffffffffffff80821115611379578283fd5b90830190610180828603121561138d578283fd5b6113956115ab565b61139e8361124f565b81526113ac6020840161124f565b602082015260408301356040820152606083013560608201526080830135608082015260a0830135828111156113e0578485fd5b6113ec8782860161126f565b60a08301525060c083013560c082015261140860e0840161125f565b60e0820152610100915061141d82840161125f565b82820152610120915061143182840161125f565b8282015261014091508183013582820152610160915061145282840161125f565b91810191909152949350505050565b600060208284031215611472578081fd5b5035919050565b60008151808452815b8181101561149e57602081850181015186830182015201611482565b818111156114af5782602083870101525b50601f01601f19169290920160200192915050565b600060018060a01b03808f168352808e166020840152508b60408301528a606083015289608083015261018060a083015261150361018083018a611479565b90508760c083015286151560e08301528515156101008301528415156101208301528361014083015261153b61016083018415159052565b9d9c50505050505050505050505050565b6020815260006113126020830184611479565b6040815260006115726040830185611479565b905060018060a01b03831660208301529392505050565b60408152600061159c6040830185611479565b90508260208301529392505050565b604051610180810167ffffffffffffffff811182821017156115cf576115cf61168e565b60405290565b600082198211156115e8576115e8611678565b500190565b60008261160857634e487b7160e01b81526012600452602481fd5b500490565b600081600019048311821515161561162757611627611678565b500290565b60008282101561163e5761163e611678565b500390565b600181811c9082168061165757607f821691505b602082108114156107f257634e487b7160e01b600052602260045260246000fd5b634e487b7160e01b600052601160045260246000fd5b634e487b7160e01b600052604160045260246000fd5b6001600160a01b038116811461084357600080fdfe416464726573732073656e64696e6720696e20746865206368616c6c656e67653aa264697066735822122022f771179b10ada692c730ff40519e034bc76e87251063314fcc69efe1fe3dab64736f6c63430008040033",
  "linkReferences": {},
  "deployedLinkReferences": {}
}