{
  "_format": "hh-sol-artifact-1",
  "contractName": "PredictionManager",
  "sourceName": "contracts/PredictionManager.sol",
  "abi": [
    {
      "stateMutability": "payable",
      "type": "fallback"
    },
    {
      "inputs": [
        {
          "internalType": "address",
          "name": "",
          "type": "address"
        }
      ],
      "name": "addressBook",
      "outputs": [
        {
          "internalType": "uint256",
          "name": "",
          "type": "uint256"
        }
      ],
      "stateMutability": "view",
      "type": "function"
    },
    {
      "inputs": [
        {
          "internalType": "uint256",
          "name": "index",
          "type": "uint256"
        }
      ],
      "name": "bidWin",
      "outputs": [],
      "stateMutability": "nonpayable",
      "type": "function"
    },
    {
      "inputs": [],
      "name": "game_addr",
      "outputs": [
        {
          "internalType": "address",
          "name": "",
          "type": "address"
        }
      ],
      "stateMutability": "view",
      "type": "function"
    },
    {
      "inputs": [
        {
          "internalType": "address",
          "name": "addr",
          "type": "address"
        }
      ],
      "name": "getGameContractAddress",
      "outputs": [],
      "stateMutability": "nonpayable",
      "type": "function"
    },
    {
      "inputs": [
        {
          "internalType": "address",
          "name": "addr",
          "type": "address"
        }
      ],
      "name": "getIndex",
      "outputs": [
        {
          "internalType": "uint256",
          "name": "index",
          "type": "uint256"
        }
      ],
      "stateMutability": "view",
      "type": "function"
    },
    {
      "inputs": [
        {
          "internalType": "uint256",
          "name": "index",
          "type": "uint256"
        }
      ],
      "name": "getPred",
      "outputs": [
        {
          "components": [
            {
              "internalType": "uint256",
              "name": "id",
              "type": "uint256"
            },
            {
              "internalType": "address payable",
              "name": "bidAddr",
              "type": "address"
            },
            {
              "internalType": "address payable",
              "name": "challengerAddr",
              "type": "address"
            },
            {
              "internalType": "uint256",
              "name": "bidAmount",
              "type": "uint256"
            },
            {
              "internalType": "uint256",
              "name": "challengerAmount",
              "type": "uint256"
            },
            {
              "internalType": "uint256",
              "name": "bidOdds",
              "type": "uint256"
            },
            {
              "internalType": "string",
              "name": "bidGameWinner",
              "type": "string"
            },
            {
              "internalType": "uint256",
              "name": "gameID",
              "type": "uint256"
            },
            {
              "internalType": "bool",
              "name": "bidWin",
              "type": "bool"
            },
            {
              "internalType": "bool",
              "name": "hasChallenger",
              "type": "bool"
            },
            {
              "internalType": "bool",
              "name": "isFinal",
              "type": "bool"
            }
          ],
          "internalType": "struct PredictionManager.Prediction",
          "name": "pred",
          "type": "tuple"
        }
      ],
      "stateMutability": "view",
      "type": "function"
    },
    {
      "inputs": [
        {
          "internalType": "address",
          "name": "addr",
          "type": "address"
        }
      ],
      "name": "hasActiveBid",
      "outputs": [
        {
          "internalType": "bool",
          "name": "",
          "type": "bool"
        }
      ],
      "stateMutability": "view",
      "type": "function"
    },
    {
      "inputs": [
        {
          "internalType": "uint256",
          "name": "index",
          "type": "uint256"
        }
      ],
      "name": "makeFinal",
      "outputs": [],
      "stateMutability": "nonpayable",
      "type": "function"
    },
    {
      "inputs": [],
      "name": "owner",
      "outputs": [
        {
          "internalType": "address",
          "name": "",
          "type": "address"
        }
      ],
      "stateMutability": "view",
      "type": "function"
    },
    {
      "inputs": [],
      "name": "predId",
      "outputs": [
        {
          "internalType": "uint256",
          "name": "",
          "type": "uint256"
        }
      ],
      "stateMutability": "view",
      "type": "function"
    },
    {
      "inputs": [
        {
          "internalType": "uint256",
          "name": "",
          "type": "uint256"
        }
      ],
      "name": "predictionList",
      "outputs": [
        {
          "internalType": "uint256",
          "name": "id",
          "type": "uint256"
        },
        {
          "internalType": "address payable",
          "name": "bidAddr",
          "type": "address"
        },
        {
          "internalType": "address payable",
          "name": "challengerAddr",
          "type": "address"
        },
        {
          "internalType": "uint256",
          "name": "bidAmount",
          "type": "uint256"
        },
        {
          "internalType": "uint256",
          "name": "challengerAmount",
          "type": "uint256"
        },
        {
          "internalType": "uint256",
          "name": "bidOdds",
          "type": "uint256"
        },
        {
          "internalType": "string",
          "name": "bidGameWinner",
          "type": "string"
        },
        {
          "internalType": "uint256",
          "name": "gameID",
          "type": "uint256"
        },
        {
          "internalType": "bool",
          "name": "bidWin",
          "type": "bool"
        },
        {
          "internalType": "bool",
          "name": "hasChallenger",
          "type": "bool"
        },
        {
          "internalType": "bool",
          "name": "isFinal",
          "type": "bool"
        }
      ],
      "stateMutability": "view",
      "type": "function"
    },
    {
      "inputs": [
        {
          "components": [
            {
              "internalType": "uint256",
              "name": "id",
              "type": "uint256"
            },
            {
              "internalType": "address payable",
              "name": "bidAddr",
              "type": "address"
            },
            {
              "internalType": "address payable",
              "name": "challengerAddr",
              "type": "address"
            },
            {
              "internalType": "uint256",
              "name": "bidAmount",
              "type": "uint256"
            },
            {
              "internalType": "uint256",
              "name": "challengerAmount",
              "type": "uint256"
            },
            {
              "internalType": "uint256",
              "name": "bidOdds",
              "type": "uint256"
            },
            {
              "internalType": "string",
              "name": "bidGameWinner",
              "type": "string"
            },
            {
              "internalType": "uint256",
              "name": "gameID",
              "type": "uint256"
            },
            {
              "internalType": "bool",
              "name": "bidWin",
              "type": "bool"
            },
            {
              "internalType": "bool",
              "name": "hasChallenger",
              "type": "bool"
            },
            {
              "internalType": "bool",
              "name": "isFinal",
              "type": "bool"
            }
          ],
          "internalType": "struct PredictionManager.Prediction",
          "name": "pred",
          "type": "tuple"
        }
      ],
      "name": "receiveNewBid",
      "outputs": [],
      "stateMutability": "payable",
      "type": "function"
    },
    {
      "inputs": [
        {
          "internalType": "address payable",
          "name": "addr",
          "type": "address"
        }
      ],
      "name": "returnResults",
      "outputs": [
        {
          "internalType": "bool",
          "name": "",
          "type": "bool"
        }
      ],
      "stateMutability": "nonpayable",
      "type": "function"
    },
    {
      "inputs": [
        {
          "internalType": "uint256",
          "name": "predIndex",
          "type": "uint256"
        },
        {
          "internalType": "address payable",
          "name": "challengerAddr",
          "type": "address"
        },
        {
          "internalType": "uint256",
          "name": "amount",
          "type": "uint256"
        }
      ],
      "name": "updateBidWithChallenger",
      "outputs": [],
      "stateMutability": "payable",
      "type": "function"
    },
    {
      "stateMutability": "payable",
      "type": "receive"
    }
  ],
  "bytecode": "0x6080604052600080546001600160a01b031990811633178255600191909155600280549091163017905534801561003557600080fd5b5061155f806100456000396000f3fe6080604052600436106100d55760003560e01c80638da5cb5b11610079578063c80db4d711610056578063c80db4d7146102c2578063c833f9fa146102fb578063d19adc1c1461031b578063f862a4761461032e57005b80638da5cb5b146102275780639590cf281461025f578063b31610db1461028c57005b80631bcd28bd116100b25780631bcd28bd146101935780632f1e156a146101b35780637fd5934b146101c6578063806452651461020357005b80630af8d5a7146100de5780630fb878de1461011457806313617db91461014457005b366100dc57005b005b3480156100ea57600080fd5b506100fe6100f936600461121d565b610365565b60405161010b91906112f4565b60405180910390f35b34801561012057600080fd5b5061013461012f3660046110fe565b6104f8565b604051901515815260200161010b565b34801561015057600080fd5b5061013461015f3660046110fe565b6001600160a01b03166000908152600460209081526040808320548352600590915290206008015462010000900460ff1690565b34801561019f57600080fd5b506100dc6101ae3660046110fe565b610933565b6100dc6101c1366004611121565b610981565b3480156101d257600080fd5b506100dc6101e136600461121d565b6000908152600560205260409020600801805462ff0000191662010000179055565b34801561020f57600080fd5b5061021960015481565b60405190815260200161010b565b34801561023357600080fd5b50600054610247906001600160a01b031681565b6040516001600160a01b03909116815260200161010b565b34801561026b57600080fd5b5061021961027a3660046110fe565b60046020526000908152604090205481565b34801561029857600080fd5b506102196102a73660046110fe565b6001600160a01b031660009081526004602052604090205490565b3480156102ce57600080fd5b506100dc6102dd36600461121d565b6000908152600560205260409020600801805460ff19166001179055565b34801561030757600080fd5b50600354610247906001600160a01b031681565b6100dc610329366004611235565b610cae565b34801561033a57600080fd5b5061034e61034936600461121d565b610e1c565b60405161010b9b9a999897969594939291906113b7565b604080516101608101825260008082526020820181905291810182905260608082018390526080820183905260a0820183905260c082015260e08101829052610100810182905261012081018290526101408101919091526000828152600560208181526040928390208351610160810185528154815260018201546001600160a01b039081169382019390935260028201549092169382019390935260038301546060820152600483015460808201529082015460a082015260068201805491929160c08401919061043790611471565b80601f016020809104026020016040519081016040528092919081815260200182805461046390611471565b80156104b05780601f10610485576101008083540402835291602001916104b0565b820191906000526020600020905b81548152906001019060200180831161049357829003601f168201915b50505091835250506007820154602082015260089091015460ff8082161515604084015261010082048116151560608401526201000090910416151560809091015292915050565b33600090815260046020818152604080842054845260058083528185208251610160810184528154815260018201546001600160a01b0390811695820195909552600282015490941692840192909252600382015460608401529281015460808301529182015460a08201526006820180548593859392909160c08401919061058090611471565b80601f01602080910402602001604051908101604052809291908181526020018280546105ac90611471565b80156105f95780601f106105ce576101008083540402835291602001916105f9565b820191906000526020600020905b8154815290600101906020018083116105dc57829003601f168201915b50505091835250506007820154602082015260089091015460ff808216151560408401526101008204811615156060840152620100009091041615156080909101526101408101519091506106c95760405162461bcd60e51b8152602060048201526044602482018190527f43616e6e6f742072657475726e207061796f75747320666f722061206d617463908201527f6865642062696420756e74696c2074686520726573756c7473206172652066696064820152633730b61760e11b608482015260a4015b60405180910390fd5b33600090815260046020908152604080832054835260059091529020600801805462ff00001916905561012081015115801561071a575080602001516001600160a01b0316826001600160a01b0316145b156107fb5761074e6040518060400160405280600e81526020016d4e6f206368616c6c656e6765722160901b815250610f11565b606081015160408083015190516000916001600160a01b03169083908381818185875af1925050503d80600081146107a2576040519150601f19603f3d011682016040523d82523d6000602084013e6107a7565b606091505b50509050806107ef5760405162461bcd60e51b81526020600482015260146024820152732330b4b632b2103a379039b2b7321022ba3432b960611b60448201526064016106c0565b50600195945050505050565b816001600160a01b031681602001516001600160a01b031614801561082257508061010001515b156108a2576108536040518060400160405280600b81526020016a42696464657220776f6e2160a81b815250610f11565b6000816080015182606001516108699190611459565b6040519091506001600160a01b0384169082156108fc029083906000818181858888f193505050501580156107ef573d6000803e3d6000fd5b816001600160a01b031681604001516001600160a01b03161480156108ca5750806101000151155b156108ff576108536040518060400160405280600f81526020016e4368616c6c656e67657220776f6e2160881b815250610f11565b61092960405180604001604052806009815260200168556e6361756768742160b81b815250610f11565b5060009392505050565b600380546001600160a01b0319166001600160a01b03831690811790915560408051808201909152600d81526c23b0b6b29030b2323932b9b99d60991b602082015261097e91610f54565b50565b336000908152600460209081526040808320548352600590915290206008015462010000900460ff16151560011415610a0c5760405162461bcd60e51b815260206004820152602760248201527f54686973206164647265737320616c72656164792068617320616e20616374696044820152663b32903134b21760c91b60648201526084016106c0565b33600090815260046020526040902054610b4657600061010082018190526101208201819052610140820181905260018054808452825260056020818152604093849020855181558186015193810180546001600160a01b03199081166001600160a01b039687161790915594860151600282018054909616941693909317909355606084015160038301556080840151600483015560a08401519082015560c083015180518493610ac5926006850192910190610fbe565b5060e0820151600782015561010080830151600890920180546101208501516101409095015161ffff1990911693151561ff001916939093179315159091029290921762ff00001916620100009115159190910217905560018054336000908152600460205260408120829055909190610b3e836114ac565b919050555050565b3360009081526004602052604090205415801590610b8e5750336000908152600460209081526040808320548352600590915290206008015462010000900460ff1615156001145b1561097e576000610100820181905261012082018190526101408201819052600180548352338252600460208181526040808520548552600580835294819020865181558287015194810180546001600160a01b03199081166001600160a01b03978816179091559187015160028201805490931695169490941790556060850151600384015560808501519183019190915560a08401519282019290925560c083015180518493610c47926006850192910190610fbe565b5060e0820151600782015561010080830151600890920180546101208501516101409095015161ffff1990911693151561ff001916939093179315159091029290921762ff00001916620100009115159190910217905560018054906000610b3e836114ac565b610cd06040518060600160405280602181526020016115096021913933610f54565b6001600160a01b03821660009081526004602090815260408083208690558583526005909152902060080154610100900460ff1615610d5b5760405162461bcd60e51b815260206004820152602160248201527f546869732062696420616c7265616479206861732061206368616c6c656e67656044820152603960f91b60648201526084016106c0565b6000838152600560205260409020600301548114610dcf5760405162461bcd60e51b815260206004820152602b60248201527f4368616c6c656e676520616d6f756e7420646f6573206e6f74206d617463682060448201526a3134b21030b6b7bab73a1760a91b60648201526084016106c0565b6000928352600560205260409092206002810180546001600160a01b039093166001600160a01b0319909316929092179091556004810191909155600801805461ff001916610100179055565b6005602081905260009182526040909120805460018201546002830154600384015460048501549585015460068601805495976001600160a01b0395861697959094169592949192610e6d90611471565b80601f0160208091040260200160405190810160405280929190818152602001828054610e9990611471565b8015610ee65780601f10610ebb57610100808354040283529160200191610ee6565b820191906000526020600020905b815481529060010190602001808311610ec957829003601f168201915b50505050600783015460089093015491929160ff80821692506101008204811691620100009004168b565b61097e81604051602401610f2591906112b7565b60408051601f198184030181529190526020810180516001600160e01b031663104c13eb60e21b179052610f9d565b610f998282604051602401610f6a9291906112ca565b60408051601f198184030181529190526020810180516001600160e01b031663319af33360e01b179052610f9d565b5050565b80516a636f6e736f6c652e6c6f67602083016000808483855afa5050505050565b828054610fca90611471565b90600052602060002090601f016020900481019282610fec5760008555611032565b82601f1061100557805160ff1916838001178555611032565b82800160010185558215611032579182015b82811115611032578251825591602001919060010190611017565b5061103e929150611042565b5090565b5b8082111561103e5760008155600101611043565b8035611062816114f3565b919050565b8035801515811461106257600080fd5b600082601f830112611087578081fd5b813567ffffffffffffffff808211156110a2576110a26114dd565b604051601f8301601f19908116603f011681019082821181831017156110ca576110ca6114dd565b816040528381528660208588010111156110e2578485fd5b8360208701602083013792830160200193909352509392505050565b60006020828403121561110f578081fd5b813561111a816114f3565b9392505050565b600060208284031215611132578081fd5b813567ffffffffffffffff80821115611149578283fd5b90830190610160828603121561115d578283fd5b61116561142f565b8235815261117560208401611057565b602082015261118660408401611057565b6040820152606083013560608201526080830135608082015260a083013560a082015260c0830135828111156111ba578485fd5b6111c687828601611077565b60c08301525060e083013560e082015261010091506111e6828401611067565b8282015261012091506111fa828401611067565b82820152610140915061120e828401611067565b91810191909152949350505050565b60006020828403121561122e578081fd5b5035919050565b600080600060608486031215611249578182fd5b83359250602084013561125b816114f3565b929592945050506040919091013590565b60008151808452815b8181101561129157602081850181015186830182015201611275565b818111156112a25782602083870101525b50601f01601f19169290920160200192915050565b60208152600061111a602083018461126c565b6040815260006112dd604083018561126c565b905060018060a01b03831660208301529392505050565b60208152815160208201526000602083015161131b60408401826001600160a01b03169052565b5060408301516001600160a01b03811660608401525060608301516080830152608083015160a083015260a083015160c083015260c08301516101608060e085015261136b61018085018361126c565b60e0860151610100868101919091528601519092506101206113908187018315159052565b86015190506101406113a58682018315159052565b90950151151593019290925250919050565b8b81526001600160a01b038b811660208301528a166040820152606081018990526080810188905260a0810187905261016060c082018190526000906113ff8382018961126c565b60e08401979097525050921515610100840152901515610120830152151561014090910152979650505050505050565b604051610160810167ffffffffffffffff81118282101715611453576114536114dd565b60405290565b6000821982111561146c5761146c6114c7565b500190565b600181811c9082168061148557607f821691505b602082108114156114a657634e487b7160e01b600052602260045260246000fd5b50919050565b60006000198214156114c0576114c06114c7565b5060010190565b634e487b7160e01b600052601160045260246000fd5b634e487b7160e01b600052604160045260246000fd5b6001600160a01b038116811461097e57600080fdfe416464726573732073656e64696e6720696e20746865206368616c6c656e67653aa2646970667358221220455d2ca0d17a251abe75ed9aaaf9c7d9cac8860fd8dfa0710d2dd7797a5ad21364736f6c63430008040033",
  "linkReferences": {},
  "deployedLinkReferences": {}
}