{
  "_format": "hh-sol-artifact-1",
  "contractName": "PredictionManager",
  "sourceName": "contracts/PredictionManager.sol",
  "abi": [
    {
      "stateMutability": "payable",
      "type": "fallback"
    },
    {
      "inputs": [
        {
          "internalType": "address",
          "name": "",
          "type": "address"
        }
      ],
      "name": "addressBook",
      "outputs": [
        {
          "internalType": "uint256",
          "name": "",
          "type": "uint256"
        }
      ],
      "stateMutability": "view",
      "type": "function"
    },
    {
      "inputs": [
        {
          "internalType": "uint256",
          "name": "index",
          "type": "uint256"
        }
      ],
      "name": "bidWin",
      "outputs": [],
      "stateMutability": "nonpayable",
      "type": "function"
    },
    {
      "inputs": [
        {
          "internalType": "address",
          "name": "bidder",
          "type": "address"
        },
        {
          "internalType": "address",
          "name": "challenger",
          "type": "address"
        }
      ],
      "name": "clearPrediction",
      "outputs": [],
      "stateMutability": "nonpayable",
      "type": "function"
    },
    {
      "inputs": [],
      "name": "game_addr",
      "outputs": [
        {
          "internalType": "address",
          "name": "",
          "type": "address"
        }
      ],
      "stateMutability": "view",
      "type": "function"
    },
    {
      "inputs": [
        {
          "internalType": "address",
          "name": "addr",
          "type": "address"
        }
      ],
      "name": "getGameContractAddress",
      "outputs": [],
      "stateMutability": "nonpayable",
      "type": "function"
    },
    {
      "inputs": [
        {
          "internalType": "address",
          "name": "addr",
          "type": "address"
        }
      ],
      "name": "getIndex",
      "outputs": [
        {
          "internalType": "uint256",
          "name": "index",
          "type": "uint256"
        }
      ],
      "stateMutability": "view",
      "type": "function"
    },
    {
      "inputs": [
        {
          "internalType": "uint256",
          "name": "predIndex",
          "type": "uint256"
        }
      ],
      "name": "getMultiplier",
      "outputs": [
        {
          "internalType": "uint256",
          "name": "response",
          "type": "uint256"
        }
      ],
      "stateMutability": "view",
      "type": "function"
    },
    {
      "inputs": [
        {
          "internalType": "uint256",
          "name": "index",
          "type": "uint256"
        }
      ],
      "name": "getPred",
      "outputs": [
        {
          "components": [
            {
              "internalType": "uint256",
              "name": "id",
              "type": "uint256"
            },
            {
              "internalType": "address payable",
              "name": "bidAddr",
              "type": "address"
            },
            {
              "internalType": "address payable",
              "name": "challengerAddr",
              "type": "address"
            },
            {
              "internalType": "uint256",
              "name": "bidAmount",
              "type": "uint256"
            },
            {
              "internalType": "uint256",
              "name": "challengerAmount",
              "type": "uint256"
            },
            {
              "internalType": "uint256",
              "name": "bidOdds",
              "type": "uint256"
            },
            {
              "internalType": "string",
              "name": "bidGameWinner",
              "type": "string"
            },
            {
              "internalType": "uint256",
              "name": "gameID",
              "type": "uint256"
            },
            {
              "internalType": "bool",
              "name": "bidWin",
              "type": "bool"
            },
            {
              "internalType": "bool",
              "name": "hasChallenger",
              "type": "bool"
            },
            {
              "internalType": "bool",
              "name": "isFinal",
              "type": "bool"
            }
          ],
          "internalType": "struct PredictionManager.Prediction",
          "name": "pred",
          "type": "tuple"
        }
      ],
      "stateMutability": "view",
      "type": "function"
    },
    {
      "inputs": [
        {
          "internalType": "uint256",
          "name": "index",
          "type": "uint256"
        }
      ],
      "name": "makeFinal",
      "outputs": [],
      "stateMutability": "nonpayable",
      "type": "function"
    },
    {
      "inputs": [],
      "name": "owner",
      "outputs": [
        {
          "internalType": "address",
          "name": "",
          "type": "address"
        }
      ],
      "stateMutability": "view",
      "type": "function"
    },
    {
      "inputs": [],
      "name": "predId",
      "outputs": [
        {
          "internalType": "uint256",
          "name": "",
          "type": "uint256"
        }
      ],
      "stateMutability": "view",
      "type": "function"
    },
    {
      "inputs": [
        {
          "internalType": "uint256",
          "name": "",
          "type": "uint256"
        }
      ],
      "name": "predictionList",
      "outputs": [
        {
          "internalType": "uint256",
          "name": "id",
          "type": "uint256"
        },
        {
          "internalType": "address payable",
          "name": "bidAddr",
          "type": "address"
        },
        {
          "internalType": "address payable",
          "name": "challengerAddr",
          "type": "address"
        },
        {
          "internalType": "uint256",
          "name": "bidAmount",
          "type": "uint256"
        },
        {
          "internalType": "uint256",
          "name": "challengerAmount",
          "type": "uint256"
        },
        {
          "internalType": "uint256",
          "name": "bidOdds",
          "type": "uint256"
        },
        {
          "internalType": "string",
          "name": "bidGameWinner",
          "type": "string"
        },
        {
          "internalType": "uint256",
          "name": "gameID",
          "type": "uint256"
        },
        {
          "internalType": "bool",
          "name": "bidWin",
          "type": "bool"
        },
        {
          "internalType": "bool",
          "name": "hasChallenger",
          "type": "bool"
        },
        {
          "internalType": "bool",
          "name": "isFinal",
          "type": "bool"
        }
      ],
      "stateMutability": "view",
      "type": "function"
    },
    {
      "inputs": [
        {
          "components": [
            {
              "internalType": "uint256",
              "name": "id",
              "type": "uint256"
            },
            {
              "internalType": "address payable",
              "name": "bidAddr",
              "type": "address"
            },
            {
              "internalType": "address payable",
              "name": "challengerAddr",
              "type": "address"
            },
            {
              "internalType": "uint256",
              "name": "bidAmount",
              "type": "uint256"
            },
            {
              "internalType": "uint256",
              "name": "challengerAmount",
              "type": "uint256"
            },
            {
              "internalType": "uint256",
              "name": "bidOdds",
              "type": "uint256"
            },
            {
              "internalType": "string",
              "name": "bidGameWinner",
              "type": "string"
            },
            {
              "internalType": "uint256",
              "name": "gameID",
              "type": "uint256"
            },
            {
              "internalType": "bool",
              "name": "bidWin",
              "type": "bool"
            },
            {
              "internalType": "bool",
              "name": "hasChallenger",
              "type": "bool"
            },
            {
              "internalType": "bool",
              "name": "isFinal",
              "type": "bool"
            }
          ],
          "internalType": "struct PredictionManager.Prediction",
          "name": "pred",
          "type": "tuple"
        }
      ],
      "name": "receiveNewBid",
      "outputs": [],
      "stateMutability": "payable",
      "type": "function"
    },
    {
      "inputs": [
        {
          "internalType": "address payable",
          "name": "addr",
          "type": "address"
        }
      ],
      "name": "returnResults",
      "outputs": [
        {
          "internalType": "bool",
          "name": "",
          "type": "bool"
        }
      ],
      "stateMutability": "nonpayable",
      "type": "function"
    },
    {
      "inputs": [
        {
          "internalType": "uint256",
          "name": "predIndex",
          "type": "uint256"
        },
        {
          "internalType": "address payable",
          "name": "challengerAddr",
          "type": "address"
        }
      ],
      "name": "updateBidWithChallenger",
      "outputs": [],
      "stateMutability": "payable",
      "type": "function"
    },
    {
      "stateMutability": "payable",
      "type": "receive"
    }
  ],
  "bytecode": "0x6080604052600080546001600160a01b031990811633178255600191909155600280549091163017905534801561003557600080fd5b50611a93806100456000396000f3fe6080604052600436106100e05760003560e01c80638da5cb5b11610084578063c80db4d711610056578063c80db4d7146102b1578063c833f9fa146102ea578063f345fa501461030a578063f862a4761461032a57005b80638da5cb5b146101f65780639590cf281461022e578063adf8252d1461025b578063b31610db1461027b57005b80632f1e156a116100bd5780632f1e156a1461016f5780634c1d0ec4146101825780637fd5934b1461019557806380645265146101d257005b80630af8d5a7146100e95780630fb878de1461011f5780631bcd28bd1461014f57005b366100e757005b005b3480156100f557600080fd5b506101096101043660046116ec565b610361565b60405161011691906117d2565b60405180910390f35b34801561012b57600080fd5b5061013f61013a366004611595565b6104f4565b6040519015158152602001610116565b34801561015b57600080fd5b506100e761016a366004611595565b610948565b6100e761017d3660046115f0565b610996565b6100e7610190366004611704565b610c68565b3480156101a157600080fd5b506100e76101b03660046116ec565b6000908152600560205260409020600801805462ff0000191662010000179055565b3480156101de57600080fd5b506101e860015481565b604051908152602001610116565b34801561020257600080fd5b50600054610216906001600160a01b031681565b6040516001600160a01b039091168152602001610116565b34801561023a57600080fd5b506101e8610249366004611595565b60046020526000908152604090205481565b34801561026757600080fd5b506101e86102763660046116ec565b610f8a565b34801561028757600080fd5b506101e8610296366004611595565b6001600160a01b031660009081526004602052604090205490565b3480156102bd57600080fd5b506100e76102cc3660046116ec565b6000908152600560205260409020600801805460ff19166001179055565b3480156102f657600080fd5b50600354610216906001600160a01b031681565b34801561031657600080fd5b506100e76103253660046115b8565b611113565b34801561033657600080fd5b5061034a6103453660046116ec565b61123c565b6040516101169b9a99989796959493929190611895565b604080516101608101825260008082526020820181905291810182905260608082018390526080820183905260a0820183905260c082015260e08101829052610100810182905261012081018290526101408101919091526000828152600560208181526040928390208351610160810185528154815260018201546001600160a01b039081169382019390935260028201549092169382019390935260038301546060820152600483015460808201529082015460a082015260068201805491929160c084019190610433906119a5565b80601f016020809104026020016040519081016040528092919081815260200182805461045f906119a5565b80156104ac5780601f10610481576101008083540402835291602001916104ac565b820191906000526020600020905b81548152906001019060200180831161048f57829003601f168201915b50505091835250506007820154602082015260089091015460ff8082161515604084015261010082048116151560608401526201000090910416151560809091015292915050565b33600090815260046020818152604080842054845260058083528185208251610160810184528154815260018201546001600160a01b0390811695820195909552600282015490941692840192909252600382015460608401529281015460808301529182015460a08201526006820180548593859392909160c08401919061057c906119a5565b80601f01602080910402602001604051908101604052809291908181526020018280546105a8906119a5565b80156105f55780601f106105ca576101008083540402835291602001916105f5565b820191906000526020600020905b8154815290600101906020018083116105d857829003601f168201915b50505091835250506007820154602082015260089091015460ff808216151560408401526101008204811615156060840152620100009091041615156080909101526101408101519091506106c55760405162461bcd60e51b8152602060048201526044602482018190527f43616e6e6f742072657475726e207061796f75747320666f722061206d617463908201527f6865642062696420756e74696c2074686520726573756c7473206172652066696064820152633730b61760e11b608482015260a4015b60405180910390fd5b8061012001511580156106ed575080602001516001600160a01b0316826001600160a01b0316145b156107e0576107216040518060400160405280600e81526020016d4e6f206368616c6c656e6765722160901b815250611331565b606081015160408083015190516000916001600160a01b03169083908381818185875af1925050503d8060008114610775576040519150601f19603f3d011682016040523d82523d6000602084013e61077a565b606091505b50509050806107c25760405162461bcd60e51b81526020600482015260146024820152732330b4b632b2103a379039b2b7321022ba3432b960611b60448201526064016106bc565b6107d483602001518460400151611113565b50600195945050505050565b816001600160a01b031681602001516001600160a01b031614801561080757508061010001515b156108a5576108386040518060400160405280600b81526020016a42696464657220776f6e2160a81b815250611331565b60008160800151826060015161084e9190611937565b6040519091506001600160a01b0384169082156108fc029083906000818181858888f19350505050158015610887573d6000803e3d6000fd5b5061089a82602001518360400151611113565b506001949350505050565b816001600160a01b031681604001516001600160a01b03161480156108cd5750806101000151155b15610902576108386040518060400160405280600f81526020016e4368616c6c656e67657220776f6e2160881b815250611331565b61092c60405180604001604052806009815260200168556e6361756768742160b81b815250611331565b61093e81602001518260400151611113565b5060009392505050565b600380546001600160a01b0319166001600160a01b03831690811790915560408051808201909152600d81526c23b0b6b29030b2323932b9b99d60991b602082015261099391611374565b50565b33600090815260046020526040902054610ad75760006101008201819052610120820181905260808201818152610140830182905260018054808552835260056020818152604094859020865181558187015193810180546001600160a01b03199081166001600160a01b039687161790915595870151600282018054909716941693909317909455606085015160038301559151600482015560a08401519181019190915560c083015180518493610a5692600685019291019061141f565b5060e0820151600782015561010080830151600890920180546101208501516101409095015161ffff1990911693151561ff001916939093179315159091029290921762ff00001916620100009115159190910217905560018054336000908152600460205260408120829055909190610acf836119e0565b919050555050565b3360009081526004602052604090205415801590610b1f5750336000908152600460209081526040808320548352600590915290206008015462010000900460ff1615156001145b15610c3f576000610100820181905261012082018190526101408201819052600180548352338252600460208181526040808520548552600580835294819020865181558287015194810180546001600160a01b03199081166001600160a01b03978816179091559187015160028201805490931695169490941790556060850151600384015560808501519183019190915560a08401519282019290925560c083015180518493610bd892600685019291019061141f565b5060e0820151600782015561010080830151600890920180546101208501516101409095015161ffff1990911693151561ff001916939093179315159091029290921762ff00001916620100009115159190910217905560018054906000610acf836119e0565b610993604051806040016040528060088152602001671d5b98d85d59da1d60c21b815250611331565b610c8a604051806060016040528060218152602001611a3d6021913933611374565b6001600160a01b0380821660009081526004602081815260408084208790558684526005808352818520825161016081018452815481526001820154881694810194909452600281015490961691830191909152600385015460608301529184015460808201529083015460a08201526006830180549293919260c084019190610d13906119a5565b80601f0160208091040260200160405190810160405280929190818152602001828054610d3f906119a5565b8015610d8c5780601f10610d6157610100808354040283529160200191610d8c565b820191906000526020600020905b815481529060010190602001808311610d6f57829003601f168201915b50505091835250506007820154602082015260089091015460ff8082161515604084015261010082048116151560608401526201000090910416151560809091015261012081015190915015610e2e5760405162461bcd60e51b815260206004820152602160248201527f546869732062696420616c7265616479206861732061206368616c6c656e67656044820152603960f91b60648201526084016106bc565b6000610e3984610f8a565b60008581526005602081815260408084206002810180546001600160a01b0319166001600160a01b038b161790556004810186905560088101805462ffff001916620101001790558151808301909252600b82526a2134b21030b6b7bab73a1d60a91b8284015293899052919052600390910154919250610eb9916113bd565b610f036040518060400160405280601281526020017121b430b63632b733b2b91030b6b7bab73a1d60711b81525060056000878152602001908152602001600020600401546113bd565b610f84604051806040016040528060158152602001742134b217b1b430b63632b733b2b9103930ba34b79d60591b81525060056000878152602001908152602001600020600501546064610f57919061198e565b60008781526005602081905260409091200154610f7590606461196f565b610f7f919061194f565b6113bd565b50505050565b60008181526005602081815260408084208151610160810183528154815260018201546001600160a01b039081169482019490945260028201549093169183019190915260038101546060830152600481015460808301529182015460a082015260068201805484939160c0840191611002906119a5565b80601f016020809104026020016040519081016040528092919081815260200182805461102e906119a5565b801561107b5780601f106110505761010080835404028352916020019161107b565b820191906000526020600020905b81548152906001019060200180831161105e57829003601f168201915b50505091835250506007820154602082015260089091015460ff8082161515604084015261010082048116151560608401526201000090910416151560809091015260a08101519091506000906110d381606461198e565b6110df9061271061196f565b6110e9919061194f565b90506000612710828460600151611100919061196f565b61110a919061194f565b95945050505050565b6001600160a01b038216600090815260046020818152604080842054845260059182905283208381556001810180546001600160a01b031990811690915560028201805490911690556003810184905591820183905581018290559061117c60068301826114a3565b506000600782018190556008909101805462ffffff191690556001600160a01b03808416825260046020818152604080852085905592851684528284205484526005908190529183208381556001810180546001600160a01b03199081169091556002820180549091169055600381018490559081018390559081018290559061120960068301826114a3565b506000600782018190556008909101805462ffffff191690556001600160a01b0390911681526004602052604081205550565b6005602081905260009182526040909120805460018201546002830154600384015460048501549585015460068601805495976001600160a01b039586169795909416959294919261128d906119a5565b80601f01602080910402602001604051908101604052809291908181526020018280546112b9906119a5565b80156113065780601f106112db57610100808354040283529160200191611306565b820191906000526020600020905b8154815290600101906020018083116112e957829003601f168201915b50505050600783015460089093015491929160ff80821692506101008204811691620100009004168b565b610993816040516024016113459190611773565b60408051601f198184030181529190526020810180516001600160e01b031663104c13eb60e21b1790526113fe565b6113b9828260405160240161138a929190611786565b60408051601f198184030181529190526020810180516001600160e01b031663319af33360e01b1790526113fe565b5050565b6113b982826040516024016113d39291906117b0565b60408051601f198184030181529190526020810180516001600160e01b03166309710a9d60e41b1790525b80516a636f6e736f6c652e6c6f67602083016000808483855afa5050505050565b82805461142b906119a5565b90600052602060002090601f01602090048101928261144d5760008555611493565b82601f1061146657805160ff1916838001178555611493565b82800160010185558215611493579182015b82811115611493578251825591602001919060010190611478565b5061149f9291506114d9565b5090565b5080546114af906119a5565b6000825580601f106114bf575050565b601f01602090049060005260206000209081019061099391905b5b8082111561149f57600081556001016114da565b80356114f981611a27565b919050565b803580151581146114f957600080fd5b600082601f83011261151e578081fd5b813567ffffffffffffffff8082111561153957611539611a11565b604051601f8301601f19908116603f0116810190828211818310171561156157611561611a11565b81604052838152866020858801011115611579578485fd5b8360208701602083013792830160200193909352509392505050565b6000602082840312156115a6578081fd5b81356115b181611a27565b9392505050565b600080604083850312156115ca578081fd5b82356115d581611a27565b915060208301356115e581611a27565b809150509250929050565b600060208284031215611601578081fd5b813567ffffffffffffffff80821115611618578283fd5b90830190610160828603121561162c578283fd5b61163461190d565b82358152611644602084016114ee565b6020820152611655604084016114ee565b6040820152606083013560608201526080830135608082015260a083013560a082015260c083013582811115611689578485fd5b6116958782860161150e565b60c08301525060e083013560e082015261010091506116b58284016114fe565b8282015261012091506116c98284016114fe565b8282015261014091506116dd8284016114fe565b91810191909152949350505050565b6000602082840312156116fd578081fd5b5035919050565b60008060408385031215611716578182fd5b8235915060208301356115e581611a27565b60008151808452815b8181101561174d57602081850181015186830182015201611731565b8181111561175e5782602083870101525b50601f01601f19169290920160200192915050565b6020815260006115b16020830184611728565b6040815260006117996040830185611728565b905060018060a01b03831660208301529392505050565b6040815260006117c36040830185611728565b90508260208301529392505050565b6020815281516020820152600060208301516117f960408401826001600160a01b03169052565b5060408301516001600160a01b03811660608401525060608301516080830152608083015160a083015260a083015160c083015260c08301516101608060e0850152611849610180850183611728565b60e08601516101008681019190915286015190925061012061186e8187018315159052565b86015190506101406118838682018315159052565b90950151151593019290925250919050565b8b81526001600160a01b038b811660208301528a166040820152606081018990526080810188905260a0810187905261016060c082018190526000906118dd83820189611728565b60e08401979097525050921515610100840152901515610120830152151561014090910152979650505050505050565b604051610160810167ffffffffffffffff8111828210171561193157611931611a11565b60405290565b6000821982111561194a5761194a6119fb565b500190565b60008261196a57634e487b7160e01b81526012600452602481fd5b500490565b6000816000190483118215151615611989576119896119fb565b500290565b6000828210156119a0576119a06119fb565b500390565b600181811c908216806119b957607f821691505b602082108114156119da57634e487b7160e01b600052602260045260246000fd5b50919050565b60006000198214156119f4576119f46119fb565b5060010190565b634e487b7160e01b600052601160045260246000fd5b634e487b7160e01b600052604160045260246000fd5b6001600160a01b038116811461099357600080fdfe416464726573732073656e64696e6720696e20746865206368616c6c656e67653aa26469706673582212201a31f6109ccee839a496c960256a0b2e293d7f84b290c81c2468883f8acd7bf964736f6c63430008040033",
  "linkReferences": {},
  "deployedLinkReferences": {}
}