{
  "_format": "hh-sol-artifact-1",
  "contractName": "PredictionManager",
  "sourceName": "contracts/PredictionManager.sol",
  "abi": [
    {
      "stateMutability": "payable",
      "type": "fallback"
    },
    {
      "inputs": [
        {
          "internalType": "address",
          "name": "",
          "type": "address"
        }
      ],
      "name": "addressBook",
      "outputs": [
        {
          "internalType": "uint256",
          "name": "",
          "type": "uint256"
        }
      ],
      "stateMutability": "view",
      "type": "function"
    },
    {
      "inputs": [
        {
          "internalType": "uint256",
          "name": "index",
          "type": "uint256"
        }
      ],
      "name": "bidWin",
      "outputs": [],
      "stateMutability": "nonpayable",
      "type": "function"
    },
    {
      "inputs": [
        {
          "internalType": "address",
          "name": "bidder",
          "type": "address"
        },
        {
          "internalType": "address",
          "name": "challenger",
          "type": "address"
        }
      ],
      "name": "clearPrediction",
      "outputs": [],
      "stateMutability": "nonpayable",
      "type": "function"
    },
    {
      "inputs": [],
      "name": "game_addr",
      "outputs": [
        {
          "internalType": "address",
          "name": "",
          "type": "address"
        }
      ],
      "stateMutability": "view",
      "type": "function"
    },
    {
      "inputs": [
        {
          "internalType": "address",
          "name": "addr",
          "type": "address"
        }
      ],
      "name": "getGameContractAddress",
      "outputs": [],
      "stateMutability": "nonpayable",
      "type": "function"
    },
    {
      "inputs": [
        {
          "internalType": "address",
          "name": "addr",
          "type": "address"
        }
      ],
      "name": "getIndex",
      "outputs": [
        {
          "internalType": "uint256",
          "name": "index",
          "type": "uint256"
        }
      ],
      "stateMutability": "view",
      "type": "function"
    },
    {
      "inputs": [
        {
          "internalType": "uint256",
          "name": "predIndex",
          "type": "uint256"
        }
      ],
      "name": "getMultiplier",
      "outputs": [
        {
          "internalType": "uint256",
          "name": "response",
          "type": "uint256"
        }
      ],
      "stateMutability": "view",
      "type": "function"
    },
    {
      "inputs": [
        {
          "internalType": "uint256",
          "name": "index",
          "type": "uint256"
        }
      ],
      "name": "getPred",
      "outputs": [
        {
          "components": [
            {
              "internalType": "uint256",
              "name": "id",
              "type": "uint256"
            },
            {
              "internalType": "address payable",
              "name": "bidAddr",
              "type": "address"
            },
            {
              "internalType": "address payable",
              "name": "challengerAddr",
              "type": "address"
            },
            {
              "internalType": "uint256",
              "name": "bidAmount",
              "type": "uint256"
            },
            {
              "internalType": "uint256",
              "name": "challengerAmount",
              "type": "uint256"
            },
            {
              "internalType": "uint256",
              "name": "bidOdds",
              "type": "uint256"
            },
            {
              "internalType": "string",
              "name": "bidGameWinner",
              "type": "string"
            },
            {
              "internalType": "uint256",
              "name": "gameID",
              "type": "uint256"
            },
            {
              "internalType": "bool",
              "name": "bidWin",
              "type": "bool"
            },
            {
              "internalType": "bool",
              "name": "hasChallenger",
              "type": "bool"
            },
            {
              "internalType": "bool",
              "name": "isFinal",
              "type": "bool"
            }
          ],
          "internalType": "struct PredictionManager.Prediction",
          "name": "pred",
          "type": "tuple"
        }
      ],
      "stateMutability": "view",
      "type": "function"
    },
    {
      "inputs": [
        {
          "internalType": "uint256",
          "name": "index",
          "type": "uint256"
        }
      ],
      "name": "makeFinal",
      "outputs": [],
      "stateMutability": "nonpayable",
      "type": "function"
    },
    {
      "inputs": [],
      "name": "owner",
      "outputs": [
        {
          "internalType": "address",
          "name": "",
          "type": "address"
        }
      ],
      "stateMutability": "view",
      "type": "function"
    },
    {
      "inputs": [],
      "name": "predId",
      "outputs": [
        {
          "internalType": "uint256",
          "name": "",
          "type": "uint256"
        }
      ],
      "stateMutability": "view",
      "type": "function"
    },
    {
      "inputs": [
        {
          "internalType": "uint256",
          "name": "",
          "type": "uint256"
        }
      ],
      "name": "predictionList",
      "outputs": [
        {
          "internalType": "uint256",
          "name": "id",
          "type": "uint256"
        },
        {
          "internalType": "address payable",
          "name": "bidAddr",
          "type": "address"
        },
        {
          "internalType": "address payable",
          "name": "challengerAddr",
          "type": "address"
        },
        {
          "internalType": "uint256",
          "name": "bidAmount",
          "type": "uint256"
        },
        {
          "internalType": "uint256",
          "name": "challengerAmount",
          "type": "uint256"
        },
        {
          "internalType": "uint256",
          "name": "bidOdds",
          "type": "uint256"
        },
        {
          "internalType": "string",
          "name": "bidGameWinner",
          "type": "string"
        },
        {
          "internalType": "uint256",
          "name": "gameID",
          "type": "uint256"
        },
        {
          "internalType": "bool",
          "name": "bidWin",
          "type": "bool"
        },
        {
          "internalType": "bool",
          "name": "hasChallenger",
          "type": "bool"
        },
        {
          "internalType": "bool",
          "name": "isFinal",
          "type": "bool"
        }
      ],
      "stateMutability": "view",
      "type": "function"
    },
    {
      "inputs": [
        {
          "components": [
            {
              "internalType": "uint256",
              "name": "id",
              "type": "uint256"
            },
            {
              "internalType": "address payable",
              "name": "bidAddr",
              "type": "address"
            },
            {
              "internalType": "address payable",
              "name": "challengerAddr",
              "type": "address"
            },
            {
              "internalType": "uint256",
              "name": "bidAmount",
              "type": "uint256"
            },
            {
              "internalType": "uint256",
              "name": "challengerAmount",
              "type": "uint256"
            },
            {
              "internalType": "uint256",
              "name": "bidOdds",
              "type": "uint256"
            },
            {
              "internalType": "string",
              "name": "bidGameWinner",
              "type": "string"
            },
            {
              "internalType": "uint256",
              "name": "gameID",
              "type": "uint256"
            },
            {
              "internalType": "bool",
              "name": "bidWin",
              "type": "bool"
            },
            {
              "internalType": "bool",
              "name": "hasChallenger",
              "type": "bool"
            },
            {
              "internalType": "bool",
              "name": "isFinal",
              "type": "bool"
            }
          ],
          "internalType": "struct PredictionManager.Prediction",
          "name": "pred",
          "type": "tuple"
        }
      ],
      "name": "receiveNewBid",
      "outputs": [],
      "stateMutability": "payable",
      "type": "function"
    },
    {
      "inputs": [
        {
          "internalType": "address payable",
          "name": "addr",
          "type": "address"
        }
      ],
      "name": "returnResults",
      "outputs": [
        {
          "internalType": "bool",
          "name": "",
          "type": "bool"
        }
      ],
      "stateMutability": "nonpayable",
      "type": "function"
    },
    {
      "inputs": [
        {
          "internalType": "uint256",
          "name": "predIndex",
          "type": "uint256"
        },
        {
          "internalType": "address payable",
          "name": "challengerAddr",
          "type": "address"
        }
      ],
      "name": "updateBidWithChallenger",
      "outputs": [],
      "stateMutability": "payable",
      "type": "function"
    },
    {
      "stateMutability": "payable",
      "type": "receive"
    }
  ],
  "bytecode": "0x6080604052600080546001600160a01b031990811633178255600191909155600280549091163017905534801561003557600080fd5b50611a8c806100456000396000f3fe6080604052600436106100e05760003560e01c80638da5cb5b11610084578063c80db4d711610056578063c80db4d7146102b1578063c833f9fa146102ea578063f345fa501461030a578063f862a4761461032a57005b80638da5cb5b146101f65780639590cf281461022e578063adf8252d1461025b578063b31610db1461027b57005b80632f1e156a116100bd5780632f1e156a1461016f5780634c1d0ec4146101825780637fd5934b1461019557806380645265146101d257005b80630af8d5a7146100e95780630fb878de1461011f5780631bcd28bd1461014f57005b366100e757005b005b3480156100f557600080fd5b506101096101043660046116e5565b610361565b60405161011691906117cb565b60405180910390f35b34801561012b57600080fd5b5061013f61013a36600461158e565b6104f4565b6040519015158152602001610116565b34801561015b57600080fd5b506100e761016a36600461158e565b610948565b6100e761017d3660046115e9565b610996565b6100e76101903660046116fd565b610c61565b3480156101a157600080fd5b506100e76101b03660046116e5565b6000908152600560205260409020600801805462ff0000191662010000179055565b3480156101de57600080fd5b506101e860015481565b604051908152602001610116565b34801561020257600080fd5b50600054610216906001600160a01b031681565b6040516001600160a01b039091168152602001610116565b34801561023a57600080fd5b506101e861024936600461158e565b60046020526000908152604090205481565b34801561026757600080fd5b506101e86102763660046116e5565b610f83565b34801561028757600080fd5b506101e861029636600461158e565b6001600160a01b031660009081526004602052604090205490565b3480156102bd57600080fd5b506100e76102cc3660046116e5565b6000908152600560205260409020600801805460ff19166001179055565b3480156102f657600080fd5b50600354610216906001600160a01b031681565b34801561031657600080fd5b506100e76103253660046115b1565b61110c565b34801561033657600080fd5b5061034a6103453660046116e5565b611235565b6040516101169b9a9998979695949392919061188e565b604080516101608101825260008082526020820181905291810182905260608082018390526080820183905260a0820183905260c082015260e08101829052610100810182905261012081018290526101408101919091526000828152600560208181526040928390208351610160810185528154815260018201546001600160a01b039081169382019390935260028201549092169382019390935260038301546060820152600483015460808201529082015460a082015260068201805491929160c0840191906104339061199e565b80601f016020809104026020016040519081016040528092919081815260200182805461045f9061199e565b80156104ac5780601f10610481576101008083540402835291602001916104ac565b820191906000526020600020905b81548152906001019060200180831161048f57829003601f168201915b50505091835250506007820154602082015260089091015460ff8082161515604084015261010082048116151560608401526201000090910416151560809091015292915050565b33600090815260046020818152604080842054845260058083528185208251610160810184528154815260018201546001600160a01b0390811695820195909552600282015490941692840192909252600382015460608401529281015460808301529182015460a08201526006820180548593859392909160c08401919061057c9061199e565b80601f01602080910402602001604051908101604052809291908181526020018280546105a89061199e565b80156105f55780601f106105ca576101008083540402835291602001916105f5565b820191906000526020600020905b8154815290600101906020018083116105d857829003601f168201915b50505091835250506007820154602082015260089091015460ff808216151560408401526101008204811615156060840152620100009091041615156080909101526101408101519091506106c55760405162461bcd60e51b8152602060048201526044602482018190527f43616e6e6f742072657475726e207061796f75747320666f722061206d617463908201527f6865642062696420756e74696c2074686520726573756c7473206172652066696064820152633730b61760e11b608482015260a4015b60405180910390fd5b8061012001511580156106ed575080602001516001600160a01b0316826001600160a01b0316145b156107e0576107216040518060400160405280600e81526020016d4e6f206368616c6c656e6765722160901b81525061132a565b606081015160408083015190516000916001600160a01b03169083908381818185875af1925050503d8060008114610775576040519150601f19603f3d011682016040523d82523d6000602084013e61077a565b606091505b50509050806107c25760405162461bcd60e51b81526020600482015260146024820152732330b4b632b2103a379039b2b7321022ba3432b960611b60448201526064016106bc565b6107d48360200151846040015161110c565b50600195945050505050565b816001600160a01b031681602001516001600160a01b031614801561080757508061010001515b156108a5576108386040518060400160405280600b81526020016a42696464657220776f6e2160a81b81525061132a565b60008160800151826060015161084e9190611930565b6040519091506001600160a01b0384169082156108fc029083906000818181858888f19350505050158015610887573d6000803e3d6000fd5b5061089a8260200151836040015161110c565b506001949350505050565b816001600160a01b031681604001516001600160a01b03161480156108cd5750806101000151155b15610902576108386040518060400160405280600f81526020016e4368616c6c656e67657220776f6e2160881b81525061132a565b61092c60405180604001604052806009815260200168556e6361756768742160b81b81525061132a565b61093e8160200151826040015161110c565b5060009392505050565b600380546001600160a01b0319166001600160a01b03831690811790915560408051808201909152600d81526c23b0b6b29030b2323932b9b99d60991b60208201526109939161136d565b50565b33600090815260046020526040902054610ad057600061010082018190526101208201819052610140820181905260018054808452825260056020818152604093849020855181558186015193810180546001600160a01b03199081166001600160a01b039687161790915594860151600282018054909616941693909317909355606084015160038301556080840151600483015560a08401519082015560c083015180518493610a4f926006850192910190611418565b5060e0820151600782015561010080830151600890920180546101208501516101409095015161ffff1990911693151561ff001916939093179315159091029290921762ff00001916620100009115159190910217905560018054336000908152600460205260408120829055909190610ac8836119d9565b919050555050565b3360009081526004602052604090205415801590610b185750336000908152600460209081526040808320548352600590915290206008015462010000900460ff1615156001145b15610c38576000610100820181905261012082018190526101408201819052600180548352338252600460208181526040808520548552600580835294819020865181558287015194810180546001600160a01b03199081166001600160a01b03978816179091559187015160028201805490931695169490941790556060850151600384015560808501519183019190915560a08401519282019290925560c083015180518493610bd1926006850192910190611418565b5060e0820151600782015561010080830151600890920180546101208501516101409095015161ffff1990911693151561ff001916939093179315159091029290921762ff00001916620100009115159190910217905560018054906000610ac8836119d9565b610993604051806040016040528060088152602001671d5b98d85d59da1d60c21b81525061132a565b610c83604051806060016040528060218152602001611a36602191393361136d565b6001600160a01b0380821660009081526004602081815260408084208790558684526005808352818520825161016081018452815481526001820154881694810194909452600281015490961691830191909152600385015460608301529184015460808201529083015460a08201526006830180549293919260c084019190610d0c9061199e565b80601f0160208091040260200160405190810160405280929190818152602001828054610d389061199e565b8015610d855780601f10610d5a57610100808354040283529160200191610d85565b820191906000526020600020905b815481529060010190602001808311610d6857829003601f168201915b50505091835250506007820154602082015260089091015460ff8082161515604084015261010082048116151560608401526201000090910416151560809091015261012081015190915015610e275760405162461bcd60e51b815260206004820152602160248201527f546869732062696420616c7265616479206861732061206368616c6c656e67656044820152603960f91b60648201526084016106bc565b6000610e3284610f83565b60008581526005602081815260408084206002810180546001600160a01b038b166001600160a01b03199091161790556004810186905560088101805461ff0019166101001790558151808301909252600b82526a2134b21030b6b7bab73a1d60a91b8284015293899052919052600390910154919250610eb2916113b6565b610f33604051806040016040528060158152602001742134b217b1b430b63632b733b2b9103930ba34b79d60591b81525060056000878152602001908152602001600020600501546064610f069190611987565b60008781526005602081905260409091200154610f24906064611968565b610f2e9190611948565b6113b6565b610f7d6040518060400160405280601281526020017121b430b63632b733b2b91030b6b7bab73a1d60711b81525060056000878152602001908152602001600020600401546113b6565b50505050565b60008181526005602081815260408084208151610160810183528154815260018201546001600160a01b039081169482019490945260028201549093169183019190915260038101546060830152600481015460808301529182015460a082015260068201805484939160c0840191610ffb9061199e565b80601f01602080910402602001604051908101604052809291908181526020018280546110279061199e565b80156110745780601f1061104957610100808354040283529160200191611074565b820191906000526020600020905b81548152906001019060200180831161105757829003601f168201915b50505091835250506007820154602082015260089091015460ff8082161515604084015261010082048116151560608401526201000090910416151560809091015260a08101519091506000906110cc816064611987565b6110d890612710611968565b6110e29190611948565b905060006127108284606001516110f99190611968565b6111039190611948565b95945050505050565b6001600160a01b038216600090815260046020818152604080842054845260059182905283208381556001810180546001600160a01b0319908116909155600282018054909116905560038101849055918201839055810182905590611175600683018261149c565b506000600782018190556008909101805462ffffff191690556001600160a01b03808416825260046020818152604080852085905592851684528284205484526005908190529183208381556001810180546001600160a01b031990811690915560028201805490911690556003810184905590810183905590810182905590611202600683018261149c565b506000600782018190556008909101805462ffffff191690556001600160a01b0390911681526004602052604081205550565b6005602081905260009182526040909120805460018201546002830154600384015460048501549585015460068601805495976001600160a01b03958616979590941695929491926112869061199e565b80601f01602080910402602001604051908101604052809291908181526020018280546112b29061199e565b80156112ff5780601f106112d4576101008083540402835291602001916112ff565b820191906000526020600020905b8154815290600101906020018083116112e257829003601f168201915b50505050600783015460089093015491929160ff80821692506101008204811691620100009004168b565b6109938160405160240161133e919061176c565b60408051601f198184030181529190526020810180516001600160e01b031663104c13eb60e21b1790526113f7565b6113b2828260405160240161138392919061177f565b60408051601f198184030181529190526020810180516001600160e01b031663319af33360e01b1790526113f7565b5050565b6113b282826040516024016113cc9291906117a9565b60408051601f198184030181529190526020810180516001600160e01b03166309710a9d60e41b1790525b80516a636f6e736f6c652e6c6f67602083016000808483855afa5050505050565b8280546114249061199e565b90600052602060002090601f016020900481019282611446576000855561148c565b82601f1061145f57805160ff191683800117855561148c565b8280016001018555821561148c579182015b8281111561148c578251825591602001919060010190611471565b506114989291506114d2565b5090565b5080546114a89061199e565b6000825580601f106114b8575050565b601f01602090049060005260206000209081019061099391905b5b8082111561149857600081556001016114d3565b80356114f281611a20565b919050565b803580151581146114f257600080fd5b600082601f830112611517578081fd5b813567ffffffffffffffff8082111561153257611532611a0a565b604051601f8301601f19908116603f0116810190828211818310171561155a5761155a611a0a565b81604052838152866020858801011115611572578485fd5b8360208701602083013792830160200193909352509392505050565b60006020828403121561159f578081fd5b81356115aa81611a20565b9392505050565b600080604083850312156115c3578081fd5b82356115ce81611a20565b915060208301356115de81611a20565b809150509250929050565b6000602082840312156115fa578081fd5b813567ffffffffffffffff80821115611611578283fd5b908301906101608286031215611625578283fd5b61162d611906565b8235815261163d602084016114e7565b602082015261164e604084016114e7565b6040820152606083013560608201526080830135608082015260a083013560a082015260c083013582811115611682578485fd5b61168e87828601611507565b60c08301525060e083013560e082015261010091506116ae8284016114f7565b8282015261012091506116c28284016114f7565b8282015261014091506116d68284016114f7565b91810191909152949350505050565b6000602082840312156116f6578081fd5b5035919050565b6000806040838503121561170f578182fd5b8235915060208301356115de81611a20565b60008151808452815b818110156117465760208185018101518683018201520161172a565b818111156117575782602083870101525b50601f01601f19169290920160200192915050565b6020815260006115aa6020830184611721565b6040815260006117926040830185611721565b905060018060a01b03831660208301529392505050565b6040815260006117bc6040830185611721565b90508260208301529392505050565b6020815281516020820152600060208301516117f260408401826001600160a01b03169052565b5060408301516001600160a01b03811660608401525060608301516080830152608083015160a083015260a083015160c083015260c08301516101608060e0850152611842610180850183611721565b60e0860151610100868101919091528601519092506101206118678187018315159052565b860151905061014061187c8682018315159052565b90950151151593019290925250919050565b8b81526001600160a01b038b811660208301528a166040820152606081018990526080810188905260a0810187905261016060c082018190526000906118d683820189611721565b60e08401979097525050921515610100840152901515610120830152151561014090910152979650505050505050565b604051610160810167ffffffffffffffff8111828210171561192a5761192a611a0a565b60405290565b60008219821115611943576119436119f4565b500190565b60008261196357634e487b7160e01b81526012600452602481fd5b500490565b6000816000190483118215151615611982576119826119f4565b500290565b600082821015611999576119996119f4565b500390565b600181811c908216806119b257607f821691505b602082108114156119d357634e487b7160e01b600052602260045260246000fd5b50919050565b60006000198214156119ed576119ed6119f4565b5060010190565b634e487b7160e01b600052601160045260246000fd5b634e487b7160e01b600052604160045260246000fd5b6001600160a01b038116811461099357600080fdfe416464726573732073656e64696e6720696e20746865206368616c6c656e67653aa2646970667358221220d32fc0c9100398b58b2a2bdedcf72b1aba62d83dd1f5eb795fb6215b4a04484b64736f6c63430008040033",
  "linkReferences": {},
  "deployedLinkReferences": {}
}