{
  "_format": "hh-sol-artifact-1",
  "contractName": "PredictionManager",
  "sourceName": "contracts/PredictionManager.sol",
  "abi": [
    {
      "stateMutability": "payable",
      "type": "fallback"
    },
    {
      "inputs": [
        {
          "internalType": "address",
          "name": "",
          "type": "address"
        }
      ],
      "name": "addressBook",
      "outputs": [
        {
          "internalType": "uint256",
          "name": "",
          "type": "uint256"
        }
      ],
      "stateMutability": "view",
      "type": "function"
    },
    {
      "inputs": [
        {
          "internalType": "uint256",
          "name": "index",
          "type": "uint256"
        }
      ],
      "name": "bidWin",
      "outputs": [],
      "stateMutability": "nonpayable",
      "type": "function"
    },
    {
      "inputs": [],
      "name": "game_addr",
      "outputs": [
        {
          "internalType": "address",
          "name": "",
          "type": "address"
        }
      ],
      "stateMutability": "view",
      "type": "function"
    },
    {
      "inputs": [
        {
          "internalType": "address",
          "name": "addr",
          "type": "address"
        }
      ],
      "name": "getGameContractAddress",
      "outputs": [],
      "stateMutability": "nonpayable",
      "type": "function"
    },
    {
      "inputs": [
        {
          "internalType": "address",
          "name": "addr",
          "type": "address"
        }
      ],
      "name": "getIndex",
      "outputs": [
        {
          "internalType": "uint256",
          "name": "index",
          "type": "uint256"
        }
      ],
      "stateMutability": "view",
      "type": "function"
    },
    {
      "inputs": [
        {
          "internalType": "uint256",
          "name": "predIndex",
          "type": "uint256"
        }
      ],
      "name": "getMultiplier",
      "outputs": [
        {
          "internalType": "uint256",
          "name": "response",
          "type": "uint256"
        }
      ],
      "stateMutability": "view",
      "type": "function"
    },
    {
      "inputs": [
        {
          "internalType": "uint256",
          "name": "index",
          "type": "uint256"
        }
      ],
      "name": "getPred",
      "outputs": [
        {
          "components": [
            {
              "internalType": "uint256",
              "name": "id",
              "type": "uint256"
            },
            {
              "internalType": "address payable",
              "name": "bidAddr",
              "type": "address"
            },
            {
              "internalType": "address payable",
              "name": "challengerAddr",
              "type": "address"
            },
            {
              "internalType": "uint256",
              "name": "bidAmount",
              "type": "uint256"
            },
            {
              "internalType": "uint256",
              "name": "challengerAmount",
              "type": "uint256"
            },
            {
              "internalType": "uint256",
              "name": "bidOdds",
              "type": "uint256"
            },
            {
              "internalType": "string",
              "name": "bidGameWinner",
              "type": "string"
            },
            {
              "internalType": "uint256",
              "name": "gameID",
              "type": "uint256"
            },
            {
              "internalType": "bool",
              "name": "bidWin",
              "type": "bool"
            },
            {
              "internalType": "bool",
              "name": "hasChallenger",
              "type": "bool"
            },
            {
              "internalType": "bool",
              "name": "isFinal",
              "type": "bool"
            }
          ],
          "internalType": "struct PredictionManager.Prediction",
          "name": "pred",
          "type": "tuple"
        }
      ],
      "stateMutability": "view",
      "type": "function"
    },
    {
      "inputs": [
        {
          "internalType": "address",
          "name": "addr",
          "type": "address"
        }
      ],
      "name": "hasActiveBid",
      "outputs": [
        {
          "internalType": "bool",
          "name": "",
          "type": "bool"
        }
      ],
      "stateMutability": "view",
      "type": "function"
    },
    {
      "inputs": [
        {
          "internalType": "uint256",
          "name": "index",
          "type": "uint256"
        }
      ],
      "name": "makeFinal",
      "outputs": [],
      "stateMutability": "nonpayable",
      "type": "function"
    },
    {
      "inputs": [],
      "name": "owner",
      "outputs": [
        {
          "internalType": "address",
          "name": "",
          "type": "address"
        }
      ],
      "stateMutability": "view",
      "type": "function"
    },
    {
      "inputs": [],
      "name": "predId",
      "outputs": [
        {
          "internalType": "uint256",
          "name": "",
          "type": "uint256"
        }
      ],
      "stateMutability": "view",
      "type": "function"
    },
    {
      "inputs": [
        {
          "internalType": "uint256",
          "name": "",
          "type": "uint256"
        }
      ],
      "name": "predictionList",
      "outputs": [
        {
          "internalType": "uint256",
          "name": "id",
          "type": "uint256"
        },
        {
          "internalType": "address payable",
          "name": "bidAddr",
          "type": "address"
        },
        {
          "internalType": "address payable",
          "name": "challengerAddr",
          "type": "address"
        },
        {
          "internalType": "uint256",
          "name": "bidAmount",
          "type": "uint256"
        },
        {
          "internalType": "uint256",
          "name": "challengerAmount",
          "type": "uint256"
        },
        {
          "internalType": "uint256",
          "name": "bidOdds",
          "type": "uint256"
        },
        {
          "internalType": "string",
          "name": "bidGameWinner",
          "type": "string"
        },
        {
          "internalType": "uint256",
          "name": "gameID",
          "type": "uint256"
        },
        {
          "internalType": "bool",
          "name": "bidWin",
          "type": "bool"
        },
        {
          "internalType": "bool",
          "name": "hasChallenger",
          "type": "bool"
        },
        {
          "internalType": "bool",
          "name": "isFinal",
          "type": "bool"
        }
      ],
      "stateMutability": "view",
      "type": "function"
    },
    {
      "inputs": [
        {
          "components": [
            {
              "internalType": "uint256",
              "name": "id",
              "type": "uint256"
            },
            {
              "internalType": "address payable",
              "name": "bidAddr",
              "type": "address"
            },
            {
              "internalType": "address payable",
              "name": "challengerAddr",
              "type": "address"
            },
            {
              "internalType": "uint256",
              "name": "bidAmount",
              "type": "uint256"
            },
            {
              "internalType": "uint256",
              "name": "challengerAmount",
              "type": "uint256"
            },
            {
              "internalType": "uint256",
              "name": "bidOdds",
              "type": "uint256"
            },
            {
              "internalType": "string",
              "name": "bidGameWinner",
              "type": "string"
            },
            {
              "internalType": "uint256",
              "name": "gameID",
              "type": "uint256"
            },
            {
              "internalType": "bool",
              "name": "bidWin",
              "type": "bool"
            },
            {
              "internalType": "bool",
              "name": "hasChallenger",
              "type": "bool"
            },
            {
              "internalType": "bool",
              "name": "isFinal",
              "type": "bool"
            }
          ],
          "internalType": "struct PredictionManager.Prediction",
          "name": "pred",
          "type": "tuple"
        }
      ],
      "name": "receiveNewBid",
      "outputs": [],
      "stateMutability": "payable",
      "type": "function"
    },
    {
      "inputs": [
        {
          "internalType": "address payable",
          "name": "addr",
          "type": "address"
        }
      ],
      "name": "returnResults",
      "outputs": [
        {
          "internalType": "bool",
          "name": "",
          "type": "bool"
        }
      ],
      "stateMutability": "nonpayable",
      "type": "function"
    },
    {
      "inputs": [
        {
          "internalType": "uint256",
          "name": "predIndex",
          "type": "uint256"
        },
        {
          "internalType": "address payable",
          "name": "challengerAddr",
          "type": "address"
        }
      ],
      "name": "updateBidWithChallenger",
      "outputs": [],
      "stateMutability": "payable",
      "type": "function"
    },
    {
      "stateMutability": "payable",
      "type": "receive"
    }
  ],
  "bytecode": "0x6080604052600080546001600160a01b031990811633178255600191909155600280549091163017905534801561003557600080fd5b50611978806100456000396000f3fe6080604052600436106100e05760003560e01c80638064526511610084578063b31610db11610056578063b31610db146102ca578063c80db4d714610300578063c833f9fa14610339578063f862a4761461035957005b806380645265146102215780638da5cb5b146102455780639590cf281461027d578063adf8252d146102aa57005b80631bcd28bd116100bd5780631bcd28bd1461019e5780632f1e156a146101be5780634c1d0ec4146101d15780637fd5934b146101e457005b80630af8d5a7146100e95780630fb878de1461011f57806313617db91461014f57005b366100e757005b005b3480156100f557600080fd5b506101096101043660046115c6565b610390565b60405161011691906116b7565b60405180910390f35b34801561012b57600080fd5b5061013f61013a3660046114a7565b610523565b6040519015158152602001610116565b34801561015b57600080fd5b5061013f61016a3660046114a7565b6001600160a01b03166000908152600460209081526040808320548352600590915290206008015462010000900460ff1690565b3480156101aa57600080fd5b506100e76101b93660046114a7565b61095e565b6100e76101cc3660046114ca565b6109ac565b6100e76101df3660046115de565b610cd9565b3480156101f057600080fd5b506100e76101ff3660046115c6565b6000908152600560205260409020600801805462ff0000191662010000179055565b34801561022d57600080fd5b5061023760015481565b604051908152602001610116565b34801561025157600080fd5b50600054610265906001600160a01b031681565b6040516001600160a01b039091168152602001610116565b34801561028957600080fd5b506102376102983660046114a7565b60046020526000908152604090205481565b3480156102b657600080fd5b506102376102c53660046115c6565b610ffb565b3480156102d657600080fd5b506102376102e53660046114a7565b6001600160a01b031660009081526004602052604090205490565b34801561030c57600080fd5b506100e761031b3660046115c6565b6000908152600560205260409020600801805460ff19166001179055565b34801561034557600080fd5b50600354610265906001600160a01b031681565b34801561036557600080fd5b506103796103743660046115c6565b611184565b6040516101169b9a9998979695949392919061177a565b604080516101608101825260008082526020820181905291810182905260608082018390526080820183905260a0820183905260c082015260e08101829052610100810182905261012081018290526101408101919091526000828152600560208181526040928390208351610160810185528154815260018201546001600160a01b039081169382019390935260028201549092169382019390935260038301546060820152600483015460808201529082015460a082015260068201805491929160c0840191906104629061188a565b80601f016020809104026020016040519081016040528092919081815260200182805461048e9061188a565b80156104db5780601f106104b0576101008083540402835291602001916104db565b820191906000526020600020905b8154815290600101906020018083116104be57829003601f168201915b50505091835250506007820154602082015260089091015460ff8082161515604084015261010082048116151560608401526201000090910416151560809091015292915050565b33600090815260046020818152604080842054845260058083528185208251610160810184528154815260018201546001600160a01b0390811695820195909552600282015490941692840192909252600382015460608401529281015460808301529182015460a08201526006820180548593859392909160c0840191906105ab9061188a565b80601f01602080910402602001604051908101604052809291908181526020018280546105d79061188a565b80156106245780601f106105f957610100808354040283529160200191610624565b820191906000526020600020905b81548152906001019060200180831161060757829003601f168201915b50505091835250506007820154602082015260089091015460ff808216151560408401526101008204811615156060840152620100009091041615156080909101526101408101519091506106f45760405162461bcd60e51b8152602060048201526044602482018190527f43616e6e6f742072657475726e207061796f75747320666f722061206d617463908201527f6865642062696420756e74696c2074686520726573756c7473206172652066696064820152633730b61760e11b608482015260a4015b60405180910390fd5b33600090815260046020908152604080832054835260059091529020600801805462ff000019169055610120810151158015610745575080602001516001600160a01b0316826001600160a01b0316145b15610826576107796040518060400160405280600e81526020016d4e6f206368616c6c656e6765722160901b815250611279565b606081015160408083015190516000916001600160a01b03169083908381818185875af1925050503d80600081146107cd576040519150601f19603f3d011682016040523d82523d6000602084013e6107d2565b606091505b505090508061081a5760405162461bcd60e51b81526020600482015260146024820152732330b4b632b2103a379039b2b7321022ba3432b960611b60448201526064016106eb565b50600195945050505050565b816001600160a01b031681602001516001600160a01b031614801561084d57508061010001515b156108cd5761087e6040518060400160405280600b81526020016a42696464657220776f6e2160a81b815250611279565b600081608001518260600151610894919061181c565b6040519091506001600160a01b0384169082156108fc029083906000818181858888f1935050505015801561081a573d6000803e3d6000fd5b816001600160a01b031681604001516001600160a01b03161480156108f55750806101000151155b1561092a5761087e6040518060400160405280600f81526020016e4368616c6c656e67657220776f6e2160881b815250611279565b61095460405180604001604052806009815260200168556e6361756768742160b81b815250611279565b5060009392505050565b600380546001600160a01b0319166001600160a01b03831690811790915560408051808201909152600d81526c23b0b6b29030b2323932b9b99d60991b60208201526109a9916112bc565b50565b336000908152600460209081526040808320548352600590915290206008015462010000900460ff16151560011415610a375760405162461bcd60e51b815260206004820152602760248201527f54686973206164647265737320616c72656164792068617320616e20616374696044820152663b32903134b21760c91b60648201526084016106eb565b33600090815260046020526040902054610b7157600061010082018190526101208201819052610140820181905260018054808452825260056020818152604093849020855181558186015193810180546001600160a01b03199081166001600160a01b039687161790915594860151600282018054909616941693909317909355606084015160038301556080840151600483015560a08401519082015560c083015180518493610af0926006850192910190611367565b5060e0820151600782015561010080830151600890920180546101208501516101409095015161ffff1990911693151561ff001916939093179315159091029290921762ff00001916620100009115159190910217905560018054336000908152600460205260408120829055909190610b69836118c5565b919050555050565b3360009081526004602052604090205415801590610bb95750336000908152600460209081526040808320548352600590915290206008015462010000900460ff1615156001145b156109a9576000610100820181905261012082018190526101408201819052600180548352338252600460208181526040808520548552600580835294819020865181558287015194810180546001600160a01b03199081166001600160a01b03978816179091559187015160028201805490931695169490941790556060850151600384015560808501519183019190915560a08401519282019290925560c083015180518493610c72926006850192910190611367565b5060e0820151600782015561010080830151600890920180546101208501516101409095015161ffff1990911693151561ff001916939093179315159091029290921762ff00001916620100009115159190910217905560018054906000610b69836118c5565b610cfb60405180606001604052806021815260200161192260219139336112bc565b6001600160a01b0380821660009081526004602081815260408084208790558684526005808352818520825161016081018452815481526001820154881694810194909452600281015490961691830191909152600385015460608301529184015460808201529083015460a08201526006830180549293919260c084019190610d849061188a565b80601f0160208091040260200160405190810160405280929190818152602001828054610db09061188a565b8015610dfd5780601f10610dd257610100808354040283529160200191610dfd565b820191906000526020600020905b815481529060010190602001808311610de057829003601f168201915b50505091835250506007820154602082015260089091015460ff8082161515604084015261010082048116151560608401526201000090910416151560809091015261012081015190915015610e9f5760405162461bcd60e51b815260206004820152602160248201527f546869732062696420616c7265616479206861732061206368616c6c656e67656044820152603960f91b60648201526084016106eb565b6000610eaa84610ffb565b60008581526005602081815260408084206002810180546001600160a01b038b166001600160a01b03199091161790556004810186905560088101805461ff0019166101001790558151808301909252600b82526a2134b21030b6b7bab73a1d60a91b8284015293899052919052600390910154919250610f2a91611305565b610fab604051806040016040528060158152602001742134b217b1b430b63632b733b2b9103930ba34b79d60591b81525060056000878152602001908152602001600020600501546064610f7e9190611873565b60008781526005602081905260409091200154610f9c906064611854565b610fa69190611834565b611305565b610ff56040518060400160405280601281526020017121b430b63632b733b2b91030b6b7bab73a1d60711b8152506005600087815260200190815260200160002060040154611305565b50505050565b60008181526005602081815260408084208151610160810183528154815260018201546001600160a01b039081169482019490945260028201549093169183019190915260038101546060830152600481015460808301529182015460a082015260068201805484939160c08401916110739061188a565b80601f016020809104026020016040519081016040528092919081815260200182805461109f9061188a565b80156110ec5780601f106110c1576101008083540402835291602001916110ec565b820191906000526020600020905b8154815290600101906020018083116110cf57829003601f168201915b50505091835250506007820154602082015260089091015460ff8082161515604084015261010082048116151560608401526201000090910416151560809091015260a0810151909150600090611144816064611873565b61115090612710611854565b61115a9190611834565b905060006127108284606001516111719190611854565b61117b9190611834565b95945050505050565b6005602081905260009182526040909120805460018201546002830154600384015460048501549585015460068601805495976001600160a01b03958616979590941695929491926111d59061188a565b80601f01602080910402602001604051908101604052809291908181526020018280546112019061188a565b801561124e5780601f106112235761010080835404028352916020019161124e565b820191906000526020600020905b81548152906001019060200180831161123157829003601f168201915b50505050600783015460089093015491929160ff80821692506101008204811691620100009004168b565b6109a98160405160240161128d9190611658565b60408051601f198184030181529190526020810180516001600160e01b031663104c13eb60e21b179052611346565b61130182826040516024016112d292919061166b565b60408051601f198184030181529190526020810180516001600160e01b031663319af33360e01b179052611346565b5050565b611301828260405160240161131b929190611695565b60408051601f198184030181529190526020810180516001600160e01b03166309710a9d60e41b1790525b80516a636f6e736f6c652e6c6f67602083016000808483855afa5050505050565b8280546113739061188a565b90600052602060002090601f01602090048101928261139557600085556113db565b82601f106113ae57805160ff19168380011785556113db565b828001600101855582156113db579182015b828111156113db5782518255916020019190600101906113c0565b506113e79291506113eb565b5090565b5b808211156113e757600081556001016113ec565b803561140b8161190c565b919050565b8035801515811461140b57600080fd5b600082601f830112611430578081fd5b813567ffffffffffffffff8082111561144b5761144b6118f6565b604051601f8301601f19908116603f01168101908282118183101715611473576114736118f6565b8160405283815286602085880101111561148b578485fd5b8360208701602083013792830160200193909352509392505050565b6000602082840312156114b8578081fd5b81356114c38161190c565b9392505050565b6000602082840312156114db578081fd5b813567ffffffffffffffff808211156114f2578283fd5b908301906101608286031215611506578283fd5b61150e6117f2565b8235815261151e60208401611400565b602082015261152f60408401611400565b6040820152606083013560608201526080830135608082015260a083013560a082015260c083013582811115611563578485fd5b61156f87828601611420565b60c08301525060e083013560e0820152610100915061158f828401611410565b8282015261012091506115a3828401611410565b8282015261014091506115b7828401611410565b91810191909152949350505050565b6000602082840312156115d7578081fd5b5035919050565b600080604083850312156115f0578081fd5b8235915060208301356116028161190c565b809150509250929050565b60008151808452815b8181101561163257602081850181015186830182015201611616565b818111156116435782602083870101525b50601f01601f19169290920160200192915050565b6020815260006114c3602083018461160d565b60408152600061167e604083018561160d565b905060018060a01b03831660208301529392505050565b6040815260006116a8604083018561160d565b90508260208301529392505050565b6020815281516020820152600060208301516116de60408401826001600160a01b03169052565b5060408301516001600160a01b03811660608401525060608301516080830152608083015160a083015260a083015160c083015260c08301516101608060e085015261172e61018085018361160d565b60e0860151610100868101919091528601519092506101206117538187018315159052565b86015190506101406117688682018315159052565b90950151151593019290925250919050565b8b81526001600160a01b038b811660208301528a166040820152606081018990526080810188905260a0810187905261016060c082018190526000906117c28382018961160d565b60e08401979097525050921515610100840152901515610120830152151561014090910152979650505050505050565b604051610160810167ffffffffffffffff81118282101715611816576118166118f6565b60405290565b6000821982111561182f5761182f6118e0565b500190565b60008261184f57634e487b7160e01b81526012600452602481fd5b500490565b600081600019048311821515161561186e5761186e6118e0565b500290565b600082821015611885576118856118e0565b500390565b600181811c9082168061189e57607f821691505b602082108114156118bf57634e487b7160e01b600052602260045260246000fd5b50919050565b60006000198214156118d9576118d96118e0565b5060010190565b634e487b7160e01b600052601160045260246000fd5b634e487b7160e01b600052604160045260246000fd5b6001600160a01b03811681146109a957600080fdfe416464726573732073656e64696e6720696e20746865206368616c6c656e67653aa264697066735822122055cce25305b871929064f1240f5c711419aea01dd79224f1bf5eb1767a4e4d5464736f6c63430008040033",
  "linkReferences": {},
  "deployedLinkReferences": {}
}