{
  "_format": "hh-sol-artifact-1",
  "contractName": "PredictionManager",
  "sourceName": "contracts/PredictionManager.sol",
  "abi": [
    {
      "stateMutability": "payable",
      "type": "fallback"
    },
    {
      "inputs": [
        {
          "internalType": "address",
          "name": "",
          "type": "address"
        }
      ],
      "name": "addressBook",
      "outputs": [
        {
          "internalType": "uint256",
          "name": "",
          "type": "uint256"
        }
      ],
      "stateMutability": "view",
      "type": "function"
    },
    {
      "inputs": [
        {
          "internalType": "uint256",
          "name": "index",
          "type": "uint256"
        }
      ],
      "name": "bidWin",
      "outputs": [],
      "stateMutability": "nonpayable",
      "type": "function"
    },
    {
      "inputs": [
        {
          "internalType": "address",
          "name": "bidder",
          "type": "address"
        },
        {
          "internalType": "address",
          "name": "challenger",
          "type": "address"
        }
      ],
      "name": "clearPrediction",
      "outputs": [],
      "stateMutability": "nonpayable",
      "type": "function"
    },
    {
      "inputs": [],
      "name": "game_addr",
      "outputs": [
        {
          "internalType": "address",
          "name": "",
          "type": "address"
        }
      ],
      "stateMutability": "view",
      "type": "function"
    },
    {
      "inputs": [
        {
          "internalType": "address",
          "name": "addr",
          "type": "address"
        }
      ],
      "name": "getGameContractAddress",
      "outputs": [],
      "stateMutability": "nonpayable",
      "type": "function"
    },
    {
      "inputs": [
        {
          "internalType": "address",
          "name": "addr",
          "type": "address"
        }
      ],
      "name": "getIndex",
      "outputs": [
        {
          "internalType": "uint256",
          "name": "index",
          "type": "uint256"
        }
      ],
      "stateMutability": "view",
      "type": "function"
    },
    {
      "inputs": [
        {
          "internalType": "uint256",
          "name": "predIndex",
          "type": "uint256"
        }
      ],
      "name": "getMultiplier",
      "outputs": [
        {
          "internalType": "uint256",
          "name": "response",
          "type": "uint256"
        }
      ],
      "stateMutability": "view",
      "type": "function"
    },
    {
      "inputs": [
        {
          "internalType": "uint256",
          "name": "index",
          "type": "uint256"
        }
      ],
      "name": "getPred",
      "outputs": [
        {
          "components": [
            {
              "internalType": "uint256",
              "name": "id",
              "type": "uint256"
            },
            {
              "internalType": "address payable",
              "name": "bidAddr",
              "type": "address"
            },
            {
              "internalType": "address payable",
              "name": "challengerAddr",
              "type": "address"
            },
            {
              "internalType": "uint256",
              "name": "bidAmount",
              "type": "uint256"
            },
            {
              "internalType": "uint256",
              "name": "challengerAmount",
              "type": "uint256"
            },
            {
              "internalType": "uint256",
              "name": "bidOdds",
              "type": "uint256"
            },
            {
              "internalType": "string",
              "name": "bidGameWinner",
              "type": "string"
            },
            {
              "internalType": "uint256",
              "name": "gameID",
              "type": "uint256"
            },
            {
              "internalType": "bool",
              "name": "bidWin",
              "type": "bool"
            },
            {
              "internalType": "bool",
              "name": "hasChallenger",
              "type": "bool"
            },
            {
              "internalType": "bool",
              "name": "isFinal",
              "type": "bool"
            }
          ],
          "internalType": "struct PredictionManager.Prediction",
          "name": "pred",
          "type": "tuple"
        }
      ],
      "stateMutability": "view",
      "type": "function"
    },
    {
      "inputs": [
        {
          "internalType": "address",
          "name": "addr",
          "type": "address"
        }
      ],
      "name": "hasActiveBid",
      "outputs": [
        {
          "internalType": "bool",
          "name": "",
          "type": "bool"
        }
      ],
      "stateMutability": "view",
      "type": "function"
    },
    {
      "inputs": [
        {
          "internalType": "uint256",
          "name": "index",
          "type": "uint256"
        }
      ],
      "name": "makeFinal",
      "outputs": [],
      "stateMutability": "nonpayable",
      "type": "function"
    },
    {
      "inputs": [],
      "name": "owner",
      "outputs": [
        {
          "internalType": "address",
          "name": "",
          "type": "address"
        }
      ],
      "stateMutability": "view",
      "type": "function"
    },
    {
      "inputs": [],
      "name": "predId",
      "outputs": [
        {
          "internalType": "uint256",
          "name": "",
          "type": "uint256"
        }
      ],
      "stateMutability": "view",
      "type": "function"
    },
    {
      "inputs": [
        {
          "internalType": "uint256",
          "name": "",
          "type": "uint256"
        }
      ],
      "name": "predictionList",
      "outputs": [
        {
          "internalType": "uint256",
          "name": "id",
          "type": "uint256"
        },
        {
          "internalType": "address payable",
          "name": "bidAddr",
          "type": "address"
        },
        {
          "internalType": "address payable",
          "name": "challengerAddr",
          "type": "address"
        },
        {
          "internalType": "uint256",
          "name": "bidAmount",
          "type": "uint256"
        },
        {
          "internalType": "uint256",
          "name": "challengerAmount",
          "type": "uint256"
        },
        {
          "internalType": "uint256",
          "name": "bidOdds",
          "type": "uint256"
        },
        {
          "internalType": "string",
          "name": "bidGameWinner",
          "type": "string"
        },
        {
          "internalType": "uint256",
          "name": "gameID",
          "type": "uint256"
        },
        {
          "internalType": "bool",
          "name": "bidWin",
          "type": "bool"
        },
        {
          "internalType": "bool",
          "name": "hasChallenger",
          "type": "bool"
        },
        {
          "internalType": "bool",
          "name": "isFinal",
          "type": "bool"
        }
      ],
      "stateMutability": "view",
      "type": "function"
    },
    {
      "inputs": [
        {
          "components": [
            {
              "internalType": "uint256",
              "name": "id",
              "type": "uint256"
            },
            {
              "internalType": "address payable",
              "name": "bidAddr",
              "type": "address"
            },
            {
              "internalType": "address payable",
              "name": "challengerAddr",
              "type": "address"
            },
            {
              "internalType": "uint256",
              "name": "bidAmount",
              "type": "uint256"
            },
            {
              "internalType": "uint256",
              "name": "challengerAmount",
              "type": "uint256"
            },
            {
              "internalType": "uint256",
              "name": "bidOdds",
              "type": "uint256"
            },
            {
              "internalType": "string",
              "name": "bidGameWinner",
              "type": "string"
            },
            {
              "internalType": "uint256",
              "name": "gameID",
              "type": "uint256"
            },
            {
              "internalType": "bool",
              "name": "bidWin",
              "type": "bool"
            },
            {
              "internalType": "bool",
              "name": "hasChallenger",
              "type": "bool"
            },
            {
              "internalType": "bool",
              "name": "isFinal",
              "type": "bool"
            }
          ],
          "internalType": "struct PredictionManager.Prediction",
          "name": "pred",
          "type": "tuple"
        }
      ],
      "name": "receiveNewBid",
      "outputs": [],
      "stateMutability": "payable",
      "type": "function"
    },
    {
      "inputs": [
        {
          "internalType": "address payable",
          "name": "addr",
          "type": "address"
        }
      ],
      "name": "returnResults",
      "outputs": [
        {
          "internalType": "bool",
          "name": "",
          "type": "bool"
        }
      ],
      "stateMutability": "nonpayable",
      "type": "function"
    },
    {
      "inputs": [
        {
          "internalType": "uint256",
          "name": "predIndex",
          "type": "uint256"
        },
        {
          "internalType": "address payable",
          "name": "challengerAddr",
          "type": "address"
        }
      ],
      "name": "updateBidWithChallenger",
      "outputs": [],
      "stateMutability": "payable",
      "type": "function"
    },
    {
      "stateMutability": "payable",
      "type": "receive"
    }
  ],
  "bytecode": "0x6080604052600080546001600160a01b031990811633178255600191909155600280549091163017905534801561003557600080fd5b50611b48806100456000396000f3fe6080604052600436106100eb5760003560e01c80638da5cb5b11610084578063c80db4d711610056578063c80db4d71461030b578063c833f9fa14610344578063f345fa5014610364578063f862a4761461038457005b80638da5cb5b146102505780639590cf2814610288578063adf8252d146102b5578063b31610db146102d557005b80632f1e156a116100bd5780632f1e156a146101c95780634c1d0ec4146101dc5780637fd5934b146101ef578063806452651461022c57005b80630af8d5a7146100f45780630fb878de1461012a57806313617db91461015a5780631bcd28bd146101a957005b366100f257005b005b34801561010057600080fd5b5061011461010f3660046117a1565b6103bb565b6040516101219190611887565b60405180910390f35b34801561013657600080fd5b5061014a61014536600461164a565b61054e565b6040519015158152602001610121565b34801561016657600080fd5b5061014a61017536600461164a565b6001600160a01b03166000908152600460209081526040808320548352600590915290206008015462010000900460ff1690565b3480156101b557600080fd5b506100f26101c436600461164a565b6109a2565b6100f26101d73660046116a5565b6109f0565b6100f26101ea3660046117b9565b610d1d565b3480156101fb57600080fd5b506100f261020a3660046117a1565b6000908152600560205260409020600801805462ff0000191662010000179055565b34801561023857600080fd5b5061024260015481565b604051908152602001610121565b34801561025c57600080fd5b50600054610270906001600160a01b031681565b6040516001600160a01b039091168152602001610121565b34801561029457600080fd5b506102426102a336600461164a565b60046020526000908152604090205481565b3480156102c157600080fd5b506102426102d03660046117a1565b61103f565b3480156102e157600080fd5b506102426102f036600461164a565b6001600160a01b031660009081526004602052604090205490565b34801561031757600080fd5b506100f26103263660046117a1565b6000908152600560205260409020600801805460ff19166001179055565b34801561035057600080fd5b50600354610270906001600160a01b031681565b34801561037057600080fd5b506100f261037f36600461166d565b6111c8565b34801561039057600080fd5b506103a461039f3660046117a1565b6112f1565b6040516101219b9a9998979695949392919061194a565b604080516101608101825260008082526020820181905291810182905260608082018390526080820183905260a0820183905260c082015260e08101829052610100810182905261012081018290526101408101919091526000828152600560208181526040928390208351610160810185528154815260018201546001600160a01b039081169382019390935260028201549092169382019390935260038301546060820152600483015460808201529082015460a082015260068201805491929160c08401919061048d90611a5a565b80601f01602080910402602001604051908101604052809291908181526020018280546104b990611a5a565b80156105065780601f106104db57610100808354040283529160200191610506565b820191906000526020600020905b8154815290600101906020018083116104e957829003601f168201915b50505091835250506007820154602082015260089091015460ff8082161515604084015261010082048116151560608401526201000090910416151560809091015292915050565b33600090815260046020818152604080842054845260058083528185208251610160810184528154815260018201546001600160a01b0390811695820195909552600282015490941692840192909252600382015460608401529281015460808301529182015460a08201526006820180548593859392909160c0840191906105d690611a5a565b80601f016020809104026020016040519081016040528092919081815260200182805461060290611a5a565b801561064f5780601f106106245761010080835404028352916020019161064f565b820191906000526020600020905b81548152906001019060200180831161063257829003601f168201915b50505091835250506007820154602082015260089091015460ff8082161515604084015261010082048116151560608401526201000090910416151560809091015261014081015190915061071f5760405162461bcd60e51b8152602060048201526044602482018190527f43616e6e6f742072657475726e207061796f75747320666f722061206d617463908201527f6865642062696420756e74696c2074686520726573756c7473206172652066696064820152633730b61760e11b608482015260a4015b60405180910390fd5b806101200151158015610747575080602001516001600160a01b0316826001600160a01b0316145b1561083a5761077b6040518060400160405280600e81526020016d4e6f206368616c6c656e6765722160901b8152506113e6565b606081015160408083015190516000916001600160a01b03169083908381818185875af1925050503d80600081146107cf576040519150601f19603f3d011682016040523d82523d6000602084013e6107d4565b606091505b505090508061081c5760405162461bcd60e51b81526020600482015260146024820152732330b4b632b2103a379039b2b7321022ba3432b960611b6044820152606401610716565b61082e836020015184604001516111c8565b50600195945050505050565b816001600160a01b031681602001516001600160a01b031614801561086157508061010001515b156108ff576108926040518060400160405280600b81526020016a42696464657220776f6e2160a81b8152506113e6565b6000816080015182606001516108a891906119ec565b6040519091506001600160a01b0384169082156108fc029083906000818181858888f193505050501580156108e1573d6000803e3d6000fd5b506108f4826020015183604001516111c8565b506001949350505050565b816001600160a01b031681604001516001600160a01b03161480156109275750806101000151155b1561095c576108926040518060400160405280600f81526020016e4368616c6c656e67657220776f6e2160881b8152506113e6565b61098660405180604001604052806009815260200168556e6361756768742160b81b8152506113e6565b610998816020015182604001516111c8565b5060009392505050565b600380546001600160a01b0319166001600160a01b03831690811790915560408051808201909152600d81526c23b0b6b29030b2323932b9b99d60991b60208201526109ed91611429565b50565b336000908152600460209081526040808320548352600590915290206008015462010000900460ff16151560011415610a7b5760405162461bcd60e51b815260206004820152602760248201527f54686973206164647265737320616c72656164792068617320616e20616374696044820152663b32903134b21760c91b6064820152608401610716565b33600090815260046020526040902054610bb557600061010082018190526101208201819052610140820181905260018054808452825260056020818152604093849020855181558186015193810180546001600160a01b03199081166001600160a01b039687161790915594860151600282018054909616941693909317909355606084015160038301556080840151600483015560a08401519082015560c083015180518493610b349260068501929101906114d4565b5060e0820151600782015561010080830151600890920180546101208501516101409095015161ffff1990911693151561ff001916939093179315159091029290921762ff00001916620100009115159190910217905560018054336000908152600460205260408120829055909190610bad83611a95565b919050555050565b3360009081526004602052604090205415801590610bfd5750336000908152600460209081526040808320548352600590915290206008015462010000900460ff1615156001145b156109ed576000610100820181905261012082018190526101408201819052600180548352338252600460208181526040808520548552600580835294819020865181558287015194810180546001600160a01b03199081166001600160a01b03978816179091559187015160028201805490931695169490941790556060850151600384015560808501519183019190915560a08401519282019290925560c083015180518493610cb69260068501929101906114d4565b5060e0820151600782015561010080830151600890920180546101208501516101409095015161ffff1990911693151561ff001916939093179315159091029290921762ff00001916620100009115159190910217905560018054906000610bad83611a95565b610d3f604051806060016040528060218152602001611af26021913933611429565b6001600160a01b0380821660009081526004602081815260408084208790558684526005808352818520825161016081018452815481526001820154881694810194909452600281015490961691830191909152600385015460608301529184015460808201529083015460a08201526006830180549293919260c084019190610dc890611a5a565b80601f0160208091040260200160405190810160405280929190818152602001828054610df490611a5a565b8015610e415780601f10610e1657610100808354040283529160200191610e41565b820191906000526020600020905b815481529060010190602001808311610e2457829003601f168201915b50505091835250506007820154602082015260089091015460ff8082161515604084015261010082048116151560608401526201000090910416151560809091015261012081015190915015610ee35760405162461bcd60e51b815260206004820152602160248201527f546869732062696420616c7265616479206861732061206368616c6c656e67656044820152603960f91b6064820152608401610716565b6000610eee8461103f565b60008581526005602081815260408084206002810180546001600160a01b038b166001600160a01b03199091161790556004810186905560088101805461ff0019166101001790558151808301909252600b82526a2134b21030b6b7bab73a1d60a91b8284015293899052919052600390910154919250610f6e91611472565b610fef604051806040016040528060158152602001742134b217b1b430b63632b733b2b9103930ba34b79d60591b81525060056000878152602001908152602001600020600501546064610fc29190611a43565b60008781526005602081905260409091200154610fe0906064611a24565b610fea9190611a04565b611472565b6110396040518060400160405280601281526020017121b430b63632b733b2b91030b6b7bab73a1d60711b8152506005600087815260200190815260200160002060040154611472565b50505050565b60008181526005602081815260408084208151610160810183528154815260018201546001600160a01b039081169482019490945260028201549093169183019190915260038101546060830152600481015460808301529182015460a082015260068201805484939160c08401916110b790611a5a565b80601f01602080910402602001604051908101604052809291908181526020018280546110e390611a5a565b80156111305780601f1061110557610100808354040283529160200191611130565b820191906000526020600020905b81548152906001019060200180831161111357829003601f168201915b50505091835250506007820154602082015260089091015460ff8082161515604084015261010082048116151560608401526201000090910416151560809091015260a0810151909150600090611188816064611a43565b61119490612710611a24565b61119e9190611a04565b905060006127108284606001516111b59190611a24565b6111bf9190611a04565b95945050505050565b6001600160a01b038216600090815260046020818152604080842054845260059182905283208381556001810180546001600160a01b03199081169091556002820180549091169055600381018490559182018390558101829055906112316006830182611558565b506000600782018190556008909101805462ffffff191690556001600160a01b03808416825260046020818152604080852085905592851684528284205484526005908190529183208381556001810180546001600160a01b0319908116909155600282018054909116905560038101849055908101839055908101829055906112be6006830182611558565b506000600782018190556008909101805462ffffff191690556001600160a01b0390911681526004602052604081205550565b6005602081905260009182526040909120805460018201546002830154600384015460048501549585015460068601805495976001600160a01b039586169795909416959294919261134290611a5a565b80601f016020809104026020016040519081016040528092919081815260200182805461136e90611a5a565b80156113bb5780601f10611390576101008083540402835291602001916113bb565b820191906000526020600020905b81548152906001019060200180831161139e57829003601f168201915b50505050600783015460089093015491929160ff80821692506101008204811691620100009004168b565b6109ed816040516024016113fa9190611828565b60408051601f198184030181529190526020810180516001600160e01b031663104c13eb60e21b1790526114b3565b61146e828260405160240161143f92919061183b565b60408051601f198184030181529190526020810180516001600160e01b031663319af33360e01b1790526114b3565b5050565b61146e8282604051602401611488929190611865565b60408051601f198184030181529190526020810180516001600160e01b03166309710a9d60e41b1790525b80516a636f6e736f6c652e6c6f67602083016000808483855afa5050505050565b8280546114e090611a5a565b90600052602060002090601f0160209004810192826115025760008555611548565b82601f1061151b57805160ff1916838001178555611548565b82800160010185558215611548579182015b8281111561154857825182559160200191906001019061152d565b5061155492915061158e565b5090565b50805461156490611a5a565b6000825580601f10611574575050565b601f0160209004906000526020600020908101906109ed91905b5b80821115611554576000815560010161158f565b80356115ae81611adc565b919050565b803580151581146115ae57600080fd5b600082601f8301126115d3578081fd5b813567ffffffffffffffff808211156115ee576115ee611ac6565b604051601f8301601f19908116603f0116810190828211818310171561161657611616611ac6565b8160405283815286602085880101111561162e578485fd5b8360208701602083013792830160200193909352509392505050565b60006020828403121561165b578081fd5b813561166681611adc565b9392505050565b6000806040838503121561167f578081fd5b823561168a81611adc565b9150602083013561169a81611adc565b809150509250929050565b6000602082840312156116b6578081fd5b813567ffffffffffffffff808211156116cd578283fd5b9083019061016082860312156116e1578283fd5b6116e96119c2565b823581526116f9602084016115a3565b602082015261170a604084016115a3565b6040820152606083013560608201526080830135608082015260a083013560a082015260c08301358281111561173e578485fd5b61174a878286016115c3565b60c08301525060e083013560e0820152610100915061176a8284016115b3565b82820152610120915061177e8284016115b3565b8282015261014091506117928284016115b3565b91810191909152949350505050565b6000602082840312156117b2578081fd5b5035919050565b600080604083850312156117cb578182fd5b82359150602083013561169a81611adc565b60008151808452815b81811015611802576020818501810151868301820152016117e6565b818111156118135782602083870101525b50601f01601f19169290920160200192915050565b60208152600061166660208301846117dd565b60408152600061184e60408301856117dd565b905060018060a01b03831660208301529392505050565b60408152600061187860408301856117dd565b90508260208301529392505050565b6020815281516020820152600060208301516118ae60408401826001600160a01b03169052565b5060408301516001600160a01b03811660608401525060608301516080830152608083015160a083015260a083015160c083015260c08301516101608060e08501526118fe6101808501836117dd565b60e0860151610100868101919091528601519092506101206119238187018315159052565b86015190506101406119388682018315159052565b90950151151593019290925250919050565b8b81526001600160a01b038b811660208301528a166040820152606081018990526080810188905260a0810187905261016060c08201819052600090611992838201896117dd565b60e08401979097525050921515610100840152901515610120830152151561014090910152979650505050505050565b604051610160810167ffffffffffffffff811182821017156119e6576119e6611ac6565b60405290565b600082198211156119ff576119ff611ab0565b500190565b600082611a1f57634e487b7160e01b81526012600452602481fd5b500490565b6000816000190483118215151615611a3e57611a3e611ab0565b500290565b600082821015611a5557611a55611ab0565b500390565b600181811c90821680611a6e57607f821691505b60208210811415611a8f57634e487b7160e01b600052602260045260246000fd5b50919050565b6000600019821415611aa957611aa9611ab0565b5060010190565b634e487b7160e01b600052601160045260246000fd5b634e487b7160e01b600052604160045260246000fd5b6001600160a01b03811681146109ed57600080fdfe416464726573732073656e64696e6720696e20746865206368616c6c656e67653aa264697066735822122013530048393362ded2f57681f7191def7cea4c91312647e00a27ad757196104c64736f6c63430008040033",
  "linkReferences": {},
  "deployedLinkReferences": {}
}