{
  "_format": "hh-sol-artifact-1",
  "contractName": "GameManager",
  "sourceName": "contracts/GameManager.sol",
  "abi": [
    {
      "inputs": [
        {
          "components": [
            {
              "internalType": "uint256",
              "name": "id",
              "type": "uint256"
            },
            {
              "internalType": "string",
              "name": "homeTeam",
              "type": "string"
            },
            {
              "internalType": "string",
              "name": "awayTeam",
              "type": "string"
            },
            {
              "internalType": "uint256",
              "name": "homeScore",
              "type": "uint256"
            },
            {
              "internalType": "uint256",
              "name": "awayScore",
              "type": "uint256"
            },
            {
              "internalType": "bool",
              "name": "isFinal",
              "type": "bool"
            },
            {
              "internalType": "bool",
              "name": "isLocked",
              "type": "bool"
            },
            {
              "internalType": "uint256",
              "name": "startTime",
              "type": "uint256"
            }
          ],
          "internalType": "struct GameManager.Game",
          "name": "gm",
          "type": "tuple"
        }
      ],
      "name": "createGame",
      "outputs": [
        {
          "internalType": "bool",
          "name": "",
          "type": "bool"
        }
      ],
      "stateMutability": "nonpayable",
      "type": "function"
    },
    {
      "inputs": [
        {
          "internalType": "uint256",
          "name": "",
          "type": "uint256"
        }
      ],
      "name": "gameList",
      "outputs": [
        {
          "internalType": "uint256",
          "name": "id",
          "type": "uint256"
        },
        {
          "internalType": "string",
          "name": "homeTeam",
          "type": "string"
        },
        {
          "internalType": "string",
          "name": "awayTeam",
          "type": "string"
        },
        {
          "internalType": "uint256",
          "name": "homeScore",
          "type": "uint256"
        },
        {
          "internalType": "uint256",
          "name": "awayScore",
          "type": "uint256"
        },
        {
          "internalType": "bool",
          "name": "isFinal",
          "type": "bool"
        },
        {
          "internalType": "bool",
          "name": "isLocked",
          "type": "bool"
        },
        {
          "internalType": "uint256",
          "name": "startTime",
          "type": "uint256"
        }
      ],
      "stateMutability": "view",
      "type": "function"
    },
    {
      "inputs": [
        {
          "internalType": "uint256",
          "name": "id",
          "type": "uint256"
        }
      ],
      "name": "getGame",
      "outputs": [
        {
          "components": [
            {
              "internalType": "uint256",
              "name": "id",
              "type": "uint256"
            },
            {
              "internalType": "string",
              "name": "homeTeam",
              "type": "string"
            },
            {
              "internalType": "string",
              "name": "awayTeam",
              "type": "string"
            },
            {
              "internalType": "uint256",
              "name": "homeScore",
              "type": "uint256"
            },
            {
              "internalType": "uint256",
              "name": "awayScore",
              "type": "uint256"
            },
            {
              "internalType": "bool",
              "name": "isFinal",
              "type": "bool"
            },
            {
              "internalType": "bool",
              "name": "isLocked",
              "type": "bool"
            },
            {
              "internalType": "uint256",
              "name": "startTime",
              "type": "uint256"
            }
          ],
          "internalType": "struct GameManager.Game",
          "name": "gm",
          "type": "tuple"
        }
      ],
      "stateMutability": "view",
      "type": "function"
    },
    {
      "inputs": [
        {
          "internalType": "uint256",
          "name": "id",
          "type": "uint256"
        }
      ],
      "name": "lockGame",
      "outputs": [
        {
          "internalType": "bool",
          "name": "",
          "type": "bool"
        }
      ],
      "stateMutability": "nonpayable",
      "type": "function"
    },
    {
      "inputs": [],
      "name": "owner",
      "outputs": [
        {
          "internalType": "address",
          "name": "",
          "type": "address"
        }
      ],
      "stateMutability": "view",
      "type": "function"
    },
    {
      "inputs": [
        {
          "internalType": "uint256",
          "name": "id",
          "type": "uint256"
        }
      ],
      "name": "unlockGame",
      "outputs": [
        {
          "internalType": "bool",
          "name": "",
          "type": "bool"
        }
      ],
      "stateMutability": "nonpayable",
      "type": "function"
    },
    {
      "inputs": [
        {
          "internalType": "uint256",
          "name": "id",
          "type": "uint256"
        },
        {
          "internalType": "uint256",
          "name": "homeScore",
          "type": "uint256"
        },
        {
          "internalType": "uint256",
          "name": "awayScore",
          "type": "uint256"
        }
      ],
      "name": "updateGameScore",
      "outputs": [
        {
          "internalType": "bool",
          "name": "",
          "type": "bool"
        }
      ],
      "stateMutability": "nonpayable",
      "type": "function"
    }
  ],
  "bytecode": "0x608060405260008055600280546001600160a01b0319163317905534801561002657600080fd5b50610a0b806100366000396000f3fe608060405234801561001057600080fd5b506004361061007d5760003560e01c8063a09495951161005b578063a094959514610102578063a2f77bcc14610143578063b1f0417814610163578063c6cfd08e1461019457600080fd5b80631c85e9371461008257806323e449c3146100c45780638da5cb5b146100d7575b600080fd5b6100af6100903660046107b9565b6000908152600360205260409020600501805461ff0019169055600190565b60405190151581526020015b60405180910390f35b6100af6100d23660046106df565b6101bb565b6002546100ea906001600160a01b031681565b6040516001600160a01b0390911681526020016100bb565b6100af6101103660046107d1565b600092835260036020819052604090932060058101805460ff191660019081179091559381019290925560049091015590565b6101566101513660046107b9565b610274565b6040516100bb9190610847565b6100af6101713660046107b9565b6000908152600360205260409020600501805461ff001916610100179055600190565b6101a76101a23660046107b9565b610451565b6040516100bb9897969594939291906108d7565b60008054808352815260036020908152604082208351815581840151805185936101ec9260018501929101906105aa565b50604082015180516102089160028401916020909101906105aa565b50606082015160038201556080820151600482015560a082015160058201805460c085015115156101000261ff00199315159390931661ffff199091161791909117905560e09091015160069091015560008054908061026783610998565b9091555060019392505050565b6102c06040518061010001604052806000815260200160608152602001606081526020016000815260200160008152602001600015158152602001600015158152602001600081525090565b6003600083815260200190815260200160002060405180610100016040529081600082015481526020016001820180546102f99061095d565b80601f01602080910402602001604051908101604052809291908181526020018280546103259061095d565b80156103725780601f1061034757610100808354040283529160200191610372565b820191906000526020600020905b81548152906001019060200180831161035557829003601f168201915b5050505050815260200160028201805461038b9061095d565b80601f01602080910402602001604051908101604052809291908181526020018280546103b79061095d565b80156104045780601f106103d957610100808354040283529160200191610404565b820191906000526020600020905b8154815290600101906020018083116103e757829003601f168201915b50505091835250506003820154602082015260048201546040820152600582015460ff80821615156060840152610100909104161515608082015260069091015460a09091015292915050565b600360205260009081526040902080546001820180549192916104739061095d565b80601f016020809104026020016040519081016040528092919081815260200182805461049f9061095d565b80156104ec5780601f106104c1576101008083540402835291602001916104ec565b820191906000526020600020905b8154815290600101906020018083116104cf57829003601f168201915b5050505050908060020180546105019061095d565b80601f016020809104026020016040519081016040528092919081815260200182805461052d9061095d565b801561057a5780601f1061054f5761010080835404028352916020019161057a565b820191906000526020600020905b81548152906001019060200180831161055d57829003601f168201915b505050506003830154600484015460058501546006909501549394919390925060ff808316926101009004169088565b8280546105b69061095d565b90600052602060002090601f0160209004810192826105d8576000855561061e565b82601f106105f157805160ff191683800117855561061e565b8280016001018555821561061e579182015b8281111561061e578251825591602001919060010190610603565b5061062a92915061062e565b5090565b5b8082111561062a576000815560010161062f565b8035801515811461065357600080fd5b919050565b600082601f830112610668578081fd5b813567ffffffffffffffff80821115610683576106836109bf565b604051601f8301601f19908116603f011681019082821181831017156106ab576106ab6109bf565b816040528381528660208588010111156106c3578485fd5b8360208701602083013792830160200193909352509392505050565b6000602082840312156106f0578081fd5b813567ffffffffffffffff80821115610707578283fd5b90830190610100828603121561071b578283fd5b610723610933565b82358152602083013582811115610738578485fd5b61074487828601610658565b60208301525060408301358281111561075b578485fd5b61076787828601610658565b604083015250606083013560608201526080830135608082015261078d60a08401610643565b60a082015261079e60c08401610643565b60c082015260e083013560e082015280935050505092915050565b6000602082840312156107ca578081fd5b5035919050565b6000806000606084860312156107e5578182fd5b505081359360208301359350604090920135919050565b60008151808452815b8181101561082157602081850181015186830182015201610805565b818111156108325782602083870101525b50601f01601f19169290920160200192915050565b6020815281516020820152600060208301516101008060408501526108706101208501836107fc565b91506040850151601f1985840301606086015261088d83826107fc565b92505060608501516080850152608085015160a085015260a0850151151560c085015260c08501516108c360e086018215159052565b5060e0949094015192909301919091525090565b60006101008a83528060208401526108f18184018b6107fc565b90508281036040840152610905818a6107fc565b60608401989098525050608081019490945291151560a0840152151560c083015260e0909101529392505050565b604051610100810167ffffffffffffffff81118282101715610957576109576109bf565b60405290565b600181811c9082168061097157607f821691505b6020821081141561099257634e487b7160e01b600052602260045260246000fd5b50919050565b60006000198214156109b857634e487b7160e01b81526011600452602481fd5b5060010190565b634e487b7160e01b600052604160045260246000fdfea2646970667358221220399c61d72c9b132f3e3791c293c616716e27d50b8a8177cb963b92171f74fa5c64736f6c63430008040033",
  "linkReferences": {},
  "deployedLinkReferences": {}
}