{
    "_format": "hh-sol-artifact-1",
    "contractName": "GameManager",
    "sourceName": "contracts/GameManager.sol",
    "abi": [
        {
            "inputs": [
                {
                    "components": [
                        {
                            "internalType": "string",
                            "name": "homeTeam",
                            "type": "string"
                        },
                        {
                            "internalType": "string",
                            "name": "awayTeam",
                            "type": "string"
                        },
                        {
                            "internalType": "uint256",
                            "name": "homeScore",
                            "type": "uint256"
                        },
                        {
                            "internalType": "uint256",
                            "name": "awayScore",
                            "type": "uint256"
                        },
                        {
                            "internalType": "bool",
                            "name": "isFinal",
                            "type": "bool"
                        },
                        {
                            "internalType": "bool",
                            "name": "isLocked",
                            "type": "bool"
                        },
                        {
                            "internalType": "uint256",
                            "name": "startTime",
                            "type": "uint256"
                        }
                    ],
                    "internalType": "struct GameManager.Game",
                    "name": "gm",
                    "type": "tuple"
                }
            ],
            "name": "createGame",
            "outputs": [
                {
                    "internalType": "bool",
                    "name": "",
                    "type": "bool"
                }
            ],
            "stateMutability": "nonpayable",
            "type": "function"
        },
        {
            "inputs": [
                {
                    "internalType": "uint256",
                    "name": "",
                    "type": "uint256"
                }
            ],
            "name": "gameList",
            "outputs": [
                {
                    "internalType": "string",
                    "name": "homeTeam",
                    "type": "string"
                },
                {
                    "internalType": "string",
                    "name": "awayTeam",
                    "type": "string"
                },
                {
                    "internalType": "uint256",
                    "name": "homeScore",
                    "type": "uint256"
                },
                {
                    "internalType": "uint256",
                    "name": "awayScore",
                    "type": "uint256"
                },
                {
                    "internalType": "bool",
                    "name": "isFinal",
                    "type": "bool"
                },
                {
                    "internalType": "bool",
                    "name": "isLocked",
                    "type": "bool"
                },
                {
                    "internalType": "uint256",
                    "name": "startTime",
                    "type": "uint256"
                }
            ],
            "stateMutability": "view",
            "type": "function"
        },
        {
            "inputs": [
                {
                    "internalType": "uint256",
                    "name": "id",
                    "type": "uint256"
                }
            ],
            "name": "getGame",
            "outputs": [
                {
                    "components": [
                        {
                            "internalType": "string",
                            "name": "homeTeam",
                            "type": "string"
                        },
                        {
                            "internalType": "string",
                            "name": "awayTeam",
                            "type": "string"
                        },
                        {
                            "internalType": "uint256",
                            "name": "homeScore",
                            "type": "uint256"
                        },
                        {
                            "internalType": "uint256",
                            "name": "awayScore",
                            "type": "uint256"
                        },
                        {
                            "internalType": "bool",
                            "name": "isFinal",
                            "type": "bool"
                        },
                        {
                            "internalType": "bool",
                            "name": "isLocked",
                            "type": "bool"
                        },
                        {
                            "internalType": "uint256",
                            "name": "startTime",
                            "type": "uint256"
                        }
                    ],
                    "internalType": "struct GameManager.Game",
                    "name": "gm",
                    "type": "tuple"
                }
            ],
            "stateMutability": "view",
            "type": "function"
        },
        {
            "inputs": [
                {
                    "internalType": "uint256",
                    "name": "id",
                    "type": "uint256"
                }
            ],
            "name": "lockGame",
            "outputs": [
                {
                    "internalType": "bool",
                    "name": "",
                    "type": "bool"
                }
            ],
            "stateMutability": "nonpayable",
            "type": "function"
        },
        {
            "inputs": [],
            "name": "owner",
            "outputs": [
                {
                    "internalType": "address",
                    "name": "",
                    "type": "address"
                }
            ],
            "stateMutability": "view",
            "type": "function"
        },
        {
            "inputs": [
                {
                    "internalType": "uint256",
                    "name": "id",
                    "type": "uint256"
                }
            ],
            "name": "unlockGame",
            "outputs": [
                {
                    "internalType": "bool",
                    "name": "",
                    "type": "bool"
                }
            ],
            "stateMutability": "nonpayable",
            "type": "function"
        },
        {
            "inputs": [
                {
                    "internalType": "uint256",
                    "name": "id",
                    "type": "uint256"
                },
                {
                    "internalType": "uint256",
                    "name": "homeScore",
                    "type": "uint256"
                },
                {
                    "internalType": "uint256",
                    "name": "awayScore",
                    "type": "uint256"
                }
            ],
            "name": "updateGameScore",
            "outputs": [
                {
                    "internalType": "bool",
                    "name": "",
                    "type": "bool"
                }
            ],
            "stateMutability": "nonpayable",
            "type": "function"
        }
    ],
    "bytecode": "0x608060405260008055600280546001600160a01b0319163317905534801561002657600080fd5b506109b5806100366000396000f3fe608060405234801561001057600080fd5b506004361061007d5760003560e01c8063a2f77bcc1161005b578063a2f77bcc14610133578063b1f0417814610153578063c6cfd08e14610184578063e921c6f1146101aa57600080fd5b80631c85e937146100825780638da5cb5b146100c4578063a0949595146100ef575b600080fd5b6100af610090366004610781565b6000908152600360205260409020600401805461ff0019169055600190565b60405190151581526020015b60405180910390f35b6002546100d7906001600160a01b031681565b6040516001600160a01b0390911681526020016100bb565b6100af6100fd366004610799565b600083815260036020819052604090912060048101805460ff191660019081179091556002820185905591018290559392505050565b610146610141366004610781565b6101bd565b6040516100bb9190610861565b6100af610161366004610781565b6000908152600360205260409020600401805461ff001916610100179055600190565b610197610192366004610781565b610381565b6040516100bb979695949392919061080f565b6100af6101b83660046106b2565b6104d3565b6102016040518060e0016040528060608152602001606081526020016000815260200160008152602001600015158152602001600015158152602001600081525090565b60008281526003602052604090819020815160e0810190925280548290829061022990610907565b80601f016020809104026020016040519081016040528092919081815260200182805461025590610907565b80156102a25780601f10610277576101008083540402835291602001916102a2565b820191906000526020600020905b81548152906001019060200180831161028557829003601f168201915b505050505081526020016001820180546102bb90610907565b80601f01602080910402602001604051908101604052809291908181526020018280546102e790610907565b80156103345780601f1061030957610100808354040283529160200191610334565b820191906000526020600020905b81548152906001019060200180831161031757829003601f168201915b50505091835250506002820154602082015260038201546040820152600482015460ff80821615156060840152610100909104161515608082015260059091015460a09091015292915050565b60036020526000908152604090208054819061039c90610907565b80601f01602080910402602001604051908101604052809291908181526020018280546103c890610907565b80156104155780601f106103ea57610100808354040283529160200191610415565b820191906000526020600020905b8154815290600101906020018083116103f857829003601f168201915b50505050509080600101805461042a90610907565b80601f016020809104026020016040519081016040528092919081815260200182805461045690610907565b80156104a35780601f10610478576101008083540402835291602001916104a3565b820191906000526020600020905b81548152906001019060200180831161048657829003601f168201915b505050506002830154600384015460048501546005909501549394919390925060ff808316926101009004169087565b60008054815260036020908152604082208351805185936104f892849291019061057d565b506020828101518051610511926001850192019061057d565b506040820151600282015560608201516003820155608082015160048201805460a085015115156101000261ff00199315159390931661ffff199091161791909117905560c09091015160059091015560008054908061057083610942565b9091555060019392505050565b82805461058990610907565b90600052602060002090601f0160209004810192826105ab57600085556105f1565b82601f106105c457805160ff19168380011785556105f1565b828001600101855582156105f1579182015b828111156105f15782518255916020019190600101906105d6565b506105fd929150610601565b5090565b5b808211156105fd5760008155600101610602565b8035801515811461062657600080fd5b919050565b600082601f83011261063b578081fd5b813567ffffffffffffffff8082111561065657610656610969565b604051601f8301601f19908116603f0116810190828211818310171561067e5761067e610969565b81604052838152866020858801011115610696578485fd5b8360208701602083013792830160200193909352509392505050565b6000602082840312156106c3578081fd5b813567ffffffffffffffff808211156106da578283fd5b9083019060e082860312156106ed578283fd5b6106f56108de565b823582811115610703578485fd5b61070f8782860161062b565b825250602083013582811115610723578485fd5b61072f8782860161062b565b602083015250604083013560408201526060830135606082015261075560808401610616565b608082015261076660a08401610616565b60a082015260c083013560c082015280935050505092915050565b600060208284031215610792578081fd5b5035919050565b6000806000606084860312156107ad578182fd5b505081359360208301359350604090920135919050565b60008151808452815b818110156107e9576020818501810151868301820152016107cd565b818111156107fa5782602083870101525b50601f01601f19169290920160200192915050565b60e08152600061082260e083018a6107c4565b8281036020840152610834818a6107c4565b6040840198909852505060608101949094529115156080840152151560a083015260c09091015292915050565b602081526000825160e0602084015261087e6101008401826107c4565b90506020840151601f1984830301604085015261089b82826107c4565b91505060408401516060840152606084015160808401526080840151151560a084015260a0840151151560c084015260c084015160e08401528091505092915050565b60405160e0810167ffffffffffffffff8111828210171561090157610901610969565b60405290565b600181811c9082168061091b57607f821691505b6020821081141561093c57634e487b7160e01b600052602260045260246000fd5b50919050565b600060001982141561096257634e487b7160e01b81526011600452602481fd5b5060010190565b634e487b7160e01b600052604160045260246000fdfea2646970667358221220a08d69eeeb382f0dff441328dfdfb70cba358428d4d30bfe615b1ea9b33f891e64736f6c63430008040033",
    "linkReferences": {},
    "deployedLinkReferences": {}
}