{
  "_format": "hh-sol-artifact-1",
  "contractName": "PredictionManager",
  "sourceName": "contracts/PredictionManager.sol",
  "abi": [
    {
      "stateMutability": "payable",
      "type": "fallback"
    },
    {
      "inputs": [
        {
          "internalType": "address",
          "name": "entityAddress",
          "type": "address"
        }
      ],
      "name": "bidWin",
      "outputs": [],
      "stateMutability": "nonpayable",
      "type": "function"
    },
    {
      "inputs": [
        {
          "internalType": "address",
          "name": "entityAddress",
          "type": "address"
        }
      ],
      "name": "deleteBid",
      "outputs": [
        {
          "internalType": "bool",
          "name": "success",
          "type": "bool"
        }
      ],
      "stateMutability": "nonpayable",
      "type": "function"
    },
    {
      "inputs": [
        {
          "internalType": "address",
          "name": "entityAddress",
          "type": "address"
        }
      ],
      "name": "foo",
      "outputs": [
        {
          "internalType": "bool",
          "name": "",
          "type": "bool"
        }
      ],
      "stateMutability": "nonpayable",
      "type": "function"
    },
    {
      "inputs": [],
      "name": "game_addr",
      "outputs": [
        {
          "internalType": "address",
          "name": "",
          "type": "address"
        }
      ],
      "stateMutability": "view",
      "type": "function"
    },
    {
      "inputs": [
        {
          "internalType": "address",
          "name": "addr",
          "type": "address"
        }
      ],
      "name": "getGameContractAddress",
      "outputs": [],
      "stateMutability": "nonpayable",
      "type": "function"
    },
    {
      "inputs": [
        {
          "internalType": "address",
          "name": "entityAddress",
          "type": "address"
        }
      ],
      "name": "getMultiplier",
      "outputs": [
        {
          "internalType": "uint256",
          "name": "response",
          "type": "uint256"
        }
      ],
      "stateMutability": "view",
      "type": "function"
    },
    {
      "inputs": [],
      "name": "getPredCount",
      "outputs": [
        {
          "internalType": "uint256",
          "name": "predsCount",
          "type": "uint256"
        }
      ],
      "stateMutability": "view",
      "type": "function"
    },
    {
      "inputs": [
        {
          "internalType": "address",
          "name": "entityAddress",
          "type": "address"
        }
      ],
      "name": "hasBid",
      "outputs": [
        {
          "internalType": "bool",
          "name": "",
          "type": "bool"
        }
      ],
      "stateMutability": "view",
      "type": "function"
    },
    {
      "inputs": [
        {
          "internalType": "address",
          "name": "entityAddress",
          "type": "address"
        }
      ],
      "name": "makeFinal",
      "outputs": [],
      "stateMutability": "nonpayable",
      "type": "function"
    },
    {
      "inputs": [
        {
          "components": [
            {
              "internalType": "address payable",
              "name": "bidAddr",
              "type": "address"
            },
            {
              "internalType": "address payable",
              "name": "challengerAddr",
              "type": "address"
            },
            {
              "internalType": "uint256",
              "name": "bidAmount",
              "type": "uint256"
            },
            {
              "internalType": "uint256",
              "name": "challengerAmount",
              "type": "uint256"
            },
            {
              "internalType": "uint256",
              "name": "bidOdds",
              "type": "uint256"
            },
            {
              "internalType": "string",
              "name": "gameWinner",
              "type": "string"
            },
            {
              "internalType": "uint256",
              "name": "gameID",
              "type": "uint256"
            },
            {
              "internalType": "bool",
              "name": "bidWin",
              "type": "bool"
            },
            {
              "internalType": "bool",
              "name": "hasChallenger",
              "type": "bool"
            },
            {
              "internalType": "bool",
              "name": "isFinal",
              "type": "bool"
            },
            {
              "internalType": "uint256",
              "name": "listPointer",
              "type": "uint256"
            }
          ],
          "internalType": "struct PredictionManager.Prediction",
          "name": "pred",
          "type": "tuple"
        }
      ],
      "name": "newBid",
      "outputs": [
        {
          "internalType": "bool",
          "name": "success",
          "type": "bool"
        }
      ],
      "stateMutability": "payable",
      "type": "function"
    },
    {
      "inputs": [],
      "name": "owner",
      "outputs": [
        {
          "internalType": "address",
          "name": "",
          "type": "address"
        }
      ],
      "stateMutability": "view",
      "type": "function"
    },
    {
      "inputs": [],
      "name": "predId",
      "outputs": [
        {
          "internalType": "uint256",
          "name": "",
          "type": "uint256"
        }
      ],
      "stateMutability": "view",
      "type": "function"
    },
    {
      "inputs": [
        {
          "internalType": "uint256",
          "name": "",
          "type": "uint256"
        }
      ],
      "name": "predList",
      "outputs": [
        {
          "internalType": "address",
          "name": "",
          "type": "address"
        }
      ],
      "stateMutability": "view",
      "type": "function"
    },
    {
      "inputs": [
        {
          "internalType": "address",
          "name": "",
          "type": "address"
        }
      ],
      "name": "predictions",
      "outputs": [
        {
          "internalType": "address payable",
          "name": "bidAddr",
          "type": "address"
        },
        {
          "internalType": "address payable",
          "name": "challengerAddr",
          "type": "address"
        },
        {
          "internalType": "uint256",
          "name": "bidAmount",
          "type": "uint256"
        },
        {
          "internalType": "uint256",
          "name": "challengerAmount",
          "type": "uint256"
        },
        {
          "internalType": "uint256",
          "name": "bidOdds",
          "type": "uint256"
        },
        {
          "internalType": "string",
          "name": "gameWinner",
          "type": "string"
        },
        {
          "internalType": "uint256",
          "name": "gameID",
          "type": "uint256"
        },
        {
          "internalType": "bool",
          "name": "bidWin",
          "type": "bool"
        },
        {
          "internalType": "bool",
          "name": "hasChallenger",
          "type": "bool"
        },
        {
          "internalType": "bool",
          "name": "isFinal",
          "type": "bool"
        },
        {
          "internalType": "uint256",
          "name": "listPointer",
          "type": "uint256"
        }
      ],
      "stateMutability": "view",
      "type": "function"
    },
    {
      "inputs": [
        {
          "internalType": "address payable",
          "name": "sourceAddr",
          "type": "address"
        },
        {
          "internalType": "uint256",
          "name": "pointer",
          "type": "uint256"
        }
      ],
      "name": "returnResults",
      "outputs": [
        {
          "internalType": "bool",
          "name": "success",
          "type": "bool"
        }
      ],
      "stateMutability": "nonpayable",
      "type": "function"
    },
    {
      "inputs": [
        {
          "internalType": "address",
          "name": "bidAddress",
          "type": "address"
        },
        {
          "internalType": "address payable",
          "name": "challengerAddr",
          "type": "address"
        }
      ],
      "name": "updateBidWithChallenger",
      "outputs": [],
      "stateMutability": "payable",
      "type": "function"
    },
    {
      "stateMutability": "payable",
      "type": "receive"
    }
  ],
  "bytecode": "0x6080604052600080546001600160a01b031990811633178255600191909155600280549091163017905534801561003557600080fd5b5061176f806100456000396000f3fe6080604052600436106100eb5760003560e01c8063c833f9fa11610084578063f02d087511610056578063f02d0875146102ec578063f51c004e1461030c578063f8bd97d71461031f578063fdf80bda1461033f57005b8063c833f9fa14610284578063d1aa657a146102a4578063d2639dbf146102b9578063ecd955cd146102d957005b806335fa61fa116100bd57806335fa61fa146101d157806380645265146102085780638da5cb5b1461022c578063a9d637e11461026457005b8063180698f1146100f4578063181fb704146101365780631ba636cf1461017c5780631bcd28bd146101b157005b366100f257005b005b34801561010057600080fd5b506100f261010f36600461134a565b6001600160a01b03166000908152600460205260409020600701805460ff19166001179055565b34801561014257600080fd5b506100f261015136600461134a565b6001600160a01b03166000908152600460205260409020600701805462ff0000191662010000179055565b34801561018857600080fd5b5061019c61019736600461136d565b6103ad565b60405190151581526020015b60405180910390f35b3480156101bd57600080fd5b506100f26101cc36600461134a565b610893565b3480156101dd57600080fd5b506101f16101ec36600461134a565b6108e1565b6040516101a89b9a9998979695949392919061152f565b34801561021457600080fd5b5061021e60015481565b6040519081526020016101a8565b34801561023857600080fd5b5060005461024c906001600160a01b031681565b6040516001600160a01b0390911681526020016101a8565b34801561027057600080fd5b5061021e61027f36600461134a565b6109d7565b34801561029057600080fd5b5060035461024c906001600160a01b031681565b3480156102b057600080fd5b5060055461021e565b3480156102c557600080fd5b5061019c6102d436600461134a565b610b65565b61019c6102e73660046113d0565b610bd2565b3480156102f857600080fd5b5061024c6103073660046114cc565b610d85565b6100f261031a366004611398565b610daf565b34801561032b57600080fd5b5061019c61033a36600461134a565b610ff7565b34801561034b57600080fd5b5061019c61035a36600461134a565b6005805460018101825560009182527f036b6384b5eca791c62761152d0c79bb0604c104a5fb6f4eb0703f3154bb3db00180546001600160a01b0319166001600160a01b03939093169290921790915590565b60008060046000600585815481106103d557634e487b7160e01b600052603260045260246000fd5b60009182526020808320909101546001600160a01b039081168452838201949094526040928301909120825161016081018452815485168152600182015490941691840191909152600281015491830191909152600381015460608301526004810154608083015260058101805460a0840191906104529061169c565b80601f016020809104026020016040519081016040528092919081815260200182805461047e9061169c565b80156104cb5780601f106104a0576101008083540402835291602001916104cb565b820191906000526020600020905b8154815290600101906020018083116104ae57829003601f168201915b505050918352505060068201546020820152600782015460ff80821615156040840152610100820481161515606084015262010000909104161515608082015260089091015460a090910152610120810151909150610599576040805162461bcd60e51b81526020600482015260248101919091527f43616e6e6f742072657475726e207061796f75747320666f722061206d61746360448201527f6865642062696420756e74696c207468652067616d652069732066696e616c2e60648201526084015b60405180910390fd5b8061010001511580156105b8575080516001600160a01b038581169116145b156106ab576105ec6040518060400160405280600e81526020016d4e6f206368616c6c656e6765722160901b81525061111c565b600081604001519050600082600001516001600160a01b03168260405160006040518083038185875af1925050503d8060008114610646576040519150601f19603f3d011682016040523d82523d6000602084013e61064b565b606091505b50509050806106935760405162461bcd60e51b81526020600482015260146024820152732330b4b632b2103a379039b2b7321022ba3432b960611b6044820152606401610590565b825161069e90610ff7565b506001935050505061088d565b836001600160a01b031681600001516001600160a01b03161480156106d157508060e001515b1561079a576107026040518060400160405280600b81526020016a42696464657220776f6e2160a81b81525061111c565b600081606001518260400151610718919061162e565b6040519091506001600160a01b0386169082156108fc029083906000818181858888f19350505050158015610751573d6000803e3d6000fd5b506107836040518060400160405280601081526020016f11195b195d1a5b99c81d1a1948189a5960821b81525061111c565b815161078e90610ff7565b5060019250505061088d565b836001600160a01b031681602001516001600160a01b03161480156107c157508060e00151155b15610851576107f66040518060400160405280600f81526020016e4368616c6c656e67657220776f6e2160881b81525061111c565b60008160600151826040015161080c919061162e565b6040519091506001600160a01b0386169082156108fc029083906000818181858888f19350505050158015610845573d6000803e3d6000fd5b50815161078e90610ff7565b61087b60405180604001604052806009815260200168556e6361756768742160b81b81525061111c565b805161088690610ff7565b5060009150505b92915050565b600380546001600160a01b0319166001600160a01b03831690811790915560408051808201909152600d81526c23b0b6b29030b2323932b9b99d60991b60208201526108de9161115f565b50565b60046020819052600091825260409091208054600182015460028301546003840154948401546005850180546001600160a01b03958616979490951695929491929161092c9061169c565b80601f01602080910402602001604051908101604052809291908181526020018280546109589061169c565b80156109a55780601f1061097a576101008083540402835291602001916109a5565b820191906000526020600020905b81548152906001019060200180831161098857829003601f168201915b50505050600683015460078401546008909401549293909260ff8083169350610100830481169262010000900416908b565b6001600160a01b038082166000908152600460208181526040808420815161016081018352815487168152600182015490961692860192909252600282015490850152600381015460608501529081015460808401526005810180549293849390929160a0840191610a489061169c565b80601f0160208091040260200160405190810160405280929190818152602001828054610a749061169c565b8015610ac15780601f10610a9657610100808354040283529160200191610ac1565b820191906000526020600020905b815481529060010190602001808311610aa457829003601f168201915b505050918352505060068201546020820152600782015460ff8082161515604084015261010082048116151560608401526201000090910416151560808083019190915260089092015460a090910152810151909150600090610b25816064611685565b610b3190612710611666565b610b3b9190611646565b90506000612710828460400151610b529190611666565b610b5c9190611646565b95945050505050565b600554600090610b7757506000919050565b6001600160a01b038216600081815260046020526040902060080154600580549091908110610bb657634e487b7160e01b600052603260045260246000fd5b6000918252602090912001546001600160a01b03161492915050565b6000610bdd33610b65565b15610c2a5760405162461bcd60e51b815260206004820152601e60248201527f54686973206164647265737320616c72656164792068617320612062696400006044820152606401610590565b600580546001818101835560008381527f036b6384b5eca791c62761152d0c79bb0604c104a5fb6f4eb0703f3154bb3db090920180546001600160a01b0319163390811790915585526101008501829052610120850182905260e08501919091529054610c979190611685565b61014083015233600090815260046020818152604092839020855181546001600160a01b039182166001600160a01b0319918216178355838801516001840180549190931691161790559285015160028401556060850151600384015560808501519183019190915560a08401518051859392610d1b92600585019291019061120a565b5060c0820151600682015560e08201516007820180546101008086015161012087015161ffff1990931694151561ff00191694909417931515029290921762ff00001916620100009215159290920291909117905561014090910151600890910155506001919050565b60058181548110610d9557600080fd5b6000918252602090912001546001600160a01b0316905081565b610dd1604051806060016040528060218152602001611719602191393361115f565b6001600160a01b0382811660009081526004602052604090206001810180546001600160a01b0319169284169290921790915560070154610100900460ff1615610e675760405162461bcd60e51b815260206004820152602160248201527f546869732062696420616c7265616479206861732061206368616c6c656e67656044820152603960f91b6064820152608401610590565b6000610e72836109d7565b6001600160a01b0384811660008181526004602081815260408084206001810180546001600160a01b031916978b16979097179096556003860187905560078601805462ffff001916620101001790558051808201909152600b81526a2134b21030b6b7bab73a1d60a91b81830152939092529052600290910154919250610ef9916111a8565b610f556040518060400160405280601281526020017121b430b63632b733b2b91030b6b7bab73a1d60711b81525060046000866001600160a01b03166001600160a01b03168152602001908152602001600020600301546111a8565b610ff2604051806040016040528060158152602001742134b217b1b430b63632b733b2b9103930ba34b79d60591b81525060046000866001600160a01b03166001600160a01b03168152602001908152602001600020600401546064610fbb9190611685565b6001600160a01b03861660009081526004602081905260409091200154610fe3906064611666565b610fed9190611646565b6111a8565b505050565b600061100282610b65565b61100b57600080fd5b6001600160a01b0382166000908152600460205260408120600801546005805491929161103a90600190611685565b8154811061105857634e487b7160e01b600052603260045260246000fd5b600091825260209091200154600580546001600160a01b03909216925082918490811061109557634e487b7160e01b600052603260045260246000fd5b600091825260208083209190910180546001600160a01b0319166001600160a01b03948516179055918316815260049091526040902060080182905560058054806110f057634e487b7160e01b600052603160045260246000fd5b600082815260209020810160001990810180546001600160a01b03191690550190555060019392505050565b6108de8160405160240161113091906115a5565b60408051601f198184030181529190526020810180516001600160e01b031663104c13eb60e21b1790526111e9565b6111a482826040516024016111759291906115b8565b60408051601f198184030181529190526020810180516001600160e01b031663319af33360e01b1790526111e9565b5050565b6111a482826040516024016111be9291906115e2565b60408051601f198184030181529190526020810180516001600160e01b03166309710a9d60e41b1790525b80516a636f6e736f6c652e6c6f67602083016000808483855afa5050505050565b8280546112169061169c565b90600052602060002090601f016020900481019282611238576000855561127e565b82601f1061125157805160ff191683800117855561127e565b8280016001018555821561127e579182015b8281111561127e578251825591602001919060010190611263565b5061128a92915061128e565b5090565b5b8082111561128a576000815560010161128f565b80356112ae81611703565b919050565b803580151581146112ae57600080fd5b600082601f8301126112d3578081fd5b813567ffffffffffffffff808211156112ee576112ee6116ed565b604051601f8301601f19908116603f01168101908282118183101715611316576113166116ed565b8160405283815286602085880101111561132e578485fd5b8360208701602083013792830160200193909352509392505050565b60006020828403121561135b578081fd5b813561136681611703565b9392505050565b6000806040838503121561137f578081fd5b823561138a81611703565b946020939093013593505050565b600080604083850312156113aa578182fd5b82356113b581611703565b915060208301356113c581611703565b809150509250929050565b6000602082840312156113e1578081fd5b813567ffffffffffffffff808211156113f8578283fd5b90830190610160828603121561140c578283fd5b611414611604565b61141d836112a3565b815261142b602084016112a3565b602082015260408301356040820152606083013560608201526080830135608082015260a08301358281111561145f578485fd5b61146b878286016112c3565b60a08301525060c083013560c082015261148760e084016112b3565b60e0820152610100915061149c8284016112b3565b8282015261012091506114b08284016112b3565b9181019190915261014091820135918101919091529392505050565b6000602082840312156114dd578081fd5b5035919050565b60008151808452815b81811015611509576020818501810151868301820152016114ed565b8181111561151a5782602083870101525b50601f01601f19169290920160200192915050565b6001600160a01b038c811682528b166020820152604081018a9052606081018990526080810188905261016060a082018190526000906115718382018a6114e4565b60c0840198909852505093151560e08501529115156101008401521515610120830152610140909101529695505050505050565b60208152600061136660208301846114e4565b6040815260006115cb60408301856114e4565b905060018060a01b03831660208301529392505050565b6040815260006115f560408301856114e4565b90508260208301529392505050565b604051610160810167ffffffffffffffff81118282101715611628576116286116ed565b60405290565b60008219821115611641576116416116d7565b500190565b60008261166157634e487b7160e01b81526012600452602481fd5b500490565b6000816000190483118215151615611680576116806116d7565b500290565b600082821015611697576116976116d7565b500390565b600181811c908216806116b057607f821691505b602082108114156116d157634e487b7160e01b600052602260045260246000fd5b50919050565b634e487b7160e01b600052601160045260246000fd5b634e487b7160e01b600052604160045260246000fd5b6001600160a01b03811681146108de57600080fdfe416464726573732073656e64696e6720696e20746865206368616c6c656e67653aa264697066735822122001dcdc12f9b0f776461cc30e18c4123c009c4adab8d49f07593f76e3f085a70964736f6c63430008040033",
  "linkReferences": {},
  "deployedLinkReferences": {}
}