{
  "_format": "hh-sol-artifact-1",
  "contractName": "PredictionManager",
  "sourceName": "contracts/PredictionManager.sol",
  "abi": [
    {
      "stateMutability": "payable",
      "type": "fallback"
    },
    {
      "inputs": [
        {
          "internalType": "address",
          "name": "",
          "type": "address"
        }
      ],
      "name": "addressBook",
      "outputs": [
        {
          "internalType": "uint256",
          "name": "",
          "type": "uint256"
        }
      ],
      "stateMutability": "view",
      "type": "function"
    },
    {
      "inputs": [
        {
          "internalType": "address",
          "name": "addr",
          "type": "address"
        }
      ],
      "name": "getIndex",
      "outputs": [
        {
          "internalType": "uint256",
          "name": "index",
          "type": "uint256"
        }
      ],
      "stateMutability": "view",
      "type": "function"
    },
    {
      "inputs": [
        {
          "internalType": "uint256",
          "name": "index",
          "type": "uint256"
        }
      ],
      "name": "getPred",
      "outputs": [
        {
          "components": [
            {
              "internalType": "uint256",
              "name": "id",
              "type": "uint256"
            },
            {
              "internalType": "address payable",
              "name": "bidAddr",
              "type": "address"
            },
            {
              "internalType": "address payable",
              "name": "challengerAddr",
              "type": "address"
            },
            {
              "internalType": "uint256",
              "name": "bidAmount",
              "type": "uint256"
            },
            {
              "internalType": "uint256",
              "name": "challengerAmount",
              "type": "uint256"
            },
            {
              "internalType": "uint256",
              "name": "bidOdds",
              "type": "uint256"
            },
            {
              "internalType": "string",
              "name": "bidGameWinner",
              "type": "string"
            },
            {
              "internalType": "uint256",
              "name": "gameID",
              "type": "uint256"
            },
            {
              "internalType": "bool",
              "name": "bidWin",
              "type": "bool"
            },
            {
              "internalType": "bool",
              "name": "hasChallenger",
              "type": "bool"
            },
            {
              "internalType": "bool",
              "name": "isFinal",
              "type": "bool"
            }
          ],
          "internalType": "struct PredictionManager.Prediction",
          "name": "pred",
          "type": "tuple"
        }
      ],
      "stateMutability": "view",
      "type": "function"
    },
    {
      "inputs": [
        {
          "internalType": "address",
          "name": "addr",
          "type": "address"
        }
      ],
      "name": "hasActiveBid",
      "outputs": [
        {
          "internalType": "bool",
          "name": "",
          "type": "bool"
        }
      ],
      "stateMutability": "view",
      "type": "function"
    },
    {
      "inputs": [],
      "name": "owner",
      "outputs": [
        {
          "internalType": "address",
          "name": "",
          "type": "address"
        }
      ],
      "stateMutability": "view",
      "type": "function"
    },
    {
      "inputs": [],
      "name": "predId",
      "outputs": [
        {
          "internalType": "uint256",
          "name": "",
          "type": "uint256"
        }
      ],
      "stateMutability": "view",
      "type": "function"
    },
    {
      "inputs": [
        {
          "internalType": "uint256",
          "name": "",
          "type": "uint256"
        }
      ],
      "name": "predictionList",
      "outputs": [
        {
          "internalType": "uint256",
          "name": "id",
          "type": "uint256"
        },
        {
          "internalType": "address payable",
          "name": "bidAddr",
          "type": "address"
        },
        {
          "internalType": "address payable",
          "name": "challengerAddr",
          "type": "address"
        },
        {
          "internalType": "uint256",
          "name": "bidAmount",
          "type": "uint256"
        },
        {
          "internalType": "uint256",
          "name": "challengerAmount",
          "type": "uint256"
        },
        {
          "internalType": "uint256",
          "name": "bidOdds",
          "type": "uint256"
        },
        {
          "internalType": "string",
          "name": "bidGameWinner",
          "type": "string"
        },
        {
          "internalType": "uint256",
          "name": "gameID",
          "type": "uint256"
        },
        {
          "internalType": "bool",
          "name": "bidWin",
          "type": "bool"
        },
        {
          "internalType": "bool",
          "name": "hasChallenger",
          "type": "bool"
        },
        {
          "internalType": "bool",
          "name": "isFinal",
          "type": "bool"
        }
      ],
      "stateMutability": "view",
      "type": "function"
    },
    {
      "inputs": [
        {
          "components": [
            {
              "internalType": "uint256",
              "name": "id",
              "type": "uint256"
            },
            {
              "internalType": "address payable",
              "name": "bidAddr",
              "type": "address"
            },
            {
              "internalType": "address payable",
              "name": "challengerAddr",
              "type": "address"
            },
            {
              "internalType": "uint256",
              "name": "bidAmount",
              "type": "uint256"
            },
            {
              "internalType": "uint256",
              "name": "challengerAmount",
              "type": "uint256"
            },
            {
              "internalType": "uint256",
              "name": "bidOdds",
              "type": "uint256"
            },
            {
              "internalType": "string",
              "name": "bidGameWinner",
              "type": "string"
            },
            {
              "internalType": "uint256",
              "name": "gameID",
              "type": "uint256"
            },
            {
              "internalType": "bool",
              "name": "bidWin",
              "type": "bool"
            },
            {
              "internalType": "bool",
              "name": "hasChallenger",
              "type": "bool"
            },
            {
              "internalType": "bool",
              "name": "isFinal",
              "type": "bool"
            }
          ],
          "internalType": "struct PredictionManager.Prediction",
          "name": "pred",
          "type": "tuple"
        }
      ],
      "name": "receiveNewBid",
      "outputs": [],
      "stateMutability": "payable",
      "type": "function"
    },
    {
      "inputs": [],
      "name": "returnResults",
      "outputs": [
        {
          "internalType": "bool",
          "name": "",
          "type": "bool"
        }
      ],
      "stateMutability": "nonpayable",
      "type": "function"
    },
    {
      "inputs": [
        {
          "internalType": "uint256",
          "name": "predIndex",
          "type": "uint256"
        },
        {
          "internalType": "address payable",
          "name": "challengerAddr",
          "type": "address"
        },
        {
          "internalType": "uint256",
          "name": "amount",
          "type": "uint256"
        }
      ],
      "name": "updateBidWithChallenger",
      "outputs": [],
      "stateMutability": "payable",
      "type": "function"
    },
    {
      "stateMutability": "payable",
      "type": "receive"
    }
  ],
  "bytecode": "0x6080604052600080546001600160a01b0319163317815560015534801561002557600080fd5b50611228806100356000396000f3fe60806040526004361061008f5760003560e01c80639590cf28116100565780639590cf281461019c578063b22fda86146101c9578063b31610db146101de578063d19adc1c14610214578063f862a4761461022757005b80630af8d5a71461009857806313617db9146100ce5780632f1e156a1461012d57806380645265146101405780638da5cb5b1461016457005b3661009657005b005b3480156100a457600080fd5b506100b86100b3366004610f44565b61025e565b6040516100c59190610fde565b60405180910390f35b3480156100da57600080fd5b5061011d6100e9366004610e25565b6001600160a01b03166000908152600260209081526040808320548352600390915290206008015462010000900460ff1690565b60405190151581526020016100c5565b61009661013b366004610e48565b6103f1565b34801561014c57600080fd5b5061015660015481565b6040519081526020016100c5565b34801561017057600080fd5b50600054610184906001600160a01b031681565b6040516001600160a01b0390911681526020016100c5565b3480156101a857600080fd5b506101566101b7366004610e25565b60026020526000908152604090205481565b3480156101d557600080fd5b5061011d610726565b3480156101ea57600080fd5b506101566101f9366004610e25565b6001600160a01b031660009081526002602052604090205490565b610096610222366004610f5c565b610aa2565b34801561023357600080fd5b50610247610242366004610f44565b610bef565b6040516100c59b9a999897969594939291906110a1565b604080516101608101825260008082526020820181905291810182905260608082018390526080820183905260a0820183905260c082015260e08101829052610100810182905261012081018290526101408101919091526000828152600360208181526040928390208351610160810185528154815260018201546001600160a01b039081169382019390935260028201549092169382019390935290820154606082015260048201546080820152600582015460a082015260068201805491929160c0840191906103309061115b565b80601f016020809104026020016040519081016040528092919081815260200182805461035c9061115b565b80156103a95780601f1061037e576101008083540402835291602001916103a9565b820191906000526020600020905b81548152906001019060200180831161038c57829003601f168201915b50505091835250506007820154602082015260089091015460ff8082161515604084015261010082048116151560608401526201000090910416151560809091015292915050565b336000908152600260209081526040808320548352600390915290206008015462010000900460ff161515600114156104815760405162461bcd60e51b815260206004820152602760248201527f54686973206164647265737320616c72656164792068617320616e20616374696044820152663b32903134b21760c91b60648201526084015b60405180910390fd5b336000908152600260205260409020546105bb57600061010082018190526101208201819052610140820181905260018054808452825260036020818152604093849020855181558186015193810180546001600160a01b03199081166001600160a01b0396871617909155948601516002820180549096169416939093179093556060840151908201556080830151600482015560a0830151600582015560c08301518051849361053a926006850192910190610ce5565b5060e0820151600782015561010080830151600890920180546101208501516101409095015161ffff1990911693151561ff001916939093179315159091029290921762ff000019166201000091151591909102179055600180543360009081526002602052604081208290559091906105b383611196565b919050555050565b33600090815260026020526040902054158015906106035750336000908152600260209081526040808320548352600390915290206008015462010000900460ff1615156001145b15610723576000610100820181905261012082018190526101408201819052600180548352338252600260208181526040808520548552600380835294819020865181558287015194810180546001600160a01b03199081166001600160a01b039788161790915591870151938101805490921693909416929092179091556060840151928201929092556080830151600482015560a0830151600582015560c0830151805184936106bc926006850192910190610ce5565b5060e0820151600782015561010080830151600890920180546101208501516101409095015161ffff1990911693151561ff001916939093179315159091029290921762ff000019166201000091151591909102179055600180549060006105b383611196565b50565b33600081815260026020818152604080842054845260038083528185208251610160810184528154815260018201546001600160a01b03908116958201959095529481015490931691840191909152810154606083015260048101546080830152600581015460a08301526006810180549394938593929160c08401916107ac9061115b565b80601f01602080910402602001604051908101604052809291908181526020018280546107d89061115b565b80156108255780601f106107fa57610100808354040283529160200191610825565b820191906000526020600020905b81548152906001019060200180831161080857829003601f168201915b50505091835250506007820154602082015260089091015460ff808216151560408401526101008204811615156060840152620100009091041615156080909101526101408101519091506108f05760405162461bcd60e51b8152602060048201526044602482018190527f43616e6e6f742072657475726e207061796f75747320666f722061206d617463908201527f6865642062696420756e74696c2074686520726573756c7473206172652066696064820152633730b61760e11b608482015260a401610478565b33600090815260026020908152604080832054835260039091529020600801805462ff000019169055610120810151158015610941575080602001516001600160a01b0316826001600160a01b0316145b156109f957600081606001519050600082602001516001600160a01b0316826040515b60006040518083038185875af1925050503d80600081146109a1576040519150601f19603f3d011682016040523d82523d6000602084013e6109a6565b606091505b50509050806109ee5760405162461bcd60e51b81526020600482015260146024820152732330b4b632b2103a379039b2b7321022ba3432b960611b6044820152606401610478565b600194505050505090565b816001600160a01b031681602001516001600160a01b0316148015610a2057508061010001515b15610a5657600081608001518260600151610a3b9190611143565b9050600082602001516001600160a01b031682604051610964565b816001600160a01b031681604001516001600160a01b0316148015610a7e5750806101000151155b15610a9957600081608001518260600151610a3b9190611143565b60009250505090565b6001600160a01b03821660009081526002602090815260408083208690558583526003909152902060080154610100900460ff1615610b2d5760405162461bcd60e51b815260206004820152602160248201527f546869732062696420616c7265616479206861732061206368616c6c656e67656044820152603960f91b6064820152608401610478565b600083815260036020819052604090912001548114610ba25760405162461bcd60e51b815260206004820152602b60248201527f4368616c6c656e676520616d6f756e7420646f6573206e6f74206d617463682060448201526a3134b21030b6b7bab73a1760a91b6064820152608401610478565b6000928352600360205260409092206002810180546001600160a01b039093166001600160a01b0319909316929092179091556004810191909155600801805461ff001916610100179055565b6003602081905260009182526040909120805460018201546002830154938301546004840154600585015460068601805495976001600160a01b039586169795169593949293919291610c419061115b565b80601f0160208091040260200160405190810160405280929190818152602001828054610c6d9061115b565b8015610cba5780601f10610c8f57610100808354040283529160200191610cba565b820191906000526020600020905b815481529060010190602001808311610c9d57829003601f168201915b50505050600783015460089093015491929160ff80821692506101008204811691620100009004168b565b828054610cf19061115b565b90600052602060002090601f016020900481019282610d135760008555610d59565b82601f10610d2c57805160ff1916838001178555610d59565b82800160010185558215610d59579182015b82811115610d59578251825591602001919060010190610d3e565b50610d65929150610d69565b5090565b5b80821115610d655760008155600101610d6a565b8035610d89816111dd565b919050565b80358015158114610d8957600080fd5b600082601f830112610dae578081fd5b813567ffffffffffffffff80821115610dc957610dc96111c7565b604051601f8301601f19908116603f01168101908282118183101715610df157610df16111c7565b81604052838152866020858801011115610e09578485fd5b8360208701602083013792830160200193909352509392505050565b600060208284031215610e36578081fd5b8135610e41816111dd565b9392505050565b600060208284031215610e59578081fd5b813567ffffffffffffffff80821115610e70578283fd5b908301906101608286031215610e84578283fd5b610e8c611119565b82358152610e9c60208401610d7e565b6020820152610ead60408401610d7e565b6040820152606083013560608201526080830135608082015260a083013560a082015260c083013582811115610ee1578485fd5b610eed87828601610d9e565b60c08301525060e083013560e08201526101009150610f0d828401610d8e565b828201526101209150610f21828401610d8e565b828201526101409150610f35828401610d8e565b91810191909152949350505050565b600060208284031215610f55578081fd5b5035919050565b600080600060608486031215610f70578182fd5b833592506020840135610f82816111dd565b929592945050506040919091013590565b60008151808452815b81811015610fb857602081850181015186830182015201610f9c565b81811115610fc95782602083870101525b50601f01601f19169290920160200192915050565b60208152815160208201526000602083015161100560408401826001600160a01b03169052565b5060408301516001600160a01b03811660608401525060608301516080830152608083015160a083015260a083015160c083015260c08301516101608060e0850152611055610180850183610f93565b60e08601516101008681019190915286015190925061012061107a8187018315159052565b860151905061014061108f8682018315159052565b90950151151593019290925250919050565b8b81526001600160a01b038b811660208301528a166040820152606081018990526080810188905260a0810187905261016060c082018190526000906110e983820189610f93565b60e08401979097525050921515610100840152901515610120830152151561014090910152979650505050505050565b604051610160810167ffffffffffffffff8111828210171561113d5761113d6111c7565b60405290565b60008219821115611156576111566111b1565b500190565b600181811c9082168061116f57607f821691505b6020821081141561119057634e487b7160e01b600052602260045260246000fd5b50919050565b60006000198214156111aa576111aa6111b1565b5060010190565b634e487b7160e01b600052601160045260246000fd5b634e487b7160e01b600052604160045260246000fd5b6001600160a01b038116811461072357600080fdfea264697066735822122025b80f45b7fa995f848b6f174064b27f0fb81ade3795dbca5f2795dda2f8adbf64736f6c63430008040033",
  "linkReferences": {},
  "deployedLinkReferences": {}
}