{
  "_format": "hh-sol-artifact-1",
  "contractName": "PredictionManager",
  "sourceName": "contracts/PredictionManager.sol",
  "abi": [
    {
      "stateMutability": "payable",
      "type": "fallback"
    },
    {
      "inputs": [
        {
          "internalType": "address",
          "name": "entityAddress",
          "type": "address"
        }
      ],
      "name": "bidWin",
      "outputs": [],
      "stateMutability": "nonpayable",
      "type": "function"
    },
    {
      "inputs": [
        {
          "internalType": "address",
          "name": "entityAddress",
          "type": "address"
        }
      ],
      "name": "deleteBid",
      "outputs": [
        {
          "internalType": "bool",
          "name": "success",
          "type": "bool"
        }
      ],
      "stateMutability": "nonpayable",
      "type": "function"
    },
    {
      "inputs": [],
      "name": "game_addr",
      "outputs": [
        {
          "internalType": "address",
          "name": "",
          "type": "address"
        }
      ],
      "stateMutability": "view",
      "type": "function"
    },
    {
      "inputs": [
        {
          "internalType": "address",
          "name": "addr",
          "type": "address"
        }
      ],
      "name": "getGameContractAddress",
      "outputs": [],
      "stateMutability": "nonpayable",
      "type": "function"
    },
    {
      "inputs": [
        {
          "internalType": "address",
          "name": "entityAddress",
          "type": "address"
        }
      ],
      "name": "getMultiplier",
      "outputs": [
        {
          "internalType": "uint256",
          "name": "response",
          "type": "uint256"
        }
      ],
      "stateMutability": "view",
      "type": "function"
    },
    {
      "inputs": [],
      "name": "getPredCount",
      "outputs": [
        {
          "internalType": "uint256",
          "name": "predsCount",
          "type": "uint256"
        }
      ],
      "stateMutability": "view",
      "type": "function"
    },
    {
      "inputs": [
        {
          "components": [
            {
              "internalType": "address payable",
              "name": "bidAddr",
              "type": "address"
            },
            {
              "internalType": "address payable",
              "name": "challengerAddr",
              "type": "address"
            },
            {
              "internalType": "uint256",
              "name": "bidAmount",
              "type": "uint256"
            },
            {
              "internalType": "uint256",
              "name": "challengerAmount",
              "type": "uint256"
            },
            {
              "internalType": "uint256",
              "name": "bidOdds",
              "type": "uint256"
            },
            {
              "internalType": "string",
              "name": "gameWinner",
              "type": "string"
            },
            {
              "internalType": "uint256",
              "name": "gameID",
              "type": "uint256"
            },
            {
              "internalType": "bool",
              "name": "bidWin",
              "type": "bool"
            },
            {
              "internalType": "bool",
              "name": "hasChallenger",
              "type": "bool"
            },
            {
              "internalType": "bool",
              "name": "gameIsFinal",
              "type": "bool"
            },
            {
              "internalType": "uint256",
              "name": "listPointer",
              "type": "uint256"
            },
            {
              "internalType": "bool",
              "name": "isStale",
              "type": "bool"
            }
          ],
          "internalType": "struct PredictionManager.Prediction",
          "name": "pred",
          "type": "tuple"
        }
      ],
      "name": "handleBidInfo",
      "outputs": [
        {
          "internalType": "bool",
          "name": "success",
          "type": "bool"
        }
      ],
      "stateMutability": "payable",
      "type": "function"
    },
    {
      "inputs": [
        {
          "internalType": "address",
          "name": "entityAddress",
          "type": "address"
        }
      ],
      "name": "hasBid",
      "outputs": [
        {
          "internalType": "bool",
          "name": "",
          "type": "bool"
        }
      ],
      "stateMutability": "view",
      "type": "function"
    },
    {
      "inputs": [
        {
          "internalType": "address",
          "name": "entityAddress",
          "type": "address"
        }
      ],
      "name": "makeFinal",
      "outputs": [],
      "stateMutability": "nonpayable",
      "type": "function"
    },
    {
      "inputs": [
        {
          "components": [
            {
              "internalType": "address payable",
              "name": "bidAddr",
              "type": "address"
            },
            {
              "internalType": "address payable",
              "name": "challengerAddr",
              "type": "address"
            },
            {
              "internalType": "uint256",
              "name": "bidAmount",
              "type": "uint256"
            },
            {
              "internalType": "uint256",
              "name": "challengerAmount",
              "type": "uint256"
            },
            {
              "internalType": "uint256",
              "name": "bidOdds",
              "type": "uint256"
            },
            {
              "internalType": "string",
              "name": "gameWinner",
              "type": "string"
            },
            {
              "internalType": "uint256",
              "name": "gameID",
              "type": "uint256"
            },
            {
              "internalType": "bool",
              "name": "bidWin",
              "type": "bool"
            },
            {
              "internalType": "bool",
              "name": "hasChallenger",
              "type": "bool"
            },
            {
              "internalType": "bool",
              "name": "gameIsFinal",
              "type": "bool"
            },
            {
              "internalType": "uint256",
              "name": "listPointer",
              "type": "uint256"
            },
            {
              "internalType": "bool",
              "name": "isStale",
              "type": "bool"
            }
          ],
          "internalType": "struct PredictionManager.Prediction",
          "name": "pred",
          "type": "tuple"
        }
      ],
      "name": "newBid",
      "outputs": [
        {
          "internalType": "bool",
          "name": "success",
          "type": "bool"
        }
      ],
      "stateMutability": "payable",
      "type": "function"
    },
    {
      "inputs": [],
      "name": "owner",
      "outputs": [
        {
          "internalType": "address",
          "name": "",
          "type": "address"
        }
      ],
      "stateMutability": "view",
      "type": "function"
    },
    {
      "inputs": [],
      "name": "predId",
      "outputs": [
        {
          "internalType": "uint256",
          "name": "",
          "type": "uint256"
        }
      ],
      "stateMutability": "view",
      "type": "function"
    },
    {
      "inputs": [
        {
          "internalType": "uint256",
          "name": "",
          "type": "uint256"
        }
      ],
      "name": "predList",
      "outputs": [
        {
          "internalType": "address",
          "name": "",
          "type": "address"
        }
      ],
      "stateMutability": "view",
      "type": "function"
    },
    {
      "inputs": [
        {
          "internalType": "address",
          "name": "",
          "type": "address"
        }
      ],
      "name": "predictions",
      "outputs": [
        {
          "internalType": "address payable",
          "name": "bidAddr",
          "type": "address"
        },
        {
          "internalType": "address payable",
          "name": "challengerAddr",
          "type": "address"
        },
        {
          "internalType": "uint256",
          "name": "bidAmount",
          "type": "uint256"
        },
        {
          "internalType": "uint256",
          "name": "challengerAmount",
          "type": "uint256"
        },
        {
          "internalType": "uint256",
          "name": "bidOdds",
          "type": "uint256"
        },
        {
          "internalType": "string",
          "name": "gameWinner",
          "type": "string"
        },
        {
          "internalType": "uint256",
          "name": "gameID",
          "type": "uint256"
        },
        {
          "internalType": "bool",
          "name": "bidWin",
          "type": "bool"
        },
        {
          "internalType": "bool",
          "name": "hasChallenger",
          "type": "bool"
        },
        {
          "internalType": "bool",
          "name": "gameIsFinal",
          "type": "bool"
        },
        {
          "internalType": "uint256",
          "name": "listPointer",
          "type": "uint256"
        },
        {
          "internalType": "bool",
          "name": "isStale",
          "type": "bool"
        }
      ],
      "stateMutability": "view",
      "type": "function"
    },
    {
      "inputs": [
        {
          "internalType": "address payable",
          "name": "sourceAddr",
          "type": "address"
        }
      ],
      "name": "returnResults",
      "outputs": [
        {
          "internalType": "bool",
          "name": "success",
          "type": "bool"
        }
      ],
      "stateMutability": "payable",
      "type": "function"
    },
    {
      "inputs": [
        {
          "internalType": "address",
          "name": "bidAddress",
          "type": "address"
        },
        {
          "internalType": "address payable",
          "name": "challengerAddr",
          "type": "address"
        }
      ],
      "name": "updateBidWithChallenger",
      "outputs": [],
      "stateMutability": "payable",
      "type": "function"
    },
    {
      "inputs": [
        {
          "components": [
            {
              "internalType": "address payable",
              "name": "bidAddr",
              "type": "address"
            },
            {
              "internalType": "address payable",
              "name": "challengerAddr",
              "type": "address"
            },
            {
              "internalType": "uint256",
              "name": "bidAmount",
              "type": "uint256"
            },
            {
              "internalType": "uint256",
              "name": "challengerAmount",
              "type": "uint256"
            },
            {
              "internalType": "uint256",
              "name": "bidOdds",
              "type": "uint256"
            },
            {
              "internalType": "string",
              "name": "gameWinner",
              "type": "string"
            },
            {
              "internalType": "uint256",
              "name": "gameID",
              "type": "uint256"
            },
            {
              "internalType": "bool",
              "name": "bidWin",
              "type": "bool"
            },
            {
              "internalType": "bool",
              "name": "hasChallenger",
              "type": "bool"
            },
            {
              "internalType": "bool",
              "name": "gameIsFinal",
              "type": "bool"
            },
            {
              "internalType": "uint256",
              "name": "listPointer",
              "type": "uint256"
            },
            {
              "internalType": "bool",
              "name": "isStale",
              "type": "bool"
            }
          ],
          "internalType": "struct PredictionManager.Prediction",
          "name": "pred",
          "type": "tuple"
        }
      ],
      "name": "updateStaleBid",
      "outputs": [
        {
          "internalType": "bool",
          "name": "success",
          "type": "bool"
        }
      ],
      "stateMutability": "payable",
      "type": "function"
    },
    {
      "stateMutability": "payable",
      "type": "receive"
    }
  ],
  "bytecode": "0x6080604052600080546001600160a01b031990811633178255600191909155600280549091163017905534801561003557600080fd5b50611845806100456000396000f3fe6080604052600436106100f65760003560e01c8063a9d637e11161008f578063d5f619a811610061578063d5f619a8146102a3578063eac4fdf0146102b6578063f02d0875146102c9578063f51c004e146102e9578063f8bd97d7146102fc57005b8063a9d637e11461022e578063c833f9fa1461024e578063d1aa657a1461026e578063d2639dbf1461028357005b806335fa61fa116100c857806335fa61fa146101875780636d6db110146101bf57806380645265146101d25780638da5cb5b146101f657005b80630fb878de146100ff578063180698f114610127578063181fb704146101475780631bcd28bd1461016757005b366100fd57005b005b61011261010d36600461142b565b61031c565b60405190151581526020015b60405180910390f35b34801561013357600080fd5b506100fd61014236600461142b565b61081a565b34801561015357600080fd5b506100fd61016236600461142b565b610841565b34801561017357600080fd5b506100fd61018236600461142b565b61086c565b34801561019357600080fd5b506101a76101a236600461142b565b6108ba565b60405161011e9c9b9a999897969594939291906115f9565b6101126101cd366004611486565b6109b9565b3480156101de57600080fd5b506101e860015481565b60405190815260200161011e565b34801561020257600080fd5b50600054610216906001600160a01b031681565b6040516001600160a01b03909116815260200161011e565b34801561023a57600080fd5b506101e861024936600461142b565b6109eb565b34801561025a57600080fd5b50600354610216906001600160a01b031681565b34801561027a57600080fd5b506005546101e8565b34801561028f57600080fd5b5061011261029e36600461142b565b610b87565b6101126102b1366004611486565b610bf4565b6101126102c4366004611486565b610c71565b3480156102d557600080fd5b506102166102e4366004611596565b610e45565b6100fd6102f736600461144e565b610e6f565b34801561030857600080fd5b5061011261031736600461142b565b6110c9565b6001600160a01b038082166000908152600460208181526040808420815161018081018352815487168152600182015490961692860192909252600282015490850152600381015460608501529081015460808401526005810180549293849390929160a084019161038d90611778565b80601f01602080910402602001604051908101604052809291908181526020018280546103b990611778565b80156104065780601f106103db57610100808354040283529160200191610406565b820191906000526020600020905b8154815290600101906020018083116103e957829003601f168201915b505050918352505060068201546020820152600782015460ff80821615156040840152610100820481161515606084015262010000909104811615156080830152600883015460a0830152600990920154909116151560c0909101526101208101519091506104e4576040805162461bcd60e51b81526020600482015260248101919091527f43616e6e6f742072657475726e207061796f75747320666f722061206d61746360448201527f6865642062696420756e74696c207468652067616d652069732066696e616c2e60648201526084015b60405180910390fd5b806101000151158015610503575080516001600160a01b038481169116145b1561060d576105376040518060400160405280600e81526020016d4e6f206368616c6c656e6765722160901b8152506111fd565b600081604001519050600082600001516001600160a01b03168260405160006040518083038185875af1925050503d8060008114610591576040519150601f19603f3d011682016040523d82523d6000602084013e610596565b606091505b50509050806105de5760405162461bcd60e51b81526020600482015260146024820152732330b4b632b2103a379039b2b7321022ba3432b960611b60448201526064016104db565b505050506001600160a01b03166000908152600460205260409020600901805460ff1916600190811790915590565b826001600160a01b031681600001516001600160a01b031614801561063357508060e001515b15610715576106646040518060400160405280600b81526020016a42696464657220776f6e2160a81b8152506111fd565b60008160600151826040015161067a919061170a565b6040519091506001600160a01b0385169082156108fc029083906000818181858888f193505050501580156106b3573d6000803e3d6000fd5b506001600160a01b038416600090815260046020908152604091829020600901805460ff191660011790558151808301909252601082526f11195b195d1a5b99c81d1a1948189a5960821b9082015261070b906111fd565b5060019392505050565b826001600160a01b031681602001516001600160a01b031614801561073c57508060e00151155b156107c0576107716040518060400160405280600f81526020016e4368616c6c656e67657220776f6e2160881b8152506111fd565b600081606001518260400151610787919061170a565b6040519091506001600160a01b0385169082156108fc029083906000818181858888f193505050501580156105de573d6000803e3d6000fd5b6107ea60405180604001604052806009815260200168556e6361756768742160b81b8152506111fd565b50506001600160a01b03166000908152600460205260408120600901805460ff1916600117905590565b50919050565b6001600160a01b03166000908152600460205260409020600701805460ff19166001179055565b6001600160a01b03166000908152600460205260409020600701805462ff0000191662010000179055565b600380546001600160a01b0319166001600160a01b03831690811790915560408051808201909152600d81526c23b0b6b29030b2323932b9b99d60991b60208201526108b791611240565b50565b60046020819052600091825260409091208054600182015460028301546003840154948401546005850180546001600160a01b03958616979490951695929491929161090590611778565b80601f016020809104026020016040519081016040528092919081815260200182805461093190611778565b801561097e5780601f106109535761010080835404028352916020019161097e565b820191906000526020600020905b81548152906001019060200180831161096157829003601f168201915b5050506006840154600785015460088601546009909601549495919460ff80831695506101008304811694506201000090920482169291168c565b60006109c433610b87565b156109d8576109d282610bf4565b506109e3565b6109e182610c71565b505b506001919050565b6001600160a01b038082166000908152600460208181526040808420815161018081018352815487168152600182015490961692860192909252600282015490850152600381015460608501529081015460808401526005810180549293849390929160a0840191610a5c90611778565b80601f0160208091040260200160405190810160405280929190818152602001828054610a8890611778565b8015610ad55780601f10610aaa57610100808354040283529160200191610ad5565b820191906000526020600020905b815481529060010190602001808311610ab857829003601f168201915b505050918352505060068201546020820152600782015460ff8082161515604084015261010082048116151560608401526201000090910481161515608080840191909152600884015460a084015260099093015416151560c090910152810151909150600090610b47816064611761565b610b5390612710611742565b610b5d9190611722565b90506000612710828460400151610b749190611742565b610b7e9190611722565b95945050505050565b600554600090610b9957506000919050565b6001600160a01b038216600081815260046020526040902060080154600580549091908110610bd857634e487b7160e01b600052603260045260246000fd5b6000918252602090912001546001600160a01b03161492915050565b33600081815260046020819052604080832060098101805460ff1916905580546001600160a01b0319908116909517815560078101805460808801519483019490945591860151600282015560018082018054909616909555600381019390935562ffffff19909116905560c09092015160069092019190915590565b6000610c7c33610b87565b15610cc95760405162461bcd60e51b815260206004820152601e60248201527f54686973206164647265737320616c726561647920686173206120626964000060448201526064016104db565b600580546001818101835560008381527f036b6384b5eca791c62761152d0c79bb0604c104a5fb6f4eb0703f3154bb3db090920180546001600160a01b0319163390811790915585526101008501829052610120850182905260e085018290526101608501919091529054610d3e9190611761565b61014083015233600090815260046020818152604092839020855181546001600160a01b039182166001600160a01b0319918216178355838801516001840180549190931691161790559285015160028401556060850151600384015560808501519183019190915560a08401518051859392610dc29260058501929101906112eb565b5060c0820151600682015560e08201516007820180546101008086015161012087015161ffff1990931694151561ff00191694909417931515029290921762ff0000191662010000921515929092029190911790556101408201516008820155610160909101516009909101805460ff1916911515919091179055506001919050565b60058181548110610e5557600080fd5b6000918252602090912001546001600160a01b0316905081565b610e916040518060600160405280602181526020016117ef6021913933611240565b6001600160a01b0382811660009081526004602052604090206001810180546001600160a01b0319169284169290921790915560070154610100900460ff1615610f275760405162461bcd60e51b815260206004820152602160248201527f546869732062696420616c7265616479206861732061206368616c6c656e67656044820152603960f91b60648201526084016104db565b6000610f32836109eb565b6001600160a01b038085166000818152600460208181526040808420600181018054978b166001600160a01b0319909816979097179096556003860187905560078601805461ff0019166101001790558051808201909152600b81526a2134b21030b6b7bab73a1d60a91b81830152939092529052600290910154919250610fb991611289565b6110156040518060400160405280601281526020017121b430b63632b733b2b91030b6b7bab73a1d60711b81525060046000866001600160a01b03166001600160a01b0316815260200190815260200160002060030154611289565b6110b2604051806040016040528060158152602001742134b217b1b430b63632b733b2b9103930ba34b79d60591b81525060046000866001600160a01b03166001600160a01b0316815260200190815260200160002060040154606461107b9190611761565b6001600160a01b038616600090815260046020819052604090912001546110a3906064611742565b6110ad9190611722565b611289565b6110bb8361081a565b6110c483610841565b505050565b60006110d482610b87565b6110dd57600080fd5b6001600160a01b0382166000908152600460205260408120600801546005805491929161110c90600190611761565b8154811061112a57634e487b7160e01b600052603260045260246000fd5b600091825260209091200154600580546001600160a01b03909216925082918490811061116757634e487b7160e01b600052603260045260246000fd5b600091825260208083209190910180546001600160a01b0319166001600160a01b03948516179055918316815260049091526040902060088101839055600901805460ff1916600117905560058054806111d157634e487b7160e01b600052603160045260246000fd5b600082815260209020810160001990810180546001600160a01b03191690550190555060019392505050565b6108b7816040516024016112119190611681565b60408051601f198184030181529190526020810180516001600160e01b031663104c13eb60e21b1790526112ca565b6112858282604051602401611256929190611694565b60408051601f198184030181529190526020810180516001600160e01b031663319af33360e01b1790526112ca565b5050565b611285828260405160240161129f9291906116be565b60408051601f198184030181529190526020810180516001600160e01b03166309710a9d60e41b1790525b80516a636f6e736f6c652e6c6f67602083016000808483855afa5050505050565b8280546112f790611778565b90600052602060002090601f016020900481019282611319576000855561135f565b82601f1061133257805160ff191683800117855561135f565b8280016001018555821561135f579182015b8281111561135f578251825591602001919060010190611344565b5061136b92915061136f565b5090565b5b8082111561136b5760008155600101611370565b803561138f816117d9565b919050565b8035801515811461138f57600080fd5b600082601f8301126113b4578081fd5b813567ffffffffffffffff808211156113cf576113cf6117c3565b604051601f8301601f19908116603f011681019082821181831017156113f7576113f76117c3565b8160405283815286602085880101111561140f578485fd5b8360208701602083013792830160200193909352509392505050565b60006020828403121561143c578081fd5b8135611447816117d9565b9392505050565b60008060408385031215611460578081fd5b823561146b816117d9565b9150602083013561147b816117d9565b809150509250929050565b600060208284031215611497578081fd5b813567ffffffffffffffff808211156114ae578283fd5b9083019061018082860312156114c2578283fd5b6114ca6116e0565b6114d383611384565b81526114e160208401611384565b602082015260408301356040820152606083013560608201526080830135608082015260a083013582811115611515578485fd5b611521878286016113a4565b60a08301525060c083013560c082015261153d60e08401611394565b60e08201526101009150611552828401611394565b828201526101209150611566828401611394565b82820152610140915081830135828201526101609150611587828401611394565b91810191909152949350505050565b6000602082840312156115a7578081fd5b5035919050565b60008151808452815b818110156115d3576020818501810151868301820152016115b7565b818111156115e45782602083870101525b50601f01601f19169290920160200192915050565b600060018060a01b03808f168352808e166020840152508b60408301528a606083015289608083015261018060a083015261163861018083018a6115ae565b90508760c083015286151560e08301528515156101008301528415156101208301528361014083015261167061016083018415159052565b9d9c50505050505050505050505050565b60208152600061144760208301846115ae565b6040815260006116a760408301856115ae565b905060018060a01b03831660208301529392505050565b6040815260006116d160408301856115ae565b90508260208301529392505050565b604051610180810167ffffffffffffffff81118282101715611704576117046117c3565b60405290565b6000821982111561171d5761171d6117ad565b500190565b60008261173d57634e487b7160e01b81526012600452602481fd5b500490565b600081600019048311821515161561175c5761175c6117ad565b500290565b600082821015611773576117736117ad565b500390565b600181811c9082168061178c57607f821691505b6020821081141561081457634e487b7160e01b600052602260045260246000fd5b634e487b7160e01b600052601160045260246000fd5b634e487b7160e01b600052604160045260246000fd5b6001600160a01b03811681146108b757600080fdfe416464726573732073656e64696e6720696e20746865206368616c6c656e67653aa26469706673582212208c67eaca3df4a67c342bde5dab9944f4c82716102855235803ba574a0c0cb33464736f6c63430008040033",
  "linkReferences": {},
  "deployedLinkReferences": {}
}